{
  "contractName": "EnrollmentContract",
  "abi": [
    {
      "inputs": [
        {
          "internalType": "address",
          "name": "",
          "type": "address"
        }
      ],
      "name": "patients",
      "outputs": [
        {
          "internalType": "string",
          "name": "name",
          "type": "string"
        },
        {
          "internalType": "address",
          "name": "patientAddress",
          "type": "address"
        },
        {
          "internalType": "uint256",
          "name": "aadharNumber",
          "type": "uint256"
        }
      ],
      "stateMutability": "view",
      "type": "function"
    },
    {
      "inputs": [
        {
          "internalType": "string",
          "name": "_name",
          "type": "string"
        },
        {
          "internalType": "address",
          "name": "_patientAddress",
          "type": "address"
        },
        {
          "internalType": "uint256",
          "name": "_aadharNumber",
          "type": "uint256"
        }
      ],
      "name": "enrollPatient",
      "outputs": [],
      "stateMutability": "nonpayable",
      "type": "function"
    },
    {
      "inputs": [
        {
          "internalType": "address",
          "name": "_patientAddress",
          "type": "address"
        }
      ],
      "name": "getPatient",
      "outputs": [
        {
          "components": [
            {
              "internalType": "string",
              "name": "name",
              "type": "string"
            },
            {
              "internalType": "address",
              "name": "patientAddress",
              "type": "address"
            },
            {
              "internalType": "uint256",
              "name": "aadharNumber",
              "type": "uint256"
            }
          ],
          "internalType": "struct EnrollmentContract.Patient",
          "name": "",
          "type": "tuple"
        }
      ],
      "stateMutability": "view",
      "type": "function"
    }
  ],
  "bytecode": "0x608060405234801561000f575f80fd5b50610af48061001d5f395ff3fe608060405234801561000f575f80fd5b506004361061003f575f3560e01c80630869cfbc14610043578063b5368e2014610075578063b6f1903e146100a5575b5f80fd5b61005d60048036038101906100589190610448565b6100c1565b60405161006c93929190610524565b60405180910390f35b61008f600480360381019061008a9190610448565b61018b565b60405161009c9190610613565b60405180910390f35b6100bf60048036038101906100ba9190610789565b6102cf565b005b5f602052805f5260405f205f91509050805f0180546100df90610822565b80601f016020809104026020016040519081016040528092919081815260200182805461010b90610822565b80156101565780601f1061012d57610100808354040283529160200191610156565b820191905f5260205f20905b81548152906001019060200180831161013957829003601f168201915b505050505090806001015f9054906101000a900473ffffffffffffffffffffffffffffffffffffffff16908060020154905083565b6101936103a8565b5f808373ffffffffffffffffffffffffffffffffffffffff1673ffffffffffffffffffffffffffffffffffffffff1681526020019081526020015f206040518060600160405290815f820180546101e990610822565b80601f016020809104026020016040519081016040528092919081815260200182805461021590610822565b80156102605780601f1061023757610100808354040283529160200191610260565b820191905f5260205f20905b81548152906001019060200180831161024357829003601f168201915b50505050508152602001600182015f9054906101000a900473ffffffffffffffffffffffffffffffffffffffff1673ffffffffffffffffffffffffffffffffffffffff1673ffffffffffffffffffffffffffffffffffffffff1681526020016002820154815250509050919050565b60405180606001604052808481526020018373ffffffffffffffffffffffffffffffffffffffff168152602001828152505f808473ffffffffffffffffffffffffffffffffffffffff1673ffffffffffffffffffffffffffffffffffffffff1681526020019081526020015f205f820151815f01908161034f91906109ef565b506020820151816001015f6101000a81548173ffffffffffffffffffffffffffffffffffffffff021916908373ffffffffffffffffffffffffffffffffffffffff16021790555060408201518160020155905050505050565b6040518060600160405280606081526020015f73ffffffffffffffffffffffffffffffffffffffff1681526020015f81525090565b5f604051905090565b5f80fd5b5f80fd5b5f73ffffffffffffffffffffffffffffffffffffffff82169050919050565b5f610417826103ee565b9050919050565b6104278161040d565b8114610431575f80fd5b50565b5f813590506104428161041e565b92915050565b5f6020828403121561045d5761045c6103e6565b5b5f61046a84828501610434565b91505092915050565b5f81519050919050565b5f82825260208201905092915050565b5f5b838110156104aa57808201518184015260208101905061048f565b5f8484015250505050565b5f601f19601f8301169050919050565b5f6104cf82610473565b6104d9818561047d565b93506104e981856020860161048d565b6104f2816104b5565b840191505092915050565b6105068161040d565b82525050565b5f819050919050565b61051e8161050c565b82525050565b5f6060820190508181035f83015261053c81866104c5565b905061054b60208301856104fd565b6105586040830184610515565b949350505050565b5f82825260208201905092915050565b5f61057a82610473565b6105848185610560565b935061059481856020860161048d565b61059d816104b5565b840191505092915050565b6105b18161040d565b82525050565b6105c08161050c565b82525050565b5f606083015f8301518482035f8601526105e08282610570565b91505060208301516105f560208601826105a8565b50604083015161060860408601826105b7565b508091505092915050565b5f6020820190508181035f83015261062b81846105c6565b905092915050565b5f80fd5b5f80fd5b7f4e487b71000000000000000000000000000000000000000000000000000000005f52604160045260245ffd5b610671826104b5565b810181811067ffffffffffffffff821117156106905761068f61063b565b5b80604052505050565b5f6106a26103dd565b90506106ae8282610668565b919050565b5f67ffffffffffffffff8211156106cd576106cc61063b565b5b6106d6826104b5565b9050602081019050919050565b828183375f83830152505050565b5f6107036106fe846106b3565b610699565b90508281526020810184848401111561071f5761071e610637565b5b61072a8482856106e3565b509392505050565b5f82601f83011261074657610745610633565b5b81356107568482602086016106f1565b91505092915050565b6107688161050c565b8114610772575f80fd5b50565b5f813590506107838161075f565b92915050565b5f805f606084860312156107a05761079f6103e6565b5b5f84013567ffffffffffffffff8111156107bd576107bc6103ea565b5b6107c986828701610732565b93505060206107da86828701610434565b92505060406107eb86828701610775565b9150509250925092565b7f4e487b71000000000000000000000000000000000000000000000000000000005f52602260045260245ffd5b5f600282049050600182168061083957607f821691505b60208210810361084c5761084b6107f5565b5b50919050565b5f819050815f5260205f209050919050565b5f6020601f8301049050919050565b5f82821b905092915050565b5f600883026108ae7fffffffffffffffffffffffffffffffffffffffffffffffffffffffffffffffff82610873565b6108b88683610873565b95508019841693508086168417925050509392505050565b5f819050919050565b5f6108f36108ee6108e98461050c565b6108d0565b61050c565b9050919050565b5f819050919050565b61090c836108d9565b610920610918826108fa565b84845461087f565b825550505050565b5f90565b610934610928565b61093f818484610903565b505050565b5b81811015610962576109575f8261092c565b600181019050610945565b5050565b601f8211156109a75761097881610852565b61098184610864565b81016020851015610990578190505b6109a461099c85610864565b830182610944565b50505b505050565b5f82821c905092915050565b5f6109c75f19846008026109ac565b1980831691505092915050565b5f6109df83836109b8565b9150826002028217905092915050565b6109f882610473565b67ffffffffffffffff811115610a1157610a1061063b565b5b610a1b8254610822565b610a26828285610966565b5f60209050601f831160018114610a57575f8415610a45578287015190505b610a4f85826109d4565b865550610ab6565b601f198416610a6586610852565b5f5b82811015610a8c57848901518255600182019150602085019450602081019050610a67565b86831015610aa95784890151610aa5601f8916826109b8565b8355505b6001600288020188555050505b50505050505056fea264697066735822122052032fdb94be8b4d681ff4f3c7b911cce1d9dbb7bbf7103c3c3b5724a4227a8564736f6c63430008170033",
  "immutableReferences": {},
  "source": "// SPDX-License-Identifier: MIT\r\npragma solidity ^0.8.7;\r\n\r\n// Contract for managing the enrollment of patients in a blockchain-based Electronic Health Record (EHR) system.\r\ncontract EnrollmentContract {\r\n    // A struct to store information about a patient.\r\n    struct Patient {\r\n        string name; // Name of the patient.\r\n        address patientAddress; // Ethereum address of the patient. This acts as a unique identifier.\r\n        uint256 aadharNumber; // Aadhar number of the patient.\r\n    }\r\n\r\n    // A mapping from an Ethereum address to a Patient struct, used to store patient data.\r\n    mapping(address => Patient) public patients;\r\n\r\n    // Function to enroll a new patient in the system.\r\n    // _name: Name of the patient.\r\n    // _patientAddress: Ethereum address of the patient.\r\n    // _aadharNumber: Aadhar number of the patient.\r\n    function enrollPatient(string memory _name, address _patientAddress, uint256 _aadharNumber) public {\r\n        // Create a new Patient struct and store it in the mapping.\r\n        patients[_patientAddress] = Patient(_name, _patientAddress, _aadharNumber);\r\n    }\r\n\r\n    // Function to retrieve patient information.\r\n    // _patientAddress: Ethereum address of the patient.\r\n    // Returns a Patient struct containing the patient's information.\r\n    function getPatient(address _patientAddress) public view returns (Patient memory) {\r\n        // Return the patient data from the mapping.\r\n        return patients[_patientAddress];\r\n    }\r\n}\r\n",
  "sourcePath": "A:\\Sem-VII\\Research Project\\Enabling-Secure-Access-Control-of-Electronic-Health-Records-through-Smart-Contracts\\truffle\\contracts\\EnrollmentContract.sol",
  "compiler": {
    "name": "solc",
    "version": "0.8.23+commit.f704f362.Emscripten.clang"
  },
  "schemaVersion": "3.4.8",
  "updatedAt": "2023-11-14T08:22:40.300Z",
  "networkType": "ethereum",
  "devdoc": {
    "kind": "dev",
    "methods": {},
    "version": 1
  },
  "userdoc": {
    "kind": "user",
    "methods": {},
    "version": 1
  }
}