{
  "contractName": "EnrollmentContract",
  "abi": [
    {
      "inputs": [
        {
          "internalType": "address",
          "name": "",
          "type": "address"
        }
      ],
      "name": "patients",
      "outputs": [
        {
          "internalType": "string",
          "name": "name",
          "type": "string"
        },
        {
          "internalType": "address",
          "name": "patientAddress",
          "type": "address"
        },
        {
          "internalType": "uint256",
          "name": "aadharNumber",
          "type": "uint256"
        }
      ],
      "stateMutability": "view",
      "type": "function"
    },
    {
      "inputs": [
        {
          "internalType": "string",
          "name": "_name",
          "type": "string"
        },
        {
          "internalType": "address",
          "name": "_patientAddress",
          "type": "address"
        },
        {
          "internalType": "uint256",
          "name": "_aadharNumber",
          "type": "uint256"
        }
      ],
      "name": "enrollPatient",
      "outputs": [],
      "stateMutability": "nonpayable",
      "type": "function"
    },
    {
      "inputs": [
        {
          "internalType": "address",
          "name": "_patientAddress",
          "type": "address"
        }
      ],
      "name": "getPatient",
      "outputs": [
        {
          "components": [
            {
              "internalType": "string",
              "name": "name",
              "type": "string"
            },
            {
              "internalType": "address",
              "name": "patientAddress",
              "type": "address"
            },
            {
              "internalType": "uint256",
              "name": "aadharNumber",
              "type": "uint256"
            }
          ],
          "internalType": "struct EnrollmentContract.Patient",
          "name": "",
          "type": "tuple"
        }
      ],
      "stateMutability": "view",
      "type": "function"
    }
  ],
  "bytecode": "0x6080604052348015600e575f80fd5b50610ada8061001c5f395ff3fe608060405234801561000f575f80fd5b506004361061003f575f3560e01c80630869cfbc14610043578063b5368e2014610075578063b6f1903e146100a5575b5f80fd5b61005d60048036038101906100589190610448565b6100c1565b60405161006c9392919061050a565b60405180910390f35b61008f600480360381019061008a9190610448565b61018b565b60405161009c91906105f9565b60405180910390f35b6100bf60048036038101906100ba919061076f565b6102cf565b005b5f602052805f5260405f205f91509050805f0180546100df90610808565b80601f016020809104026020016040519081016040528092919081815260200182805461010b90610808565b80156101565780601f1061012d57610100808354040283529160200191610156565b820191905f5260205f20905b81548152906001019060200180831161013957829003601f168201915b505050505090806001015f9054906101000a900473ffffffffffffffffffffffffffffffffffffffff16908060020154905083565b6101936103a8565b5f808373ffffffffffffffffffffffffffffffffffffffff1673ffffffffffffffffffffffffffffffffffffffff1681526020019081526020015f206040518060600160405290815f820180546101e990610808565b80601f016020809104026020016040519081016040528092919081815260200182805461021590610808565b80156102605780601f1061023757610100808354040283529160200191610260565b820191905f5260205f20905b81548152906001019060200180831161024357829003601f168201915b50505050508152602001600182015f9054906101000a900473ffffffffffffffffffffffffffffffffffffffff1673ffffffffffffffffffffffffffffffffffffffff1673ffffffffffffffffffffffffffffffffffffffff1681526020016002820154815250509050919050565b60405180606001604052808481526020018373ffffffffffffffffffffffffffffffffffffffff168152602001828152505f808473ffffffffffffffffffffffffffffffffffffffff1673ffffffffffffffffffffffffffffffffffffffff1681526020019081526020015f205f820151815f01908161034f91906109d5565b506020820151816001015f6101000a81548173ffffffffffffffffffffffffffffffffffffffff021916908373ffffffffffffffffffffffffffffffffffffffff16021790555060408201518160020155905050505050565b6040518060600160405280606081526020015f73ffffffffffffffffffffffffffffffffffffffff1681526020015f81525090565b5f604051905090565b5f80fd5b5f80fd5b5f73ffffffffffffffffffffffffffffffffffffffff82169050919050565b5f610417826103ee565b9050919050565b6104278161040d565b8114610431575f80fd5b50565b5f813590506104428161041e565b92915050565b5f6020828403121561045d5761045c6103e6565b5b5f61046a84828501610434565b91505092915050565b5f81519050919050565b5f82825260208201905092915050565b8281835e5f83830152505050565b5f601f19601f8301169050919050565b5f6104b582610473565b6104bf818561047d565b93506104cf81856020860161048d565b6104d88161049b565b840191505092915050565b6104ec8161040d565b82525050565b5f819050919050565b610504816104f2565b82525050565b5f6060820190508181035f83015261052281866104ab565b905061053160208301856104e3565b61053e60408301846104fb565b949350505050565b5f82825260208201905092915050565b5f61056082610473565b61056a8185610546565b935061057a81856020860161048d565b6105838161049b565b840191505092915050565b6105978161040d565b82525050565b6105a6816104f2565b82525050565b5f606083015f8301518482035f8601526105c68282610556565b91505060208301516105db602086018261058e565b5060408301516105ee604086018261059d565b508091505092915050565b5f6020820190508181035f83015261061181846105ac565b905092915050565b5f80fd5b5f80fd5b7f4e487b71000000000000000000000000000000000000000000000000000000005f52604160045260245ffd5b6106578261049b565b810181811067ffffffffffffffff8211171561067657610675610621565b5b80604052505050565b5f6106886103dd565b9050610694828261064e565b919050565b5f67ffffffffffffffff8211156106b3576106b2610621565b5b6106bc8261049b565b9050602081019050919050565b828183375f83830152505050565b5f6106e96106e484610699565b61067f565b9050828152602081018484840111156107055761070461061d565b5b6107108482856106c9565b509392505050565b5f82601f83011261072c5761072b610619565b5b813561073c8482602086016106d7565b91505092915050565b61074e816104f2565b8114610758575f80fd5b50565b5f8135905061076981610745565b92915050565b5f805f60608486031215610786576107856103e6565b5b5f84013567ffffffffffffffff8111156107a3576107a26103ea565b5b6107af86828701610718565b93505060206107c086828701610434565b92505060406107d18682870161075b565b9150509250925092565b7f4e487b71000000000000000000000000000000000000000000000000000000005f52602260045260245ffd5b5f600282049050600182168061081f57607f821691505b602082108103610832576108316107db565b5b50919050565b5f819050815f5260205f209050919050565b5f6020601f8301049050919050565b5f82821b905092915050565b5f600883026108947fffffffffffffffffffffffffffffffffffffffffffffffffffffffffffffffff82610859565b61089e8683610859565b95508019841693508086168417925050509392505050565b5f819050919050565b5f6108d96108d46108cf846104f2565b6108b6565b6104f2565b9050919050565b5f819050919050565b6108f2836108bf565b6109066108fe826108e0565b848454610865565b825550505050565b5f90565b61091a61090e565b6109258184846108e9565b505050565b5b818110156109485761093d5f82610912565b60018101905061092b565b5050565b601f82111561098d5761095e81610838565b6109678461084a565b81016020851015610976578190505b61098a6109828561084a565b83018261092a565b50505b505050565b5f82821c905092915050565b5f6109ad5f1984600802610992565b1980831691505092915050565b5f6109c5838361099e565b9150826002028217905092915050565b6109de82610473565b67ffffffffffffffff8111156109f7576109f6610621565b5b610a018254610808565b610a0c82828561094c565b5f60209050601f831160018114610a3d575f8415610a2b578287015190505b610a3585826109ba565b865550610a9c565b601f198416610a4b86610838565b5f5b82811015610a7257848901518255600182019150602085019450602081019050610a4d565b86831015610a8f5784890151610a8b601f89168261099e565b8355505b6001600288020188555050505b50505050505056fea2646970667358221220d04b0139c36cb39cded1dbabe682a6487e28bdd56590877be260d8d0723ebdad64736f6c63430008190033",
  "immutableReferences": {},
  "source": "// SPDX-License-Identifier: MIT\r\npragma solidity ^0.8.7;\r\n\r\n// Contract for managing the enrollment of patients in a blockchain-based Electronic Health Record (EHR) system.\r\ncontract EnrollmentContract {\r\n    // A struct to store information about a patient.\r\n    struct Patient {\r\n        string name; // Name of the patient.\r\n        address patientAddress; // Ethereum address of the patient. This acts as a unique identifier.\r\n        uint256 aadharNumber; // Aadhar number of the patient.\r\n    }\r\n\r\n    // A mapping from an Ethereum address to a Patient struct, used to store patient data.\r\n    mapping(address => Patient) public patients;\r\n\r\n    // Function to enroll a new patient in the system.\r\n    // _name: Name of the patient.\r\n    // _patientAddress: Ethereum address of the patient.\r\n    // _aadharNumber: Aadhar number of the patient.\r\n    function enrollPatient(string memory _name, address _patientAddress, uint256 _aadharNumber) public {\r\n        // Create a new Patient struct and store it in the mapping.\r\n        patients[_patientAddress] = Patient(_name, _patientAddress, _aadharNumber);\r\n    }\r\n\r\n    // Function to retrieve patient information.\r\n    // _patientAddress: Ethereum address of the patient.\r\n    // Returns a Patient struct containing the patient's information.\r\n    function getPatient(address _patientAddress) public view returns (Patient memory) {\r\n        // Return the patient data from the mapping.\r\n        return patients[_patientAddress];\r\n    }\r\n}\r\n",
  "sourcePath": "A:\\Sem-VII\\Research Project\\Enabling-Secure-Access-Control-of-Electronic-Health-Records-through-Smart-Contracts\\truffle\\contracts\\EnrollmentContract.sol",
  "compiler": {
    "name": "solc",
    "version": "0.8.25+commit.b61c2a91.Emscripten.clang"
  },
  "schemaVersion": "3.4.8",
  "updatedAt": "2024-05-07T18:22:53.387Z",
  "networkType": "ethereum",
  "devdoc": {
    "kind": "dev",
    "methods": {},
    "version": 1
  },
  "userdoc": {
    "kind": "user",
    "methods": {},
    "version": 1
  }
}