{
  "contractName": "OverviewContractFactory",
  "abi": [
    {
      "anonymous": false,
      "inputs": [
        {
          "indexed": true,
          "internalType": "address",
          "name": "patientAddress",
          "type": "address"
        },
        {
          "indexed": false,
          "internalType": "address",
          "name": "overviewContractAddress",
          "type": "address"
        }
      ],
      "name": "OverviewContractCreated",
      "type": "event"
    },
    {
      "inputs": [
        {
          "internalType": "address",
          "name": "",
          "type": "address"
        }
      ],
      "name": "overviewContracts",
      "outputs": [
        {
          "internalType": "address",
          "name": "",
          "type": "address"
        }
      ],
      "stateMutability": "view",
      "type": "function",
      "constant": true
    },
    {
      "inputs": [
        {
          "internalType": "address",
          "name": "_patientAddress",
          "type": "address"
        }
      ],
      "name": "createOverviewContract",
      "outputs": [],
      "stateMutability": "nonpayable",
      "type": "function"
    },
    {
      "inputs": [
        {
          "internalType": "address",
          "name": "_patientAddress",
          "type": "address"
        }
      ],
      "name": "getOverviewContract",
      "outputs": [
        {
          "internalType": "address",
          "name": "",
          "type": "address"
        }
      ],
      "stateMutability": "view",
      "type": "function",
      "constant": true
    }
  ],
  "bytecode": "0x608060405234801561000f575f80fd5b5061127a8061001d5f395ff3fe608060405234801561000f575f80fd5b506004361061003f575f3560e01c80633630f744146100435780636107fac114610073578063e81873b0146100a3575b5f80fd5b61005d6004803603810190610058919061037b565b6100bf565b60405161006a91906103b5565b60405180910390f35b61008d6004803603810190610088919061037b565b6100ee565b60405161009a91906103b5565b60405180910390f35b6100bd60048036038101906100b8919061037b565b610152565b005b5f602052805f5260405f205f915054906101000a900473ffffffffffffffffffffffffffffffffffffffff1681565b5f805f8373ffffffffffffffffffffffffffffffffffffffff1673ffffffffffffffffffffffffffffffffffffffff1681526020019081526020015f205f9054906101000a900473ffffffffffffffffffffffffffffffffffffffff169050919050565b5f73ffffffffffffffffffffffffffffffffffffffff165f808373ffffffffffffffffffffffffffffffffffffffff1673ffffffffffffffffffffffffffffffffffffffff1681526020019081526020015f205f9054906101000a900473ffffffffffffffffffffffffffffffffffffffff1673ffffffffffffffffffffffffffffffffffffffff161461021b576040517f08c379a00000000000000000000000000000000000000000000000000000000081526004016102129061044e565b60405180910390fd5b5f60405161022890610310565b604051809103905ff080158015610241573d5f803e3d5ffd5b509050805f808473ffffffffffffffffffffffffffffffffffffffff1673ffffffffffffffffffffffffffffffffffffffff1681526020019081526020015f205f6101000a81548173ffffffffffffffffffffffffffffffffffffffff021916908373ffffffffffffffffffffffffffffffffffffffff1602179055508173ffffffffffffffffffffffffffffffffffffffff167f7ea041df94acef68361e8d2a2ad9dc9ca425e31e70c885a3af7381b23c52324d8260405161030491906103b5565b60405180910390a25050565b610dd88061046d83390190565b5f80fd5b5f73ffffffffffffffffffffffffffffffffffffffff82169050919050565b5f61034a82610321565b9050919050565b61035a81610340565b8114610364575f80fd5b50565b5f8135905061037581610351565b92915050565b5f602082840312156103905761038f61031d565b5b5f61039d84828501610367565b91505092915050565b6103af81610340565b82525050565b5f6020820190506103c85f8301846103a6565b92915050565b5f82825260208201905092915050565b7f4f76657276696577436f6e747261637420616c726561647920657869737473205f8201527f666f7220746869732070617469656e7400000000000000000000000000000000602082015250565b5f6104386030836103ce565b9150610443826103de565b604082019050919050565b5f6020820190508181035f8301526104658161042c565b905091905056fe608060405234801561000f575f80fd5b50610dbb8061001d5f395ff3fe608060405234801561000f575f80fd5b506004361061004a575f3560e01c80631dacecc41461004e57806364e242221461007e57806376370239146100ae578063a9b909dd146100ca575b5f80fd5b610068600480360381019061006391906105b7565b6100e6565b6040516100759190610839565b60405180910390f35b610098600480360381019061009391906105b7565b61032a565b6040516100a591906108a1565b60405180910390f35b6100c860048036038101906100c391906109ed565b6103ca565b005b6100e460048036038101906100df9190610a47565b61041b565b005b6100ee61052b565b5f808373ffffffffffffffffffffffffffffffffffffffff1673ffffffffffffffffffffffffffffffffffffffff1681526020019081526020015f206040518060600160405290815f82018054806020026020016040519081016040528092919081815260200182805480156101b657602002820191905f5260205f20905b815f9054906101000a900473ffffffffffffffffffffffffffffffffffffffff1673ffffffffffffffffffffffffffffffffffffffff168152602001906001019080831161016d575b5050505050815260200160018201805480602002602001604051908101604052809291908181526020015f905b8282101561028b578382905f5260205f2001805461020090610ae0565b80601f016020809104026020016040519081016040528092919081815260200182805461022c90610ae0565b80156102775780601f1061024e57610100808354040283529160200191610277565b820191905f5260205f20905b81548152906001019060200180831161025a57829003601f168201915b5050505050815260200190600101906101e3565b5050505081526020016002820180546102a390610ae0565b80601f01602080910402602001604051908101604052809291908181526020018280546102cf90610ae0565b801561031a5780601f106102f15761010080835404028352916020019161031a565b820191905f5260205f20905b8154815290600101906020018083116102fd57829003601f168201915b5050505050815250509050919050565b5f602052805f5260405f205f9150905080600201805461034990610ae0565b80601f016020809104026020016040519081016040528092919081815260200182805461037590610ae0565b80156103c05780601f10610397576101008083540402835291602001916103c0565b820191905f5260205f20905b8154815290600101906020018083116103a357829003601f168201915b5050505050905081565b805f808473ffffffffffffffffffffffffffffffffffffffff1673ffffffffffffffffffffffffffffffffffffffff1681526020019081526020015f2060020190816104169190610cb6565b505050565b5f808473ffffffffffffffffffffffffffffffffffffffff1673ffffffffffffffffffffffffffffffffffffffff1681526020019081526020015f205f0181908060018154018082558091505060019003905f5260205f20015f9091909190916101000a81548173ffffffffffffffffffffffffffffffffffffffff021916908373ffffffffffffffffffffffffffffffffffffffff1602179055505f808473ffffffffffffffffffffffffffffffffffffffff1673ffffffffffffffffffffffffffffffffffffffff1681526020019081526020015f2060010182908060018154018082558091505060019003905f5260205f20015f9091909190915090816105259190610cb6565b50505050565b60405180606001604052806060815260200160608152602001606081525090565b5f604051905090565b5f80fd5b5f80fd5b5f73ffffffffffffffffffffffffffffffffffffffff82169050919050565b5f6105868261055d565b9050919050565b6105968161057c565b81146105a0575f80fd5b50565b5f813590506105b18161058d565b92915050565b5f602082840312156105cc576105cb610555565b5b5f6105d9848285016105a3565b91505092915050565b5f81519050919050565b5f82825260208201905092915050565b5f819050602082019050919050565b6106148161057c565b82525050565b5f610625838361060b565b60208301905092915050565b5f602082019050919050565b5f610647826105e2565b61065181856105ec565b935061065c836105fc565b805f5b8381101561068c578151610673888261061a565b975061067e83610631565b92505060018101905061065f565b5085935050505092915050565b5f81519050919050565b5f82825260208201905092915050565b5f819050602082019050919050565b5f81519050919050565b5f82825260208201905092915050565b5f5b838110156106f95780820151818401526020810190506106de565b5f8484015250505050565b5f601f19601f8301169050919050565b5f61071e826106c2565b61072881856106cc565b93506107388185602086016106dc565b61074181610704565b840191505092915050565b5f6107578383610714565b905092915050565b5f602082019050919050565b5f61077582610699565b61077f81856106a3565b935083602082028501610791856106b3565b805f5b858110156107cc57848403895281516107ad858261074c565b94506107b88361075f565b925060208a01995050600181019050610794565b50829750879550505050505092915050565b5f606083015f8301518482035f8601526107f8828261063d565b91505060208301518482036020860152610812828261076b565b9150506040830151848203604086015261082c8282610714565b9150508091505092915050565b5f6020820190508181035f83015261085181846107de565b905092915050565b5f82825260208201905092915050565b5f610873826106c2565b61087d8185610859565b935061088d8185602086016106dc565b61089681610704565b840191505092915050565b5f6020820190508181035f8301526108b98184610869565b905092915050565b5f80fd5b5f80fd5b7f4e487b71000000000000000000000000000000000000000000000000000000005f52604160045260245ffd5b6108ff82610704565b810181811067ffffffffffffffff8211171561091e5761091d6108c9565b5b80604052505050565b5f61093061054c565b905061093c82826108f6565b919050565b5f67ffffffffffffffff82111561095b5761095a6108c9565b5b61096482610704565b9050602081019050919050565b828183375f83830152505050565b5f61099161098c84610941565b610927565b9050828152602081018484840111156109ad576109ac6108c5565b5b6109b8848285610971565b509392505050565b5f82601f8301126109d4576109d36108c1565b5b81356109e484826020860161097f565b91505092915050565b5f8060408385031215610a0357610a02610555565b5b5f610a10858286016105a3565b925050602083013567ffffffffffffffff811115610a3157610a30610559565b5b610a3d858286016109c0565b9150509250929050565b5f805f60608486031215610a5e57610a5d610555565b5b5f610a6b868287016105a3565b935050602084013567ffffffffffffffff811115610a8c57610a8b610559565b5b610a98868287016109c0565b9250506040610aa9868287016105a3565b9150509250925092565b7f4e487b71000000000000000000000000000000000000000000000000000000005f52602260045260245ffd5b5f6002820490506001821680610af757607f821691505b602082108103610b0a57610b09610ab3565b5b50919050565b5f819050815f5260205f209050919050565b5f6020601f8301049050919050565b5f82821b905092915050565b5f60088302610b6c7fffffffffffffffffffffffffffffffffffffffffffffffffffffffffffffffff82610b31565b610b768683610b31565b95508019841693508086168417925050509392505050565b5f819050919050565b5f819050919050565b5f610bba610bb5610bb084610b8e565b610b97565b610b8e565b9050919050565b5f819050919050565b610bd383610ba0565b610be7610bdf82610bc1565b848454610b3d565b825550505050565b5f90565b610bfb610bef565b610c06818484610bca565b505050565b5b81811015610c2957610c1e5f82610bf3565b600181019050610c0c565b5050565b601f821115610c6e57610c3f81610b10565b610c4884610b22565b81016020851015610c57578190505b610c6b610c6385610b22565b830182610c0b565b50505b505050565b5f82821c905092915050565b5f610c8e5f1984600802610c73565b1980831691505092915050565b5f610ca68383610c7f565b9150826002028217905092915050565b610cbf826106c2565b67ffffffffffffffff811115610cd857610cd76108c9565b5b610ce28254610ae0565b610ced828285610c2d565b5f60209050601f831160018114610d1e575f8415610d0c578287015190505b610d168582610c9b565b865550610d7d565b601f198416610d2c86610b10565b5f5b82811015610d5357848901518255600182019150602085019450602081019050610d2e565b86831015610d705784890151610d6c601f891682610c7f565b8355505b6001600288020188555050505b50505050505056fea26469706673582212201acf5c4d17aa6a299339e0aaafaa3fd7c30a61cdfa2ddee974cbaba3799808b564736f6c63430008170033a2646970667358221220c6d107e7550e28bfbc0f182400b205c8130bc737f100217881cfc8f21984181b64736f6c63430008170033",
  "immutableReferences": {},
  "source": "// SPDX-License-Identifier: MIT\r\npragma solidity ^0.8.7;\r\n\r\n// Import the OverviewContract\r\nimport \"./OverviewContract.sol\";\r\n\r\n// Factory contract for creating new OverviewContracts\r\ncontract OverviewContractFactory {\r\n    // Event to emit when a new OverviewContract is created\r\n    event OverviewContractCreated(address indexed patientAddress, address overviewContractAddress);\r\n\r\n    // Mapping to keep track of each patient's OverviewContract address\r\n    mapping(address => address) public overviewContracts;\r\n\r\n    // Function to create a new OverviewContract for a patient\r\n    function createOverviewContract(address _patientAddress) public {\r\n        // Ensure that each patient only has one OverviewContract\r\n        require(overviewContracts[_patientAddress] == address(0), \"OverviewContract already exists for this patient\");\r\n\r\n        // Create a new OverviewContract\r\n        OverviewContract newContract = new OverviewContract();\r\n\r\n        // Store the new contract's address in the mapping\r\n        overviewContracts[_patientAddress] = address(newContract);\r\n\r\n        // Emit the event\r\n        emit OverviewContractCreated(_patientAddress, address(newContract));\r\n    }\r\n\r\n    // Function to retrieve the address of a patient's OverviewContract\r\n    function getOverviewContract(address _patientAddress) public view returns (address) {\r\n        return overviewContracts[_patientAddress];\r\n    }\r\n}\r\n",
  "sourcePath": "A:\\Sem-VII\\Research Project\\Enabling-Secure-Access-Control-of-Electronic-Health-Records-through-Smart-Contracts\\truffle\\contracts\\OverviewContractFactory.sol",
  "compiler": {
    "name": "solc",
    "version": "0.8.23+commit.f704f362.Emscripten.clang"
  },
  "schemaVersion": "3.4.8",
  "updatedAt": "2023-11-13T21:25:52.009Z",
  "networkType": "ethereum",
  "devdoc": {
    "kind": "dev",
    "methods": {},
    "version": 1
  },
  "userdoc": {
    "kind": "user",
    "methods": {},
    "version": 1
  }
}