{
  "contractName": "OverviewContract",
  "abi": [
    {
      "inputs": [
        {
          "internalType": "address",
          "name": "",
          "type": "address"
        }
      ],
      "name": "patientSummaries",
      "outputs": [
        {
          "internalType": "string",
          "name": "status",
          "type": "string"
        }
      ],
      "stateMutability": "view",
      "type": "function",
      "constant": true
    },
    {
      "inputs": [
        {
          "internalType": "address",
          "name": "_patientAddress",
          "type": "address"
        },
        {
          "internalType": "string",
          "name": "_name",
          "type": "string"
        },
        {
          "internalType": "address",
          "name": "_pocAddress",
          "type": "address"
        }
      ],
      "name": "addPOC",
      "outputs": [],
      "stateMutability": "nonpayable",
      "type": "function"
    },
    {
      "inputs": [
        {
          "internalType": "address",
          "name": "_patientAddress",
          "type": "address"
        },
        {
          "internalType": "string",
          "name": "_status",
          "type": "string"
        }
      ],
      "name": "updatePatientStatus",
      "outputs": [],
      "stateMutability": "nonpayable",
      "type": "function"
    },
    {
      "inputs": [
        {
          "internalType": "address",
          "name": "_patientAddress",
          "type": "address"
        }
      ],
      "name": "getPatientSummary",
      "outputs": [
        {
          "components": [
            {
              "internalType": "address[]",
              "name": "pocAddresses",
              "type": "address[]"
            },
            {
              "internalType": "string[]",
              "name": "pocNames",
              "type": "string[]"
            },
            {
              "internalType": "string",
              "name": "status",
              "type": "string"
            }
          ],
          "internalType": "struct OverviewContract.PatientSummary",
          "name": "",
          "type": "tuple"
        }
      ],
      "stateMutability": "view",
      "type": "function",
      "constant": true
    }
  ],
  "bytecode": "0x608060405234801561000f575f80fd5b50610dbb8061001d5f395ff3fe608060405234801561000f575f80fd5b506004361061004a575f3560e01c80631dacecc41461004e57806364e242221461007e57806376370239146100ae578063a9b909dd146100ca575b5f80fd5b610068600480360381019061006391906105b7565b6100e6565b6040516100759190610839565b60405180910390f35b610098600480360381019061009391906105b7565b61032a565b6040516100a591906108a1565b60405180910390f35b6100c860048036038101906100c391906109ed565b6103ca565b005b6100e460048036038101906100df9190610a47565b61041b565b005b6100ee61052b565b5f808373ffffffffffffffffffffffffffffffffffffffff1673ffffffffffffffffffffffffffffffffffffffff1681526020019081526020015f206040518060600160405290815f82018054806020026020016040519081016040528092919081815260200182805480156101b657602002820191905f5260205f20905b815f9054906101000a900473ffffffffffffffffffffffffffffffffffffffff1673ffffffffffffffffffffffffffffffffffffffff168152602001906001019080831161016d575b5050505050815260200160018201805480602002602001604051908101604052809291908181526020015f905b8282101561028b578382905f5260205f2001805461020090610ae0565b80601f016020809104026020016040519081016040528092919081815260200182805461022c90610ae0565b80156102775780601f1061024e57610100808354040283529160200191610277565b820191905f5260205f20905b81548152906001019060200180831161025a57829003601f168201915b5050505050815260200190600101906101e3565b5050505081526020016002820180546102a390610ae0565b80601f01602080910402602001604051908101604052809291908181526020018280546102cf90610ae0565b801561031a5780601f106102f15761010080835404028352916020019161031a565b820191905f5260205f20905b8154815290600101906020018083116102fd57829003601f168201915b5050505050815250509050919050565b5f602052805f5260405f205f9150905080600201805461034990610ae0565b80601f016020809104026020016040519081016040528092919081815260200182805461037590610ae0565b80156103c05780601f10610397576101008083540402835291602001916103c0565b820191905f5260205f20905b8154815290600101906020018083116103a357829003601f168201915b5050505050905081565b805f808473ffffffffffffffffffffffffffffffffffffffff1673ffffffffffffffffffffffffffffffffffffffff1681526020019081526020015f2060020190816104169190610cb6565b505050565b5f808473ffffffffffffffffffffffffffffffffffffffff1673ffffffffffffffffffffffffffffffffffffffff1681526020019081526020015f205f0181908060018154018082558091505060019003905f5260205f20015f9091909190916101000a81548173ffffffffffffffffffffffffffffffffffffffff021916908373ffffffffffffffffffffffffffffffffffffffff1602179055505f808473ffffffffffffffffffffffffffffffffffffffff1673ffffffffffffffffffffffffffffffffffffffff1681526020019081526020015f2060010182908060018154018082558091505060019003905f5260205f20015f9091909190915090816105259190610cb6565b50505050565b60405180606001604052806060815260200160608152602001606081525090565b5f604051905090565b5f80fd5b5f80fd5b5f73ffffffffffffffffffffffffffffffffffffffff82169050919050565b5f6105868261055d565b9050919050565b6105968161057c565b81146105a0575f80fd5b50565b5f813590506105b18161058d565b92915050565b5f602082840312156105cc576105cb610555565b5b5f6105d9848285016105a3565b91505092915050565b5f81519050919050565b5f82825260208201905092915050565b5f819050602082019050919050565b6106148161057c565b82525050565b5f610625838361060b565b60208301905092915050565b5f602082019050919050565b5f610647826105e2565b61065181856105ec565b935061065c836105fc565b805f5b8381101561068c578151610673888261061a565b975061067e83610631565b92505060018101905061065f565b5085935050505092915050565b5f81519050919050565b5f82825260208201905092915050565b5f819050602082019050919050565b5f81519050919050565b5f82825260208201905092915050565b5f5b838110156106f95780820151818401526020810190506106de565b5f8484015250505050565b5f601f19601f8301169050919050565b5f61071e826106c2565b61072881856106cc565b93506107388185602086016106dc565b61074181610704565b840191505092915050565b5f6107578383610714565b905092915050565b5f602082019050919050565b5f61077582610699565b61077f81856106a3565b935083602082028501610791856106b3565b805f5b858110156107cc57848403895281516107ad858261074c565b94506107b88361075f565b925060208a01995050600181019050610794565b50829750879550505050505092915050565b5f606083015f8301518482035f8601526107f8828261063d565b91505060208301518482036020860152610812828261076b565b9150506040830151848203604086015261082c8282610714565b9150508091505092915050565b5f6020820190508181035f83015261085181846107de565b905092915050565b5f82825260208201905092915050565b5f610873826106c2565b61087d8185610859565b935061088d8185602086016106dc565b61089681610704565b840191505092915050565b5f6020820190508181035f8301526108b98184610869565b905092915050565b5f80fd5b5f80fd5b7f4e487b71000000000000000000000000000000000000000000000000000000005f52604160045260245ffd5b6108ff82610704565b810181811067ffffffffffffffff8211171561091e5761091d6108c9565b5b80604052505050565b5f61093061054c565b905061093c82826108f6565b919050565b5f67ffffffffffffffff82111561095b5761095a6108c9565b5b61096482610704565b9050602081019050919050565b828183375f83830152505050565b5f61099161098c84610941565b610927565b9050828152602081018484840111156109ad576109ac6108c5565b5b6109b8848285610971565b509392505050565b5f82601f8301126109d4576109d36108c1565b5b81356109e484826020860161097f565b91505092915050565b5f8060408385031215610a0357610a02610555565b5b5f610a10858286016105a3565b925050602083013567ffffffffffffffff811115610a3157610a30610559565b5b610a3d858286016109c0565b9150509250929050565b5f805f60608486031215610a5e57610a5d610555565b5b5f610a6b868287016105a3565b935050602084013567ffffffffffffffff811115610a8c57610a8b610559565b5b610a98868287016109c0565b9250506040610aa9868287016105a3565b9150509250925092565b7f4e487b71000000000000000000000000000000000000000000000000000000005f52602260045260245ffd5b5f6002820490506001821680610af757607f821691505b602082108103610b0a57610b09610ab3565b5b50919050565b5f819050815f5260205f209050919050565b5f6020601f8301049050919050565b5f82821b905092915050565b5f60088302610b6c7fffffffffffffffffffffffffffffffffffffffffffffffffffffffffffffffff82610b31565b610b768683610b31565b95508019841693508086168417925050509392505050565b5f819050919050565b5f819050919050565b5f610bba610bb5610bb084610b8e565b610b97565b610b8e565b9050919050565b5f819050919050565b610bd383610ba0565b610be7610bdf82610bc1565b848454610b3d565b825550505050565b5f90565b610bfb610bef565b610c06818484610bca565b505050565b5b81811015610c2957610c1e5f82610bf3565b600181019050610c0c565b5050565b601f821115610c6e57610c3f81610b10565b610c4884610b22565b81016020851015610c57578190505b610c6b610c6385610b22565b830182610c0b565b50505b505050565b5f82821c905092915050565b5f610c8e5f1984600802610c73565b1980831691505092915050565b5f610ca68383610c7f565b9150826002028217905092915050565b610cbf826106c2565b67ffffffffffffffff811115610cd857610cd76108c9565b5b610ce28254610ae0565b610ced828285610c2d565b5f60209050601f831160018114610d1e575f8415610d0c578287015190505b610d168582610c9b565b865550610d7d565b601f198416610d2c86610b10565b5f5b82811015610d5357848901518255600182019150602085019450602081019050610d2e565b86831015610d705784890151610d6c601f891682610c7f565b8355505b6001600288020188555050505b50505050505056fea26469706673582212201acf5c4d17aa6a299339e0aaafaa3fd7c30a61cdfa2ddee974cbaba3799808b564736f6c63430008170033",
  "immutableReferences": {},
  "source": "// SPDX-License-Identifier: MIT\r\npragma solidity ^0.8.7;\r\n\r\n// This contract manages an overview of patient data in a healthcare blockchain system.\r\ncontract OverviewContract {\r\n    // Struct representing a summary of a patient's healthcare records.\r\n    struct PatientSummary {\r\n        address[] pocAddresses; // Array of addresses for Patient Organization Contracts (POCs) associated with the patient.\r\n        string[] pocNames;\r\n        string status; // Current status of the patient, could represent health or administrative status.\r\n    }\r\n\r\n    // Mapping of patient Ethereum addresses to their respective PatientSummary.\r\n    mapping(address => PatientSummary) public patientSummaries;\r\n\r\n    // Function to add a new Patient Organization Contract (POC) address to a patient's summary.\r\n    // _patientAddress: Ethereum address of the patient.\r\n    // _pocAddress: Ethereum address of the Patient Org Contract to be added.\r\n    function addPOC(address _patientAddress,string memory _name, address _pocAddress) public {\r\n        patientSummaries[_patientAddress].pocAddresses.push(_pocAddress);\r\n        patientSummaries[_patientAddress].pocNames.push(_name);\r\n    }\r\n\r\n    // Function to update the status of a patient.\r\n    // _patientAddress: Ethereum address of the patient.\r\n    // _status: New status to be updated for the patient.\r\n    function updatePatientStatus(address _patientAddress, string memory _status) public {\r\n        patientSummaries[_patientAddress].status = _status;\r\n    }\r\n\r\n    // Function to retrieve a patient's summary.\r\n    // _patientAddress: Ethereum address of the patient.\r\n    // Returns the PatientSummary struct for the given patient address.\r\n    function getPatientSummary(address _patientAddress) public view returns (PatientSummary memory) {\r\n        return patientSummaries[_patientAddress];\r\n    }\r\n}\r\n",
  "sourcePath": "A:\\Sem-VII\\Research Project\\Enabling-Secure-Access-Control-of-Electronic-Health-Records-through-Smart-Contracts\\truffle\\contracts\\OverviewContract.sol",
  "compiler": {
    "name": "solc",
    "version": "0.8.23+commit.f704f362.Emscripten.clang"
  },
  "schemaVersion": "3.4.8",
  "updatedAt": "2023-11-14T06:55:53.618Z",
  "networkType": "ethereum",
  "devdoc": {
    "kind": "dev",
    "methods": {},
    "version": 1
  },
  "userdoc": {
    "kind": "user",
    "methods": {},
    "version": 1
  }
}