{
  "contractName": "OverviewContract",
  "abi": [
    {
      "inputs": [
        {
          "internalType": "address",
          "name": "",
          "type": "address"
        }
      ],
      "name": "patientSummaries",
      "outputs": [
        {
          "internalType": "string",
          "name": "status",
          "type": "string"
        }
      ],
      "stateMutability": "view",
      "type": "function"
    },
    {
      "inputs": [
        {
          "internalType": "address",
          "name": "_patientAddress",
          "type": "address"
        },
        {
          "internalType": "string",
          "name": "_name",
          "type": "string"
        },
        {
          "internalType": "address",
          "name": "_pocAddress",
          "type": "address"
        }
      ],
      "name": "addPOC",
      "outputs": [],
      "stateMutability": "nonpayable",
      "type": "function"
    },
    {
      "inputs": [
        {
          "internalType": "address",
          "name": "_patientAddress",
          "type": "address"
        },
        {
          "internalType": "string",
          "name": "_status",
          "type": "string"
        }
      ],
      "name": "updatePatientStatus",
      "outputs": [],
      "stateMutability": "nonpayable",
      "type": "function"
    },
    {
      "inputs": [
        {
          "internalType": "address",
          "name": "_patientAddress",
          "type": "address"
        }
      ],
      "name": "getPatientSummary",
      "outputs": [
        {
          "components": [
            {
              "internalType": "address[]",
              "name": "pocAddresses",
              "type": "address[]"
            },
            {
              "internalType": "string[]",
              "name": "pocNames",
              "type": "string[]"
            },
            {
              "internalType": "string",
              "name": "status",
              "type": "string"
            }
          ],
          "internalType": "struct OverviewContract.PatientSummary",
          "name": "",
          "type": "tuple"
        }
      ],
      "stateMutability": "view",
      "type": "function"
    }
  ],
  "bytecode": "0x6080604052348015600e575f80fd5b50610da18061001c5f395ff3fe608060405234801561000f575f80fd5b506004361061004a575f3560e01c80631dacecc41461004e57806364e242221461007e57806376370239146100ae578063a9b909dd146100ca575b5f80fd5b610068600480360381019061006391906105b7565b6100e6565b604051610075919061081f565b60405180910390f35b610098600480360381019061009391906105b7565b61032a565b6040516100a59190610887565b60405180910390f35b6100c860048036038101906100c391906109d3565b6103ca565b005b6100e460048036038101906100df9190610a2d565b61041b565b005b6100ee61052b565b5f808373ffffffffffffffffffffffffffffffffffffffff1673ffffffffffffffffffffffffffffffffffffffff1681526020019081526020015f206040518060600160405290815f82018054806020026020016040519081016040528092919081815260200182805480156101b657602002820191905f5260205f20905b815f9054906101000a900473ffffffffffffffffffffffffffffffffffffffff1673ffffffffffffffffffffffffffffffffffffffff168152602001906001019080831161016d575b5050505050815260200160018201805480602002602001604051908101604052809291908181526020015f905b8282101561028b578382905f5260205f2001805461020090610ac6565b80601f016020809104026020016040519081016040528092919081815260200182805461022c90610ac6565b80156102775780601f1061024e57610100808354040283529160200191610277565b820191905f5260205f20905b81548152906001019060200180831161025a57829003601f168201915b5050505050815260200190600101906101e3565b5050505081526020016002820180546102a390610ac6565b80601f01602080910402602001604051908101604052809291908181526020018280546102cf90610ac6565b801561031a5780601f106102f15761010080835404028352916020019161031a565b820191905f5260205f20905b8154815290600101906020018083116102fd57829003601f168201915b5050505050815250509050919050565b5f602052805f5260405f205f9150905080600201805461034990610ac6565b80601f016020809104026020016040519081016040528092919081815260200182805461037590610ac6565b80156103c05780601f10610397576101008083540402835291602001916103c0565b820191905f5260205f20905b8154815290600101906020018083116103a357829003601f168201915b5050505050905081565b805f808473ffffffffffffffffffffffffffffffffffffffff1673ffffffffffffffffffffffffffffffffffffffff1681526020019081526020015f2060020190816104169190610c9c565b505050565b5f808473ffffffffffffffffffffffffffffffffffffffff1673ffffffffffffffffffffffffffffffffffffffff1681526020019081526020015f205f0181908060018154018082558091505060019003905f5260205f20015f9091909190916101000a81548173ffffffffffffffffffffffffffffffffffffffff021916908373ffffffffffffffffffffffffffffffffffffffff1602179055505f808473ffffffffffffffffffffffffffffffffffffffff1673ffffffffffffffffffffffffffffffffffffffff1681526020019081526020015f2060010182908060018154018082558091505060019003905f5260205f20015f9091909190915090816105259190610c9c565b50505050565b60405180606001604052806060815260200160608152602001606081525090565b5f604051905090565b5f80fd5b5f80fd5b5f73ffffffffffffffffffffffffffffffffffffffff82169050919050565b5f6105868261055d565b9050919050565b6105968161057c565b81146105a0575f80fd5b50565b5f813590506105b18161058d565b92915050565b5f602082840312156105cc576105cb610555565b5b5f6105d9848285016105a3565b91505092915050565b5f81519050919050565b5f82825260208201905092915050565b5f819050602082019050919050565b6106148161057c565b82525050565b5f610625838361060b565b60208301905092915050565b5f602082019050919050565b5f610647826105e2565b61065181856105ec565b935061065c836105fc565b805f5b8381101561068c578151610673888261061a565b975061067e83610631565b92505060018101905061065f565b5085935050505092915050565b5f81519050919050565b5f82825260208201905092915050565b5f819050602082019050919050565b5f81519050919050565b5f82825260208201905092915050565b8281835e5f83830152505050565b5f601f19601f8301169050919050565b5f610704826106c2565b61070e81856106cc565b935061071e8185602086016106dc565b610727816106ea565b840191505092915050565b5f61073d83836106fa565b905092915050565b5f602082019050919050565b5f61075b82610699565b61076581856106a3565b935083602082028501610777856106b3565b805f5b858110156107b257848403895281516107938582610732565b945061079e83610745565b925060208a0199505060018101905061077a565b50829750879550505050505092915050565b5f606083015f8301518482035f8601526107de828261063d565b915050602083015184820360208601526107f88282610751565b9150506040830151848203604086015261081282826106fa565b9150508091505092915050565b5f6020820190508181035f83015261083781846107c4565b905092915050565b5f82825260208201905092915050565b5f610859826106c2565b610863818561083f565b93506108738185602086016106dc565b61087c816106ea565b840191505092915050565b5f6020820190508181035f83015261089f818461084f565b905092915050565b5f80fd5b5f80fd5b7f4e487b71000000000000000000000000000000000000000000000000000000005f52604160045260245ffd5b6108e5826106ea565b810181811067ffffffffffffffff82111715610904576109036108af565b5b80604052505050565b5f61091661054c565b905061092282826108dc565b919050565b5f67ffffffffffffffff821115610941576109406108af565b5b61094a826106ea565b9050602081019050919050565b828183375f83830152505050565b5f61097761097284610927565b61090d565b905082815260208101848484011115610993576109926108ab565b5b61099e848285610957565b509392505050565b5f82601f8301126109ba576109b96108a7565b5b81356109ca848260208601610965565b91505092915050565b5f80604083850312156109e9576109e8610555565b5b5f6109f6858286016105a3565b925050602083013567ffffffffffffffff811115610a1757610a16610559565b5b610a23858286016109a6565b9150509250929050565b5f805f60608486031215610a4457610a43610555565b5b5f610a51868287016105a3565b935050602084013567ffffffffffffffff811115610a7257610a71610559565b5b610a7e868287016109a6565b9250506040610a8f868287016105a3565b9150509250925092565b7f4e487b71000000000000000000000000000000000000000000000000000000005f52602260045260245ffd5b5f6002820490506001821680610add57607f821691505b602082108103610af057610aef610a99565b5b50919050565b5f819050815f5260205f209050919050565b5f6020601f8301049050919050565b5f82821b905092915050565b5f60088302610b527fffffffffffffffffffffffffffffffffffffffffffffffffffffffffffffffff82610b17565b610b5c8683610b17565b95508019841693508086168417925050509392505050565b5f819050919050565b5f819050919050565b5f610ba0610b9b610b9684610b74565b610b7d565b610b74565b9050919050565b5f819050919050565b610bb983610b86565b610bcd610bc582610ba7565b848454610b23565b825550505050565b5f90565b610be1610bd5565b610bec818484610bb0565b505050565b5b81811015610c0f57610c045f82610bd9565b600181019050610bf2565b5050565b601f821115610c5457610c2581610af6565b610c2e84610b08565b81016020851015610c3d578190505b610c51610c4985610b08565b830182610bf1565b50505b505050565b5f82821c905092915050565b5f610c745f1984600802610c59565b1980831691505092915050565b5f610c8c8383610c65565b9150826002028217905092915050565b610ca5826106c2565b67ffffffffffffffff811115610cbe57610cbd6108af565b5b610cc88254610ac6565b610cd3828285610c13565b5f60209050601f831160018114610d04575f8415610cf2578287015190505b610cfc8582610c81565b865550610d63565b601f198416610d1286610af6565b5f5b82811015610d3957848901518255600182019150602085019450602081019050610d14565b86831015610d565784890151610d52601f891682610c65565b8355505b6001600288020188555050505b50505050505056fea264697066735822122097b556222e7a3f79e5f00393d3f8a7ca2e42b2ec039f481ae027aba1bb9f8b8f64736f6c63430008190033",
  "immutableReferences": {},
  "source": "// SPDX-License-Identifier: MIT\r\npragma solidity ^0.8.7;\r\n\r\n// This contract manages an overview of patient data in a healthcare blockchain system.\r\ncontract OverviewContract {\r\n    // Struct representing a summary of a patient's healthcare records.\r\n    struct PatientSummary {\r\n        address[] pocAddresses; // Array of addresses for Patient Organization Contracts (POCs) associated with the patient.\r\n        string[] pocNames;\r\n        string status; // Current status of the patient, could represent health or administrative status.\r\n    }\r\n\r\n    // Mapping of patient Ethereum addresses to their respective PatientSummary.\r\n    mapping(address => PatientSummary) public patientSummaries;\r\n\r\n    // Function to add a new Patient Organization Contract (POC) address to a patient's summary.\r\n    // _patientAddress: Ethereum address of the patient.\r\n    // _pocAddress: Ethereum address of the Patient Org Contract to be added.\r\n    function addPOC(address _patientAddress,string memory _name, address _pocAddress) public {\r\n        patientSummaries[_patientAddress].pocAddresses.push(_pocAddress);\r\n        patientSummaries[_patientAddress].pocNames.push(_name);\r\n    }\r\n\r\n    // Function to update the status of a patient.\r\n    // _patientAddress: Ethereum address of the patient.\r\n    // _status: New status to be updated for the patient.\r\n    function updatePatientStatus(address _patientAddress, string memory _status) public {\r\n        patientSummaries[_patientAddress].status = _status;\r\n    }\r\n\r\n    // Function to retrieve a patient's summary.\r\n    // _patientAddress: Ethereum address of the patient.\r\n    // Returns the PatientSummary struct for the given patient address.\r\n    function getPatientSummary(address _patientAddress) public view returns (PatientSummary memory) {\r\n        return patientSummaries[_patientAddress];\r\n    }\r\n}\r\n",
  "sourcePath": "A:\\Sem-VII\\Research Project\\Enabling-Secure-Access-Control-of-Electronic-Health-Records-through-Smart-Contracts\\truffle\\contracts\\OverviewContract.sol",
  "compiler": {
    "name": "solc",
    "version": "0.8.25+commit.b61c2a91.Emscripten.clang"
  },
  "schemaVersion": "3.4.8",
  "updatedAt": "2024-05-07T18:22:53.392Z",
  "networkType": "ethereum",
  "devdoc": {
    "kind": "dev",
    "methods": {},
    "version": 1
  },
  "userdoc": {
    "kind": "user",
    "methods": {},
    "version": 1
  }
}