{
  "contractName": "PatientOrgContract",
  "abi": [
    {
      "anonymous": false,
      "inputs": [
        {
          "indexed": true,
          "internalType": "address",
          "name": "entity",
          "type": "address"
        },
        {
          "indexed": false,
          "internalType": "string",
          "name": "dataType",
          "type": "string"
        }
      ],
      "name": "AccessGranted",
      "type": "event"
    },
    {
      "anonymous": false,
      "inputs": [
        {
          "indexed": true,
          "internalType": "address",
          "name": "entity",
          "type": "address"
        },
        {
          "indexed": false,
          "internalType": "string",
          "name": "dataType",
          "type": "string"
        }
      ],
      "name": "AccessRevoked",
      "type": "event"
    },
    {
      "anonymous": false,
      "inputs": [
        {
          "indexed": false,
          "internalType": "address",
          "name": "patient",
          "type": "address"
        },
        {
          "indexed": false,
          "internalType": "string",
          "name": "name",
          "type": "string"
        },
        {
          "indexed": false,
          "internalType": "address",
          "name": "orgAddress",
          "type": "address"
        },
        {
          "indexed": false,
          "internalType": "string",
          "name": "role",
          "type": "string"
        }
      ],
      "name": "OrganizationAdded",
      "type": "event"
    },
    {
      "anonymous": false,
      "inputs": [
        {
          "indexed": false,
          "internalType": "string",
          "name": "dataType",
          "type": "string"
        },
        {
          "indexed": false,
          "internalType": "string",
          "name": "ipfsUri",
          "type": "string"
        }
      ],
      "name": "PatientDataUpdated",
      "type": "event"
    },
    {
      "inputs": [
        {
          "internalType": "address",
          "name": "",
          "type": "address"
        }
      ],
      "name": "patientAccessControls",
      "outputs": [
        {
          "internalType": "address",
          "name": "patient",
          "type": "address"
        }
      ],
      "stateMutability": "view",
      "type": "function",
      "constant": true
    },
    {
      "inputs": [
        {
          "internalType": "address",
          "name": "",
          "type": "address"
        },
        {
          "internalType": "uint256",
          "name": "",
          "type": "uint256"
        }
      ],
      "name": "patientOrganizations",
      "outputs": [
        {
          "internalType": "string",
          "name": "name",
          "type": "string"
        },
        {
          "internalType": "address",
          "name": "orgAddress",
          "type": "address"
        },
        {
          "internalType": "string",
          "name": "role",
          "type": "string"
        }
      ],
      "stateMutability": "view",
      "type": "function",
      "constant": true
    },
    {
      "inputs": [
        {
          "internalType": "address",
          "name": "patient",
          "type": "address"
        }
      ],
      "name": "getAllOrganizationsWithAccess",
      "outputs": [
        {
          "components": [
            {
              "internalType": "string",
              "name": "name",
              "type": "string"
            },
            {
              "internalType": "address",
              "name": "orgAddress",
              "type": "address"
            },
            {
              "components": [
                {
                  "internalType": "string",
                  "name": "dataType",
                  "type": "string"
                },
                {
                  "internalType": "bool",
                  "name": "hasAccess",
                  "type": "bool"
                }
              ],
              "internalType": "struct PatientOrgContract.DataTypeWithAccess[]",
              "name": "hasAccess",
              "type": "tuple[]"
            }
          ],
          "internalType": "struct PatientOrgContract.OrganizationWithAccess[]",
          "name": "",
          "type": "tuple[]"
        }
      ],
      "stateMutability": "view",
      "type": "function",
      "constant": true
    },
    {
      "inputs": [
        {
          "internalType": "address",
          "name": "_orgAddress",
          "type": "address"
        },
        {
          "internalType": "address",
          "name": "patient",
          "type": "address"
        }
      ],
      "name": "getAllDataTypesWithAccessForOrganization",
      "outputs": [
        {
          "components": [
            {
              "internalType": "string",
              "name": "dataType",
              "type": "string"
            },
            {
              "internalType": "bool",
              "name": "hasAccess",
              "type": "bool"
            }
          ],
          "internalType": "struct PatientOrgContract.DataTypeWithAccess[]",
          "name": "",
          "type": "tuple[]"
        }
      ],
      "stateMutability": "view",
      "type": "function",
      "constant": true
    },
    {
      "inputs": [
        {
          "internalType": "address",
          "name": "_patient",
          "type": "address"
        }
      ],
      "name": "setPatient",
      "outputs": [],
      "stateMutability": "nonpayable",
      "type": "function"
    },
    {
      "inputs": [
        {
          "internalType": "address",
          "name": "_orgAddress",
          "type": "address"
        },
        {
          "internalType": "string",
          "name": "_name",
          "type": "string"
        },
        {
          "internalType": "string",
          "name": "_role",
          "type": "string"
        }
      ],
      "name": "addOrganizationForPatient",
      "outputs": [],
      "stateMutability": "nonpayable",
      "type": "function"
    },
    {
      "inputs": [],
      "name": "getPatientOrganizations",
      "outputs": [
        {
          "components": [
            {
              "internalType": "string",
              "name": "name",
              "type": "string"
            },
            {
              "internalType": "address",
              "name": "orgAddress",
              "type": "address"
            },
            {
              "internalType": "string",
              "name": "role",
              "type": "string"
            }
          ],
          "internalType": "struct PatientOrgContract.Organization[]",
          "name": "",
          "type": "tuple[]"
        }
      ],
      "stateMutability": "view",
      "type": "function",
      "constant": true
    },
    {
      "inputs": [
        {
          "internalType": "string",
          "name": "_dataType",
          "type": "string"
        },
        {
          "internalType": "string",
          "name": "_ipfsUri",
          "type": "string"
        }
      ],
      "name": "updatePatientData",
      "outputs": [],
      "stateMutability": "nonpayable",
      "type": "function"
    },
    {
      "inputs": [],
      "name": "getPatientDataTypes",
      "outputs": [
        {
          "internalType": "string[]",
          "name": "",
          "type": "string[]"
        }
      ],
      "stateMutability": "view",
      "type": "function",
      "constant": true
    },
    {
      "inputs": [
        {
          "internalType": "string",
          "name": "_dataType",
          "type": "string"
        }
      ],
      "name": "getPatientDataUri",
      "outputs": [
        {
          "internalType": "string",
          "name": "",
          "type": "string"
        }
      ],
      "stateMutability": "view",
      "type": "function",
      "constant": true
    },
    {
      "inputs": [
        {
          "internalType": "address",
          "name": "_entity",
          "type": "address"
        },
        {
          "internalType": "string",
          "name": "_dataType",
          "type": "string"
        }
      ],
      "name": "grantAccess",
      "outputs": [],
      "stateMutability": "nonpayable",
      "type": "function"
    },
    {
      "inputs": [
        {
          "internalType": "address",
          "name": "_entity",
          "type": "address"
        },
        {
          "internalType": "string",
          "name": "_dataType",
          "type": "string"
        }
      ],
      "name": "revokeAccess",
      "outputs": [],
      "stateMutability": "nonpayable",
      "type": "function"
    },
    {
      "inputs": [
        {
          "internalType": "string",
          "name": "_dataType",
          "type": "string"
        }
      ],
      "name": "getOrganizationsAccessForDataType",
      "outputs": [
        {
          "components": [
            {
              "internalType": "string",
              "name": "name",
              "type": "string"
            },
            {
              "internalType": "address",
              "name": "orgAddress",
              "type": "address"
            },
            {
              "internalType": "string",
              "name": "role",
              "type": "string"
            }
          ],
          "internalType": "struct PatientOrgContract.Organization[]",
          "name": "",
          "type": "tuple[]"
        },
        {
          "internalType": "bool[]",
          "name": "",
          "type": "bool[]"
        }
      ],
      "stateMutability": "view",
      "type": "function",
      "constant": true
    }
  ],
  "bytecode": "0x608060405234801561000f575f80fd5b50612e0b8061001d5f395ff3fe608060405234801561000f575f80fd5b50600436106100cd575f3560e01c8063972908201161008a578063c1a2b94e11610064578063c1a2b94e14610232578063d9b1d70e14610264578063df63747f14610282578063e50fe48e146102a0576100cd565b806397290820146101a25780639822ff8d146101d25780639bf32ec814610202576100cd565b806308b795b1146100d15780631164ee4d1461010157806324a586601461013257806350eeed4f1461014e5780636a44cac91461016a578063723f8ab514610186575b5f80fd5b6100eb60048036038101906100e69190611e14565b6102bc565b6040516100f89190611e4e565b60405180910390f35b61011b60048036038101906101169190611fa3565b6102f4565b604051610129929190612244565b60405180910390f35b61014c60048036038101906101479190612279565b61072b565b005b61016860048036038101906101639190611e14565b61083e565b005b610184600480360381019061017f91906122ef565b6108bd565b005b6101a0600480360381019061019b9190612349565b610a87565b005b6101bc60048036038101906101b79190611fa3565b610d59565b6040516101c99190612419565b60405180910390f35b6101ec60048036038101906101e79190611e14565b610f48565b6040516101f9919061263d565b60405180910390f35b61021c6004803603810190610217919061265d565b6112cc565b604051610229919061271e565b60405180910390f35b61024c60048036038101906102479190612771565b6115a8565b60405161025b939291906127af565b60405180910390f35b61026c611713565b60405161027991906127f2565b60405180910390f35b61028a611a46565b60405161029791906128cd565b60405180910390f35b6102ba60048036038101906102b591906122ef565b611b57565b005b5f602052805f5260405f205f91509050805f015f9054906101000a900473ffffffffffffffffffffffffffffffffffffffff16905081565b6060805f805f3373ffffffffffffffffffffffffffffffffffffffff1673ffffffffffffffffffffffffffffffffffffffff1681526020019081526020015f2090505f60015f835f015f9054906101000a900473ffffffffffffffffffffffffffffffffffffffff1673ffffffffffffffffffffffffffffffffffffffff1673ffffffffffffffffffffffffffffffffffffffff1681526020019081526020015f208054905090505f8167ffffffffffffffff8111156103b7576103b6611e7f565b5b6040519080825280602002602001820160405280156103f057816020015b6103dd611d22565b8152602001906001900390816103d55790505b5090505f8267ffffffffffffffff81111561040e5761040d611e7f565b5b60405190808252806020026020018201604052801561043c5781602001602082028036833780820191505090505b5090505f5b8381101561071b5760015f865f015f9054906101000a900473ffffffffffffffffffffffffffffffffffffffff1673ffffffffffffffffffffffffffffffffffffffff1673ffffffffffffffffffffffffffffffffffffffff1681526020019081526020015f2081815481106104ba576104b96128ed565b5b905f5260205f2090600302016040518060600160405290815f820180546104e090612947565b80601f016020809104026020016040519081016040528092919081815260200182805461050c90612947565b80156105575780601f1061052e57610100808354040283529160200191610557565b820191905f5260205f20905b81548152906001019060200180831161053a57829003601f168201915b50505050508152602001600182015f9054906101000a900473ffffffffffffffffffffffffffffffffffffffff1673ffffffffffffffffffffffffffffffffffffffff1673ffffffffffffffffffffffffffffffffffffffff1681526020016002820180546105c590612947565b80601f01602080910402602001604051908101604052809291908181526020018280546105f190612947565b801561063c5780601f106106135761010080835404028352916020019161063c565b820191905f5260205f20905b81548152906001019060200180831161061f57829003601f168201915b505050505081525050838281518110610658576106576128ed565b5b6020026020010181905250846002018860405161067591906129b1565b90815260200160405180910390205f848381518110610697576106966128ed565b5b60200260200101516020015173ffffffffffffffffffffffffffffffffffffffff1673ffffffffffffffffffffffffffffffffffffffff1681526020019081526020015f205f9054906101000a900460ff168282815181106106fc576106fb6128ed565b5b6020026020010190151590811515815250508080600101915050610441565b5081819550955050505050915091565b5f805f3373ffffffffffffffffffffffffffffffffffffffff1673ffffffffffffffffffffffffffffffffffffffff1681526020019081526020015f2090505f816003018460405161077d91906129b1565b9081526020016040518091039020805461079690612947565b9050036107d2578060040183908060018154018082558091505060019003905f5260205f20015f9091909190915090816107d09190612b64565b505b8181600301846040516107e591906129b1565b908152602001604051809103902090816107ff9190612b64565b507ff003290f29262794ffea7a9da5f0e2d45291d0bf3cf968cadeaf7ca35b2df2158383604051610831929190612c33565b60405180910390a1505050565b805f808373ffffffffffffffffffffffffffffffffffffffff1673ffffffffffffffffffffffffffffffffffffffff1681526020019081526020015f205f015f6101000a81548173ffffffffffffffffffffffffffffffffffffffff021916908373ffffffffffffffffffffffffffffffffffffffff16021790555050565b5f803373ffffffffffffffffffffffffffffffffffffffff1673ffffffffffffffffffffffffffffffffffffffff1681526020019081526020015f205f015f9054906101000a900473ffffffffffffffffffffffffffffffffffffffff1673ffffffffffffffffffffffffffffffffffffffff163373ffffffffffffffffffffffffffffffffffffffff1614610988576040517f08c379a000000000000000000000000000000000000000000000000000000000815260040161097f90612cd8565b60405180910390fd5b5f805f3373ffffffffffffffffffffffffffffffffffffffff1673ffffffffffffffffffffffffffffffffffffffff1681526020019081526020015f20600201826040516109d691906129b1565b90815260200160405180910390205f8473ffffffffffffffffffffffffffffffffffffffff1673ffffffffffffffffffffffffffffffffffffffff1681526020019081526020015f205f6101000a81548160ff0219169083151502179055508173ffffffffffffffffffffffffffffffffffffffff167f51cbcaaca6ae26944c6280c966a07b04ca5c6766d82ca497ded152579431468d82604051610a7b9190612419565b60405180910390a25050565b5f803373ffffffffffffffffffffffffffffffffffffffff1673ffffffffffffffffffffffffffffffffffffffff1681526020019081526020015f205f015f9054906101000a900473ffffffffffffffffffffffffffffffffffffffff1673ffffffffffffffffffffffffffffffffffffffff163373ffffffffffffffffffffffffffffffffffffffff1614610b52576040517f08c379a0000000000000000000000000000000000000000000000000000000008152600401610b4990612cd8565b60405180910390fd5b5f60405180606001604052808481526020018573ffffffffffffffffffffffffffffffffffffffff16815260200183815250905060015f805f3373ffffffffffffffffffffffffffffffffffffffff1673ffffffffffffffffffffffffffffffffffffffff1681526020019081526020015f205f015f9054906101000a900473ffffffffffffffffffffffffffffffffffffffff1673ffffffffffffffffffffffffffffffffffffffff1673ffffffffffffffffffffffffffffffffffffffff1681526020019081526020015f2081908060018154018082558091505060019003905f5260205f2090600302015f909190919091505f820151815f019081610c5a9190612b64565b506020820151816001015f6101000a81548173ffffffffffffffffffffffffffffffffffffffff021916908373ffffffffffffffffffffffffffffffffffffffff1602179055506040820151816002019081610cb69190612b64565b5050507fcae71f98f8d9f298b947f99845d4ca2edd3f25f6582cd2fb82755bdd5be7d6925f803373ffffffffffffffffffffffffffffffffffffffff1673ffffffffffffffffffffffffffffffffffffffff1681526020019081526020015f205f015f9054906101000a900473ffffffffffffffffffffffffffffffffffffffff16848685604051610d4b9493929190612cf6565b60405180910390a150505050565b60605f805f3373ffffffffffffffffffffffffffffffffffffffff1673ffffffffffffffffffffffffffffffffffffffff1681526020019081526020015f2090508060020183604051610dac91906129b1565b90815260200160405180910390205f3373ffffffffffffffffffffffffffffffffffffffff1673ffffffffffffffffffffffffffffffffffffffff1681526020019081526020015f205f9054906101000a900460ff1680610e5a5750805f015f9054906101000a900473ffffffffffffffffffffffffffffffffffffffff1673ffffffffffffffffffffffffffffffffffffffff163373ffffffffffffffffffffffffffffffffffffffff16145b610e99576040517f08c379a0000000000000000000000000000000000000000000000000000000008152600401610e9090612db7565b60405180910390fd5b8060030183604051610eab91906129b1565b90815260200160405180910390208054610ec490612947565b80601f0160208091040260200160405190810160405280929190818152602001828054610ef090612947565b8015610f3b5780601f10610f1257610100808354040283529160200191610f3b565b820191905f5260205f20905b815481529060010190602001808311610f1e57829003601f168201915b5050505050915050919050565b60605f805f8473ffffffffffffffffffffffffffffffffffffffff1673ffffffffffffffffffffffffffffffffffffffff1681526020019081526020015f2090505f60015f835f015f9054906101000a900473ffffffffffffffffffffffffffffffffffffffff1673ffffffffffffffffffffffffffffffffffffffff1673ffffffffffffffffffffffffffffffffffffffff1681526020019081526020015f208054905090505f8167ffffffffffffffff81111561100a57611009611e7f565b5b60405190808252806020026020018201604052801561104357816020015b611030611d58565b8152602001906001900390816110285790505b5090505f5b828110156112c0575f60015f865f015f9054906101000a900473ffffffffffffffffffffffffffffffffffffffff1673ffffffffffffffffffffffffffffffffffffffff1673ffffffffffffffffffffffffffffffffffffffff1681526020019081526020015f2082815481106110c2576110c16128ed565b5b905f5260205f2090600302016040518060600160405290815f820180546110e890612947565b80601f016020809104026020016040519081016040528092919081815260200182805461111490612947565b801561115f5780601f106111365761010080835404028352916020019161115f565b820191905f5260205f20905b81548152906001019060200180831161114257829003601f168201915b50505050508152602001600182015f9054906101000a900473ffffffffffffffffffffffffffffffffffffffff1673ffffffffffffffffffffffffffffffffffffffff1673ffffffffffffffffffffffffffffffffffffffff1681526020016002820180546111cd90612947565b80601f01602080910402602001604051908101604052809291908181526020018280546111f990612947565b80156112445780601f1061121b57610100808354040283529160200191611244565b820191905f5260205f20905b81548152906001019060200180831161122757829003601f168201915b50505050508152505090506040518060600160405280825f01518152602001826020015173ffffffffffffffffffffffffffffffffffffffff16815260200161129183602001518a6112cc565b8152508383815181106112a7576112a66128ed565b5b6020026020010181905250508080600101915050611048565b50809350505050919050565b60605f803373ffffffffffffffffffffffffffffffffffffffff1673ffffffffffffffffffffffffffffffffffffffff1681526020019081526020015f205f015f9054906101000a900473ffffffffffffffffffffffffffffffffffffffff1673ffffffffffffffffffffffffffffffffffffffff163373ffffffffffffffffffffffffffffffffffffffff1614611399576040517f08c379a000000000000000000000000000000000000000000000000000000000815260040161139090612cd8565b60405180910390fd5b5f805f8473ffffffffffffffffffffffffffffffffffffffff1673ffffffffffffffffffffffffffffffffffffffff1681526020019081526020015f2090505f816004018054905090505f8167ffffffffffffffff8111156113fe576113fd611e7f565b5b60405190808252806020026020018201604052801561143757816020015b611424611d8e565b81526020019060019003908161141c5790505b5090505f5b8281101561159b575f84600401828154811061145b5761145a6128ed565b5b905f5260205f2001805461146e90612947565b80601f016020809104026020016040519081016040528092919081815260200182805461149a90612947565b80156114e55780601f106114bc576101008083540402835291602001916114e5565b820191905f5260205f20905b8154815290600101906020018083116114c857829003601f168201915b505050505090505f85600201826040516114ff91906129b1565b90815260200160405180910390205f8a73ffffffffffffffffffffffffffffffffffffffff1673ffffffffffffffffffffffffffffffffffffffff1681526020019081526020015f205f9054906101000a900460ff1690506040518060400160405280838152602001821515815250848481518110611581576115806128ed565b5b60200260200101819052505050808060010191505061143c565b5080935050505092915050565b6001602052815f5260405f2081815481106115c1575f80fd5b905f5260205f2090600302015f9150915050805f0180546115e190612947565b80601f016020809104026020016040519081016040528092919081815260200182805461160d90612947565b80156116585780601f1061162f57610100808354040283529160200191611658565b820191905f5260205f20905b81548152906001019060200180831161163b57829003601f168201915b505050505090806001015f9054906101000a900473ffffffffffffffffffffffffffffffffffffffff169080600201805461169290612947565b80601f01602080910402602001604051908101604052809291908181526020018280546116be90612947565b80156117095780601f106116e057610100808354040283529160200191611709565b820191905f5260205f20905b8154815290600101906020018083116116ec57829003601f168201915b5050505050905083565b60605f803373ffffffffffffffffffffffffffffffffffffffff1673ffffffffffffffffffffffffffffffffffffffff1681526020019081526020015f205f015f9054906101000a900473ffffffffffffffffffffffffffffffffffffffff1673ffffffffffffffffffffffffffffffffffffffff163373ffffffffffffffffffffffffffffffffffffffff16146117e0576040517f08c379a00000000000000000000000000000000000000000000000000000000081526004016117d790612cd8565b60405180910390fd5b60015f805f3373ffffffffffffffffffffffffffffffffffffffff1673ffffffffffffffffffffffffffffffffffffffff1681526020019081526020015f205f015f9054906101000a900473ffffffffffffffffffffffffffffffffffffffff1673ffffffffffffffffffffffffffffffffffffffff1673ffffffffffffffffffffffffffffffffffffffff1681526020019081526020015f20805480602002602001604051908101604052809291908181526020015f905b82821015611a3d578382905f5260205f2090600302016040518060600160405290815f820180546118c990612947565b80601f01602080910402602001604051908101604052809291908181526020018280546118f590612947565b80156119405780601f1061191757610100808354040283529160200191611940565b820191905f5260205f20905b81548152906001019060200180831161192357829003601f168201915b50505050508152602001600182015f9054906101000a900473ffffffffffffffffffffffffffffffffffffffff1673ffffffffffffffffffffffffffffffffffffffff1673ffffffffffffffffffffffffffffffffffffffff1681526020016002820180546119ae90612947565b80601f01602080910402602001604051908101604052809291908181526020018280546119da90612947565b8015611a255780601f106119fc57610100808354040283529160200191611a25565b820191905f5260205f20905b815481529060010190602001808311611a0857829003601f168201915b50505050508152505081526020019060010190611899565b50505050905090565b60605f803373ffffffffffffffffffffffffffffffffffffffff1673ffffffffffffffffffffffffffffffffffffffff1681526020019081526020015f20600401805480602002602001604051908101604052809291908181526020015f905b82821015611b4e578382905f5260205f20018054611ac390612947565b80601f0160208091040260200160405190810160405280929190818152602001828054611aef90612947565b8015611b3a5780601f10611b1157610100808354040283529160200191611b3a565b820191905f5260205f20905b815481529060010190602001808311611b1d57829003601f168201915b505050505081526020019060010190611aa6565b50505050905090565b5f803373ffffffffffffffffffffffffffffffffffffffff1673ffffffffffffffffffffffffffffffffffffffff1681526020019081526020015f205f015f9054906101000a900473ffffffffffffffffffffffffffffffffffffffff1673ffffffffffffffffffffffffffffffffffffffff163373ffffffffffffffffffffffffffffffffffffffff1614611c22576040517f08c379a0000000000000000000000000000000000000000000000000000000008152600401611c1990612cd8565b60405180910390fd5b60015f803373ffffffffffffffffffffffffffffffffffffffff1673ffffffffffffffffffffffffffffffffffffffff1681526020019081526020015f2060020182604051611c7191906129b1565b90815260200160405180910390205f8473ffffffffffffffffffffffffffffffffffffffff1673ffffffffffffffffffffffffffffffffffffffff1681526020019081526020015f205f6101000a81548160ff0219169083151502179055508173ffffffffffffffffffffffffffffffffffffffff167f883d542f167dfc5f47e8bf1532c171025ed0e4c59c1126c7f61749fa21976a4582604051611d169190612419565b60405180910390a25050565b6040518060600160405280606081526020015f73ffffffffffffffffffffffffffffffffffffffff168152602001606081525090565b6040518060600160405280606081526020015f73ffffffffffffffffffffffffffffffffffffffff168152602001606081525090565b6040518060400160405280606081526020015f151581525090565b5f604051905090565b5f80fd5b5f80fd5b5f73ffffffffffffffffffffffffffffffffffffffff82169050919050565b5f611de382611dba565b9050919050565b611df381611dd9565b8114611dfd575f80fd5b50565b5f81359050611e0e81611dea565b92915050565b5f60208284031215611e2957611e28611db2565b5b5f611e3684828501611e00565b91505092915050565b611e4881611dd9565b82525050565b5f602082019050611e615f830184611e3f565b92915050565b5f80fd5b5f80fd5b5f601f19601f8301169050919050565b7f4e487b71000000000000000000000000000000000000000000000000000000005f52604160045260245ffd5b611eb582611e6f565b810181811067ffffffffffffffff82111715611ed457611ed3611e7f565b5b80604052505050565b5f611ee6611da9565b9050611ef28282611eac565b919050565b5f67ffffffffffffffff821115611f1157611f10611e7f565b5b611f1a82611e6f565b9050602081019050919050565b828183375f83830152505050565b5f611f47611f4284611ef7565b611edd565b905082815260208101848484011115611f6357611f62611e6b565b5b611f6e848285611f27565b509392505050565b5f82601f830112611f8a57611f89611e67565b5b8135611f9a848260208601611f35565b91505092915050565b5f60208284031215611fb857611fb7611db2565b5b5f82013567ffffffffffffffff811115611fd557611fd4611db6565b5b611fe184828501611f76565b91505092915050565b5f81519050919050565b5f82825260208201905092915050565b5f819050602082019050919050565b5f81519050919050565b5f82825260208201905092915050565b5f5b8381101561204a57808201518184015260208101905061202f565b5f8484015250505050565b5f61205f82612013565b612069818561201d565b935061207981856020860161202d565b61208281611e6f565b840191505092915050565b61209681611dd9565b82525050565b5f606083015f8301518482035f8601526120b68282612055565b91505060208301516120cb602086018261208d565b50604083015184820360408601526120e38282612055565b9150508091505092915050565b5f6120fb838361209c565b905092915050565b5f602082019050919050565b5f61211982611fea565b6121238185611ff4565b93508360208202850161213585612004565b805f5b85811015612170578484038952815161215185826120f0565b945061215c83612103565b925060208a01995050600181019050612138565b50829750879550505050505092915050565b5f81519050919050565b5f82825260208201905092915050565b5f819050602082019050919050565b5f8115159050919050565b6121bf816121ab565b82525050565b5f6121d083836121b6565b60208301905092915050565b5f602082019050919050565b5f6121f282612182565b6121fc818561218c565b93506122078361219c565b805f5b8381101561223757815161221e88826121c5565b9750612229836121dc565b92505060018101905061220a565b5085935050505092915050565b5f6040820190508181035f83015261225c818561210f565b9050818103602083015261227081846121e8565b90509392505050565b5f806040838503121561228f5761228e611db2565b5b5f83013567ffffffffffffffff8111156122ac576122ab611db6565b5b6122b885828601611f76565b925050602083013567ffffffffffffffff8111156122d9576122d8611db6565b5b6122e585828601611f76565b9150509250929050565b5f806040838503121561230557612304611db2565b5b5f61231285828601611e00565b925050602083013567ffffffffffffffff81111561233357612332611db6565b5b61233f85828601611f76565b9150509250929050565b5f805f606084860312156123605761235f611db2565b5b5f61236d86828701611e00565b935050602084013567ffffffffffffffff81111561238e5761238d611db6565b5b61239a86828701611f76565b925050604084013567ffffffffffffffff8111156123bb576123ba611db6565b5b6123c786828701611f76565b9150509250925092565b5f82825260208201905092915050565b5f6123eb82612013565b6123f581856123d1565b935061240581856020860161202d565b61240e81611e6f565b840191505092915050565b5f6020820190508181035f83015261243181846123e1565b905092915050565b5f81519050919050565b5f82825260208201905092915050565b5f819050602082019050919050565b5f81519050919050565b5f82825260208201905092915050565b5f819050602082019050919050565b5f604083015f8301518482035f8601526124a58282612055565b91505060208301516124ba60208601826121b6565b508091505092915050565b5f6124d0838361248b565b905092915050565b5f602082019050919050565b5f6124ee82612462565b6124f8818561246c565b93508360208202850161250a8561247c565b805f5b85811015612545578484038952815161252685826124c5565b9450612531836124d8565b925060208a0199505060018101905061250d565b50829750879550505050505092915050565b5f606083015f8301518482035f8601526125718282612055565b9150506020830151612586602086018261208d565b506040830151848203604086015261259e82826124e4565b9150508091505092915050565b5f6125b68383612557565b905092915050565b5f602082019050919050565b5f6125d482612439565b6125de8185612443565b9350836020820285016125f085612453565b805f5b8581101561262b578484038952815161260c85826125ab565b9450612617836125be565b925060208a019950506001810190506125f3565b50829750879550505050505092915050565b5f6020820190508181035f83015261265581846125ca565b905092915050565b5f806040838503121561267357612672611db2565b5b5f61268085828601611e00565b925050602061269185828601611e00565b9150509250929050565b5f82825260208201905092915050565b5f6126b582612462565b6126bf818561269b565b9350836020820285016126d18561247c565b805f5b8581101561270c57848403895281516126ed85826124c5565b94506126f8836124d8565b925060208a019950506001810190506126d4565b50829750879550505050505092915050565b5f6020820190508181035f83015261273681846126ab565b905092915050565b5f819050919050565b6127508161273e565b811461275a575f80fd5b50565b5f8135905061276b81612747565b92915050565b5f806040838503121561278757612786611db2565b5b5f61279485828601611e00565b92505060206127a58582860161275d565b9150509250929050565b5f6060820190508181035f8301526127c781866123e1565b90506127d66020830185611e3f565b81810360408301526127e881846123e1565b9050949350505050565b5f6020820190508181035f83015261280a818461210f565b905092915050565b5f81519050919050565b5f82825260208201905092915050565b5f819050602082019050919050565b5f6128468383612055565b905092915050565b5f602082019050919050565b5f61286482612812565b61286e818561281c565b9350836020820285016128808561282c565b805f5b858110156128bb578484038952815161289c858261283b565b94506128a78361284e565b925060208a01995050600181019050612883565b50829750879550505050505092915050565b5f6020820190508181035f8301526128e5818461285a565b905092915050565b7f4e487b71000000000000000000000000000000000000000000000000000000005f52603260045260245ffd5b7f4e487b71000000000000000000000000000000000000000000000000000000005f52602260045260245ffd5b5f600282049050600182168061295e57607f821691505b6020821081036129715761297061291a565b5b50919050565b5f81905092915050565b5f61298b82612013565b6129958185612977565b93506129a581856020860161202d565b80840191505092915050565b5f6129bc8284612981565b915081905092915050565b5f819050815f5260205f209050919050565b5f6020601f8301049050919050565b5f82821b905092915050565b5f60088302612a237fffffffffffffffffffffffffffffffffffffffffffffffffffffffffffffffff826129e8565b612a2d86836129e8565b95508019841693508086168417925050509392505050565b5f819050919050565b5f612a68612a63612a5e8461273e565b612a45565b61273e565b9050919050565b5f819050919050565b612a8183612a4e565b612a95612a8d82612a6f565b8484546129f4565b825550505050565b5f90565b612aa9612a9d565b612ab4818484612a78565b505050565b5b81811015612ad757612acc5f82612aa1565b600181019050612aba565b5050565b601f821115612b1c57612aed816129c7565b612af6846129d9565b81016020851015612b05578190505b612b19612b11856129d9565b830182612ab9565b50505b505050565b5f82821c905092915050565b5f612b3c5f1984600802612b21565b1980831691505092915050565b5f612b548383612b2d565b9150826002028217905092915050565b612b6d82612013565b67ffffffffffffffff811115612b8657612b85611e7f565b5b612b908254612947565b612b9b828285612adb565b5f60209050601f831160018114612bcc575f8415612bba578287015190505b612bc48582612b49565b865550612c2b565b601f198416612bda866129c7565b5f5b82811015612c0157848901518255600182019150602085019450602081019050612bdc565b86831015612c1e5784890151612c1a601f891682612b2d565b8355505b6001600288020188555050505b505050505050565b5f6040820190508181035f830152612c4b81856123e1565b90508181036020830152612c5f81846123e1565b90509392505050565b7f4f6e6c79207468652070617469656e742063616e20706572666f726d207468695f8201527f7320616374696f6e000000000000000000000000000000000000000000000000602082015250565b5f612cc26028836123d1565b9150612ccd82612c68565b604082019050919050565b5f6020820190508181035f830152612cef81612cb6565b9050919050565b5f608082019050612d095f830187611e3f565b8181036020830152612d1b81866123e1565b9050612d2a6040830185611e3f565b8181036060830152612d3c81846123e1565b905095945050505050565b7f556e617574686f72697a65642061636365737320666f722064617461207479705f8201527f6500000000000000000000000000000000000000000000000000000000000000602082015250565b5f612da16021836123d1565b9150612dac82612d47565b604082019050919050565b5f6020820190508181035f830152612dce81612d95565b905091905056fea2646970667358221220e9380374c77dbf41bd1f419af532cd66f36a72a84bab799071ba1ea4092ff7df64736f6c63430008170033",
  "immutableReferences": {},
  "source": "// SPDX-License-Identifier: MIT\r\npragma solidity ^0.8.7;\r\n\r\ncontract PatientOrgContract {\r\n    struct Organization {\r\n        string name;\r\n        address orgAddress;\r\n        string role;\r\n    }\r\n\r\n    struct AccessControl {\r\n        address patient;\r\n        mapping(address => bool) authorizedEntities;\r\n        mapping(string => mapping(address => bool)) authorizedEntitiesForDataType;\r\n        mapping(string => string) patientData;\r\n        string[] dataTypes;\r\n    }\r\n    struct OrganizationWithAccess {\r\n        string name;\r\n        address orgAddress;\r\n        DataTypeWithAccess[] hasAccess;\r\n    }\r\n\r\n    mapping(address => AccessControl) public patientAccessControls; // Mapping to store AccessControl for each patient\r\n    mapping(address => Organization[]) public patientOrganizations; // Stores multiple organizations for each patient\r\n\r\n    // Get all organizations and their access for a patient\r\n    function getAllOrganizationsWithAccess(address patient) public view returns (OrganizationWithAccess[] memory) {\r\n        AccessControl storage accessControl = patientAccessControls[patient];\r\n\r\n        uint orgCount = patientOrganizations[accessControl.patient].length;\r\n        OrganizationWithAccess[] memory orgsWithAccess = new OrganizationWithAccess[](orgCount);\r\n\r\n        for (uint i = 0; i < orgCount; i++) {\r\n            Organization memory org = patientOrganizations[accessControl.patient][i];\r\n            orgsWithAccess[i] = OrganizationWithAccess({\r\n                name: org.name,\r\n                orgAddress: org.orgAddress,\r\n                hasAccess: getAllDataTypesWithAccessForOrganization(org.orgAddress,patient)\r\n            });\r\n        }\r\n\r\n        return orgsWithAccess;\r\n    }\r\n\r\n        function getAllDataTypesWithAccessForOrganization(address _orgAddress,address patient) public view onlyPatient returns (DataTypeWithAccess[] memory) {\r\n        AccessControl storage accessControl = patientAccessControls[patient];\r\n\r\n        uint dataTypeCount = accessControl.dataTypes.length;\r\n        DataTypeWithAccess[] memory dataTypesWithAccess = new DataTypeWithAccess[](dataTypeCount);\r\n\r\n        for (uint i = 0; i < dataTypeCount; i++) {\r\n            string memory dataType = accessControl.dataTypes[i];\r\n            bool hasAccess = accessControl.authorizedEntitiesForDataType[dataType][_orgAddress];\r\n\r\n            dataTypesWithAccess[i] = DataTypeWithAccess({\r\n                dataType: dataType,\r\n                hasAccess: hasAccess\r\n            });\r\n        }\r\n\r\n        return dataTypesWithAccess;\r\n    }\r\n\r\n    // Helper struct to store data type details along with access status\r\n    struct DataTypeWithAccess {\r\n        string dataType;\r\n        bool hasAccess;\r\n    }\r\n    // Events\r\n    event AccessGranted(address indexed entity, string dataType);\r\n    event AccessRevoked(address indexed entity, string dataType);\r\n    event PatientDataUpdated(string dataType, string ipfsUri);\r\n    event OrganizationAdded(address patient, string name, address orgAddress, string role);\r\n\r\n    // Set patient access control\r\n    function setPatient(address _patient) public {\r\n        patientAccessControls[_patient].patient = _patient;\r\n    }\r\n\r\n    modifier onlyPatient() {\r\n        require(msg.sender == patientAccessControls[msg.sender].patient, \"Only the patient can perform this action\");\r\n        _;\r\n    }\r\n\r\n    // Add an organization for the patient\r\n    function addOrganizationForPatient(address _orgAddress, string memory _name, string memory _role) public onlyPatient {\r\n        Organization memory newOrg = Organization(_name, _orgAddress, _role);\r\n        patientOrganizations[patientAccessControls[msg.sender].patient].push(newOrg);\r\n        emit OrganizationAdded(patientAccessControls[msg.sender].patient, _name, _orgAddress, _role);\r\n    }\r\n\r\n    // Get all organizations for a patient\r\n    function getPatientOrganizations() public view onlyPatient returns (Organization[] memory) {\r\n        return patientOrganizations[patientAccessControls[msg.sender].patient];\r\n    }\r\n\r\n    // Update patient data\r\n    function updatePatientData(string memory _dataType, string memory _ipfsUri) public {\r\n        AccessControl storage accessControl = patientAccessControls[msg.sender];\r\n\r\n        if (bytes(accessControl.patientData[_dataType]).length == 0) {\r\n            accessControl.dataTypes.push(_dataType);\r\n        }\r\n        accessControl.patientData[_dataType] = _ipfsUri;\r\n        emit PatientDataUpdated(_dataType, _ipfsUri);\r\n    }\r\n\r\n    // Get the list of data types\r\n    function getPatientDataTypes() public view returns (string[] memory) {\r\n        return patientAccessControls[msg.sender].dataTypes;\r\n    }\r\n\r\n    // Get patient data URI\r\n    function getPatientDataUri(string memory _dataType) public view returns (string memory) {\r\n        AccessControl storage accessControl = patientAccessControls[msg.sender];\r\n\r\n        require(accessControl.authorizedEntitiesForDataType[_dataType][msg.sender] || msg.sender == accessControl.patient, \"Unauthorized access for data type\");\r\n        return accessControl.patientData[_dataType];\r\n    }\r\n\r\n    // Grant access to a data type\r\n    function grantAccess(address _entity, string memory _dataType) public onlyPatient {\r\n        patientAccessControls[msg.sender].authorizedEntitiesForDataType[_dataType][_entity] = true;\r\n        emit AccessGranted(_entity, _dataType);\r\n    }\r\n\r\n    // Revoke access from a data type\r\n    function revokeAccess(address _entity, string memory _dataType) public onlyPatient {\r\n        patientAccessControls[msg.sender].authorizedEntitiesForDataType[_dataType][_entity] = false;\r\n        emit AccessRevoked(_entity, _dataType);\r\n    }\r\n\r\n    function getOrganizationsAccessForDataType(string memory _dataType) public view returns (Organization[] memory, bool[] memory) {\r\n        AccessControl storage accessControl = patientAccessControls[msg.sender];\r\n\r\n        uint orgCount = patientOrganizations[accessControl.patient].length;\r\n        Organization[] memory orgs = new Organization[](orgCount);\r\n        bool[] memory hasAccess = new bool[](orgCount);\r\n\r\n        for (uint i = 0; i < orgCount; i++) {\r\n            orgs[i] = patientOrganizations[accessControl.patient][i];\r\n            hasAccess[i] = accessControl.authorizedEntitiesForDataType[_dataType][orgs[i].orgAddress];\r\n        }\r\n\r\n        return (orgs, hasAccess);\r\n    }\r\n}\r\n",
  "sourcePath": "A:\\Sem-VII\\Research Project\\Enabling-Secure-Access-Control-of-Electronic-Health-Records-through-Smart-Contracts\\truffle\\contracts\\PatientOrgContract.sol",
  "compiler": {
    "name": "solc",
    "version": "0.8.23+commit.f704f362.Emscripten.clang"
  },
  "schemaVersion": "3.4.8",
  "updatedAt": "2023-11-14T06:55:53.653Z",
  "networkType": "ethereum",
  "devdoc": {
    "kind": "dev",
    "methods": {},
    "version": 1
  },
  "userdoc": {
    "kind": "user",
    "methods": {},
    "version": 1
  }
}