{
  "contractName": "PatientOrgContract",
  "abi": [
    {
      "anonymous": false,
      "inputs": [
        {
          "indexed": true,
          "internalType": "address",
          "name": "entity",
          "type": "address"
        },
        {
          "indexed": false,
          "internalType": "string",
          "name": "dataType",
          "type": "string"
        }
      ],
      "name": "AccessGranted",
      "type": "event"
    },
    {
      "anonymous": false,
      "inputs": [
        {
          "indexed": true,
          "internalType": "address",
          "name": "entity",
          "type": "address"
        },
        {
          "indexed": false,
          "internalType": "string",
          "name": "dataType",
          "type": "string"
        }
      ],
      "name": "AccessRevoked",
      "type": "event"
    },
    {
      "anonymous": false,
      "inputs": [
        {
          "indexed": false,
          "internalType": "address",
          "name": "patient",
          "type": "address"
        },
        {
          "indexed": false,
          "internalType": "string",
          "name": "name",
          "type": "string"
        },
        {
          "indexed": false,
          "internalType": "address",
          "name": "orgAddress",
          "type": "address"
        },
        {
          "indexed": false,
          "internalType": "string",
          "name": "role",
          "type": "string"
        }
      ],
      "name": "OrganizationAdded",
      "type": "event"
    },
    {
      "anonymous": false,
      "inputs": [
        {
          "indexed": false,
          "internalType": "string",
          "name": "dataType",
          "type": "string"
        },
        {
          "indexed": false,
          "internalType": "string",
          "name": "ipfsUri",
          "type": "string"
        }
      ],
      "name": "PatientDataUpdated",
      "type": "event"
    },
    {
      "inputs": [
        {
          "internalType": "address",
          "name": "",
          "type": "address"
        },
        {
          "internalType": "uint256",
          "name": "",
          "type": "uint256"
        }
      ],
      "name": "patientOrganizations",
      "outputs": [
        {
          "internalType": "string",
          "name": "name",
          "type": "string"
        },
        {
          "internalType": "address",
          "name": "orgAddress",
          "type": "address"
        },
        {
          "internalType": "string",
          "name": "role",
          "type": "string"
        }
      ],
      "stateMutability": "view",
      "type": "function"
    },
    {
      "inputs": [
        {
          "internalType": "address",
          "name": "_patient",
          "type": "address"
        }
      ],
      "name": "setPatient",
      "outputs": [],
      "stateMutability": "nonpayable",
      "type": "function"
    },
    {
      "inputs": [
        {
          "internalType": "address",
          "name": "_orgAddress",
          "type": "address"
        },
        {
          "internalType": "string",
          "name": "_name",
          "type": "string"
        },
        {
          "internalType": "string",
          "name": "_role",
          "type": "string"
        }
      ],
      "name": "addOrganizationForPatient",
      "outputs": [],
      "stateMutability": "nonpayable",
      "type": "function"
    },
    {
      "inputs": [],
      "name": "getPatientOrganizations",
      "outputs": [
        {
          "components": [
            {
              "internalType": "string",
              "name": "name",
              "type": "string"
            },
            {
              "internalType": "address",
              "name": "orgAddress",
              "type": "address"
            },
            {
              "internalType": "string",
              "name": "role",
              "type": "string"
            }
          ],
          "internalType": "struct PatientOrgContract.Organization[]",
          "name": "",
          "type": "tuple[]"
        }
      ],
      "stateMutability": "view",
      "type": "function"
    },
    {
      "inputs": [
        {
          "internalType": "string",
          "name": "_dataType",
          "type": "string"
        },
        {
          "internalType": "string",
          "name": "_ipfsUri",
          "type": "string"
        }
      ],
      "name": "updatePatientData",
      "outputs": [],
      "stateMutability": "nonpayable",
      "type": "function"
    },
    {
      "inputs": [],
      "name": "getPatientDataTypes",
      "outputs": [
        {
          "internalType": "string[]",
          "name": "",
          "type": "string[]"
        }
      ],
      "stateMutability": "view",
      "type": "function"
    },
    {
      "inputs": [
        {
          "internalType": "string",
          "name": "_dataType",
          "type": "string"
        }
      ],
      "name": "getPatientDataUri",
      "outputs": [
        {
          "internalType": "string",
          "name": "",
          "type": "string"
        }
      ],
      "stateMutability": "view",
      "type": "function"
    },
    {
      "inputs": [
        {
          "internalType": "address",
          "name": "_entity",
          "type": "address"
        },
        {
          "internalType": "string",
          "name": "_dataType",
          "type": "string"
        }
      ],
      "name": "grantAccess",
      "outputs": [],
      "stateMutability": "nonpayable",
      "type": "function"
    },
    {
      "inputs": [
        {
          "internalType": "address",
          "name": "_entity",
          "type": "address"
        },
        {
          "internalType": "string",
          "name": "_dataType",
          "type": "string"
        }
      ],
      "name": "revokeAccess",
      "outputs": [],
      "stateMutability": "nonpayable",
      "type": "function"
    },
    {
      "inputs": [
        {
          "internalType": "string",
          "name": "_dataType",
          "type": "string"
        }
      ],
      "name": "getOrganizationsAccessForDataType",
      "outputs": [
        {
          "components": [
            {
              "internalType": "string",
              "name": "name",
              "type": "string"
            },
            {
              "internalType": "address",
              "name": "orgAddress",
              "type": "address"
            },
            {
              "internalType": "string",
              "name": "role",
              "type": "string"
            }
          ],
          "internalType": "struct PatientOrgContract.Organization[]",
          "name": "",
          "type": "tuple[]"
        },
        {
          "internalType": "bool[]",
          "name": "",
          "type": "bool[]"
        }
      ],
      "stateMutability": "view",
      "type": "function"
    }
  ],
  "bytecode": "0x608060405234801561000f575f80fd5b50611ffa8061001d5f395ff3fe608060405234801561000f575f80fd5b506004361061009c575f3560e01c806397290820116100645780639729082014610141578063c1a2b94e14610171578063d9b1d70e146101a3578063df63747f146101c1578063e50fe48e146101df5761009c565b80631164ee4d146100a057806324a58660146100d157806350eeed4f146100ed5780636a44cac914610109578063723f8ab514610125575b5f80fd5b6100ba60048036038101906100b59190611403565b6101fb565b6040516100c89291906116d4565b60405180910390f35b6100eb60048036038101906100e69190611709565b6105f2565b005b610107600480360381019061010291906117a9565b6106c5565b005b610123600480360381019061011e91906117d4565b610709565b005b61013f600480360381019061013a919061182e565b61085d565b005b61015b60048036038101906101569190611403565b610a7e565b60405161016891906118fe565b60405180910390f35b61018b60048036038101906101869190611951565b610c2d565b60405161019a9392919061199e565b60405180910390f35b6101ab610d98565b6040516101b891906119e1565b60405180910390f35b6101c9611055565b6040516101d69190611abc565b60405180910390f35b6101f960048036038101906101f491906117d4565b61112b565b005b6060805f60055f805f015f9054906101000a900473ffffffffffffffffffffffffffffffffffffffff1673ffffffffffffffffffffffffffffffffffffffff1673ffffffffffffffffffffffffffffffffffffffff1681526020019081526020015f208054905090505f8167ffffffffffffffff81111561027f5761027e6112df565b5b6040519080825280602002602001820160405280156102b857816020015b6102a5611280565b81526020019060019003908161029d5790505b5090505f8267ffffffffffffffff8111156102d6576102d56112df565b5b6040519080825280602002602001820160405280156103045781602001602082028036833780820191505090505b5090505f5b838110156105e35760055f805f015f9054906101000a900473ffffffffffffffffffffffffffffffffffffffff1673ffffffffffffffffffffffffffffffffffffffff1673ffffffffffffffffffffffffffffffffffffffff1681526020019081526020015f20818154811061038257610381611adc565b5b905f5260205f2090600302016040518060600160405290815f820180546103a890611b36565b80601f01602080910402602001604051908101604052809291908181526020018280546103d490611b36565b801561041f5780601f106103f65761010080835404028352916020019161041f565b820191905f5260205f20905b81548152906001019060200180831161040257829003601f168201915b50505050508152602001600182015f9054906101000a900473ffffffffffffffffffffffffffffffffffffffff1673ffffffffffffffffffffffffffffffffffffffff1673ffffffffffffffffffffffffffffffffffffffff16815260200160028201805461048d90611b36565b80601f01602080910402602001604051908101604052809291908181526020018280546104b990611b36565b80156105045780601f106104db57610100808354040283529160200191610504565b820191905f5260205f20905b8154815290600101906020018083116104e757829003601f168201915b5050505050815250508382815181106105205761051f611adc565b5b60200260200101819052505f6002018760405161053d9190611ba0565b90815260200160405180910390205f84838151811061055f5761055e611adc565b5b60200260200101516020015173ffffffffffffffffffffffffffffffffffffffff1673ffffffffffffffffffffffffffffffffffffffff1681526020019081526020015f205f9054906101000a900460ff168282815181106105c4576105c3611adc565b5b6020026020010190151590811515815250508080600101915050610309565b50818194509450505050915091565b5f80600301836040516106059190611ba0565b9081526020016040518091039020805461061e90611b36565b90500361065a575f60040182908060018154018082558091505060019003905f5260205f20015f9091909190915090816106589190611d53565b505b805f6003018360405161066d9190611ba0565b908152602001604051809103902090816106879190611d53565b507ff003290f29262794ffea7a9da5f0e2d45291d0bf3cf968cadeaf7ca35b2df21582826040516106b9929190611e22565b60405180910390a15050565b805f80015f6101000a81548173ffffffffffffffffffffffffffffffffffffffff021916908373ffffffffffffffffffffffffffffffffffffffff16021790555050565b5f80015f9054906101000a900473ffffffffffffffffffffffffffffffffffffffff1673ffffffffffffffffffffffffffffffffffffffff163373ffffffffffffffffffffffffffffffffffffffff1614610799576040517f08c379a000000000000000000000000000000000000000000000000000000000815260040161079090611ec7565b60405180910390fd5b5f80600201826040516107ac9190611ba0565b90815260200160405180910390205f8473ffffffffffffffffffffffffffffffffffffffff1673ffffffffffffffffffffffffffffffffffffffff1681526020019081526020015f205f6101000a81548160ff0219169083151502179055508173ffffffffffffffffffffffffffffffffffffffff167f51cbcaaca6ae26944c6280c966a07b04ca5c6766d82ca497ded152579431468d8260405161085191906118fe565b60405180910390a25050565b5f80015f9054906101000a900473ffffffffffffffffffffffffffffffffffffffff1673ffffffffffffffffffffffffffffffffffffffff163373ffffffffffffffffffffffffffffffffffffffff16146108ed576040517f08c379a00000000000000000000000000000000000000000000000000000000081526004016108e490611ec7565b60405180910390fd5b5f60405180606001604052808481526020018573ffffffffffffffffffffffffffffffffffffffff16815260200183815250905060055f805f015f9054906101000a900473ffffffffffffffffffffffffffffffffffffffff1673ffffffffffffffffffffffffffffffffffffffff1673ffffffffffffffffffffffffffffffffffffffff1681526020019081526020015f2081908060018154018082558091505060019003905f5260205f2090600302015f909190919091505f820151815f0190816109ba9190611d53565b506020820151816001015f6101000a81548173ffffffffffffffffffffffffffffffffffffffff021916908373ffffffffffffffffffffffffffffffffffffffff1602179055506040820151816002019081610a169190611d53565b5050507fcae71f98f8d9f298b947f99845d4ca2edd3f25f6582cd2fb82755bdd5be7d6925f80015f9054906101000a900473ffffffffffffffffffffffffffffffffffffffff16848685604051610a709493929190611ee5565b60405180910390a150505050565b60605f60020182604051610a929190611ba0565b90815260200160405180910390205f3373ffffffffffffffffffffffffffffffffffffffff1673ffffffffffffffffffffffffffffffffffffffff1681526020019081526020015f205f9054906101000a900460ff1680610b4057505f80015f9054906101000a900473ffffffffffffffffffffffffffffffffffffffff1673ffffffffffffffffffffffffffffffffffffffff163373ffffffffffffffffffffffffffffffffffffffff16145b610b7f576040517f08c379a0000000000000000000000000000000000000000000000000000000008152600401610b7690611fa6565b60405180910390fd5b5f60030182604051610b919190611ba0565b90815260200160405180910390208054610baa90611b36565b80601f0160208091040260200160405190810160405280929190818152602001828054610bd690611b36565b8015610c215780601f10610bf857610100808354040283529160200191610c21565b820191905f5260205f20905b815481529060010190602001808311610c0457829003601f168201915b50505050509050919050565b6005602052815f5260405f208181548110610c46575f80fd5b905f5260205f2090600302015f9150915050805f018054610c6690611b36565b80601f0160208091040260200160405190810160405280929190818152602001828054610c9290611b36565b8015610cdd5780601f10610cb457610100808354040283529160200191610cdd565b820191905f5260205f20905b815481529060010190602001808311610cc057829003601f168201915b505050505090806001015f9054906101000a900473ffffffffffffffffffffffffffffffffffffffff1690806002018054610d1790611b36565b80601f0160208091040260200160405190810160405280929190818152602001828054610d4390611b36565b8015610d8e5780601f10610d6557610100808354040283529160200191610d8e565b820191905f5260205f20905b815481529060010190602001808311610d7157829003601f168201915b5050505050905083565b60605f80015f9054906101000a900473ffffffffffffffffffffffffffffffffffffffff1673ffffffffffffffffffffffffffffffffffffffff163373ffffffffffffffffffffffffffffffffffffffff1614610e2a576040517f08c379a0000000000000000000000000000000000000000000000000000000008152600401610e2190611ec7565b60405180910390fd5b60055f805f015f9054906101000a900473ffffffffffffffffffffffffffffffffffffffff1673ffffffffffffffffffffffffffffffffffffffff1673ffffffffffffffffffffffffffffffffffffffff1681526020019081526020015f20805480602002602001604051908101604052809291908181526020015f905b8282101561104c578382905f5260205f2090600302016040518060600160405290815f82018054610ed890611b36565b80601f0160208091040260200160405190810160405280929190818152602001828054610f0490611b36565b8015610f4f5780601f10610f2657610100808354040283529160200191610f4f565b820191905f5260205f20905b815481529060010190602001808311610f3257829003601f168201915b50505050508152602001600182015f9054906101000a900473ffffffffffffffffffffffffffffffffffffffff1673ffffffffffffffffffffffffffffffffffffffff1673ffffffffffffffffffffffffffffffffffffffff168152602001600282018054610fbd90611b36565b80601f0160208091040260200160405190810160405280929190818152602001828054610fe990611b36565b80156110345780601f1061100b57610100808354040283529160200191611034565b820191905f5260205f20905b81548152906001019060200180831161101757829003601f168201915b50505050508152505081526020019060010190610ea8565b50505050905090565b60605f600401805480602002602001604051908101604052809291908181526020015f905b82821015611122578382905f5260205f2001805461109790611b36565b80601f01602080910402602001604051908101604052809291908181526020018280546110c390611b36565b801561110e5780601f106110e55761010080835404028352916020019161110e565b820191905f5260205f20905b8154815290600101906020018083116110f157829003601f168201915b50505050508152602001906001019061107a565b50505050905090565b5f80015f9054906101000a900473ffffffffffffffffffffffffffffffffffffffff1673ffffffffffffffffffffffffffffffffffffffff163373ffffffffffffffffffffffffffffffffffffffff16146111bb576040517f08c379a00000000000000000000000000000000000000000000000000000000081526004016111b290611ec7565b60405180910390fd5b60015f600201826040516111cf9190611ba0565b90815260200160405180910390205f8473ffffffffffffffffffffffffffffffffffffffff1673ffffffffffffffffffffffffffffffffffffffff1681526020019081526020015f205f6101000a81548160ff0219169083151502179055508173ffffffffffffffffffffffffffffffffffffffff167f883d542f167dfc5f47e8bf1532c171025ed0e4c59c1126c7f61749fa21976a458260405161127491906118fe565b60405180910390a25050565b6040518060600160405280606081526020015f73ffffffffffffffffffffffffffffffffffffffff168152602001606081525090565b5f604051905090565b5f80fd5b5f80fd5b5f80fd5b5f80fd5b5f601f19601f8301169050919050565b7f4e487b71000000000000000000000000000000000000000000000000000000005f52604160045260245ffd5b611315826112cf565b810181811067ffffffffffffffff82111715611334576113336112df565b5b80604052505050565b5f6113466112b6565b9050611352828261130c565b919050565b5f67ffffffffffffffff821115611371576113706112df565b5b61137a826112cf565b9050602081019050919050565b828183375f83830152505050565b5f6113a76113a284611357565b61133d565b9050828152602081018484840111156113c3576113c26112cb565b5b6113ce848285611387565b509392505050565b5f82601f8301126113ea576113e96112c7565b5b81356113fa848260208601611395565b91505092915050565b5f60208284031215611418576114176112bf565b5b5f82013567ffffffffffffffff811115611435576114346112c3565b5b611441848285016113d6565b91505092915050565b5f81519050919050565b5f82825260208201905092915050565b5f819050602082019050919050565b5f81519050919050565b5f82825260208201905092915050565b5f5b838110156114aa57808201518184015260208101905061148f565b5f8484015250505050565b5f6114bf82611473565b6114c9818561147d565b93506114d981856020860161148d565b6114e2816112cf565b840191505092915050565b5f73ffffffffffffffffffffffffffffffffffffffff82169050919050565b5f611516826114ed565b9050919050565b6115268161150c565b82525050565b5f606083015f8301518482035f86015261154682826114b5565b915050602083015161155b602086018261151d565b506040830151848203604086015261157382826114b5565b9150508091505092915050565b5f61158b838361152c565b905092915050565b5f602082019050919050565b5f6115a98261144a565b6115b38185611454565b9350836020820285016115c585611464565b805f5b8581101561160057848403895281516115e18582611580565b94506115ec83611593565b925060208a019950506001810190506115c8565b50829750879550505050505092915050565b5f81519050919050565b5f82825260208201905092915050565b5f819050602082019050919050565b5f8115159050919050565b61164f8161163b565b82525050565b5f6116608383611646565b60208301905092915050565b5f602082019050919050565b5f61168282611612565b61168c818561161c565b93506116978361162c565b805f5b838110156116c75781516116ae8882611655565b97506116b98361166c565b92505060018101905061169a565b5085935050505092915050565b5f6040820190508181035f8301526116ec818561159f565b905081810360208301526117008184611678565b90509392505050565b5f806040838503121561171f5761171e6112bf565b5b5f83013567ffffffffffffffff81111561173c5761173b6112c3565b5b611748858286016113d6565b925050602083013567ffffffffffffffff811115611769576117686112c3565b5b611775858286016113d6565b9150509250929050565b6117888161150c565b8114611792575f80fd5b50565b5f813590506117a38161177f565b92915050565b5f602082840312156117be576117bd6112bf565b5b5f6117cb84828501611795565b91505092915050565b5f80604083850312156117ea576117e96112bf565b5b5f6117f785828601611795565b925050602083013567ffffffffffffffff811115611818576118176112c3565b5b611824858286016113d6565b9150509250929050565b5f805f60608486031215611845576118446112bf565b5b5f61185286828701611795565b935050602084013567ffffffffffffffff811115611873576118726112c3565b5b61187f868287016113d6565b925050604084013567ffffffffffffffff8111156118a05761189f6112c3565b5b6118ac868287016113d6565b9150509250925092565b5f82825260208201905092915050565b5f6118d082611473565b6118da81856118b6565b93506118ea81856020860161148d565b6118f3816112cf565b840191505092915050565b5f6020820190508181035f83015261191681846118c6565b905092915050565b5f819050919050565b6119308161191e565b811461193a575f80fd5b50565b5f8135905061194b81611927565b92915050565b5f8060408385031215611967576119666112bf565b5b5f61197485828601611795565b92505060206119858582860161193d565b9150509250929050565b6119988161150c565b82525050565b5f6060820190508181035f8301526119b681866118c6565b90506119c5602083018561198f565b81810360408301526119d781846118c6565b9050949350505050565b5f6020820190508181035f8301526119f9818461159f565b905092915050565b5f81519050919050565b5f82825260208201905092915050565b5f819050602082019050919050565b5f611a3583836114b5565b905092915050565b5f602082019050919050565b5f611a5382611a01565b611a5d8185611a0b565b935083602082028501611a6f85611a1b565b805f5b85811015611aaa5784840389528151611a8b8582611a2a565b9450611a9683611a3d565b925060208a01995050600181019050611a72565b50829750879550505050505092915050565b5f6020820190508181035f830152611ad48184611a49565b905092915050565b7f4e487b71000000000000000000000000000000000000000000000000000000005f52603260045260245ffd5b7f4e487b71000000000000000000000000000000000000000000000000000000005f52602260045260245ffd5b5f6002820490506001821680611b4d57607f821691505b602082108103611b6057611b5f611b09565b5b50919050565b5f81905092915050565b5f611b7a82611473565b611b848185611b66565b9350611b9481856020860161148d565b80840191505092915050565b5f611bab8284611b70565b915081905092915050565b5f819050815f5260205f209050919050565b5f6020601f8301049050919050565b5f82821b905092915050565b5f60088302611c127fffffffffffffffffffffffffffffffffffffffffffffffffffffffffffffffff82611bd7565b611c1c8683611bd7565b95508019841693508086168417925050509392505050565b5f819050919050565b5f611c57611c52611c4d8461191e565b611c34565b61191e565b9050919050565b5f819050919050565b611c7083611c3d565b611c84611c7c82611c5e565b848454611be3565b825550505050565b5f90565b611c98611c8c565b611ca3818484611c67565b505050565b5b81811015611cc657611cbb5f82611c90565b600181019050611ca9565b5050565b601f821115611d0b57611cdc81611bb6565b611ce584611bc8565b81016020851015611cf4578190505b611d08611d0085611bc8565b830182611ca8565b50505b505050565b5f82821c905092915050565b5f611d2b5f1984600802611d10565b1980831691505092915050565b5f611d438383611d1c565b9150826002028217905092915050565b611d5c82611473565b67ffffffffffffffff811115611d7557611d746112df565b5b611d7f8254611b36565b611d8a828285611cca565b5f60209050601f831160018114611dbb575f8415611da9578287015190505b611db38582611d38565b865550611e1a565b601f198416611dc986611bb6565b5f5b82811015611df057848901518255600182019150602085019450602081019050611dcb565b86831015611e0d5784890151611e09601f891682611d1c565b8355505b6001600288020188555050505b505050505050565b5f6040820190508181035f830152611e3a81856118c6565b90508181036020830152611e4e81846118c6565b90509392505050565b7f4f6e6c79207468652070617469656e742063616e20706572666f726d207468695f8201527f7320616374696f6e000000000000000000000000000000000000000000000000602082015250565b5f611eb16028836118b6565b9150611ebc82611e57565b604082019050919050565b5f6020820190508181035f830152611ede81611ea5565b9050919050565b5f608082019050611ef85f83018761198f565b8181036020830152611f0a81866118c6565b9050611f19604083018561198f565b8181036060830152611f2b81846118c6565b905095945050505050565b7f556e617574686f72697a65642061636365737320666f722064617461207479705f8201527f6500000000000000000000000000000000000000000000000000000000000000602082015250565b5f611f906021836118b6565b9150611f9b82611f36565b604082019050919050565b5f6020820190508181035f830152611fbd81611f84565b905091905056fea2646970667358221220d6fff854769027f510e610cbd3fa02502988480d9678dfdabf15349372ba762964736f6c63430008170033",
  "immutableReferences": {},
  "source": "// SPDX-License-Identifier: MIT\r\npragma solidity ^0.8.7;\r\n\r\ncontract PatientOrgContract {\r\n    struct Organization {\r\n        string name;\r\n        address orgAddress;\r\n        string role;\r\n    }\r\n\r\n    struct AccessControl {\r\n        address patient;\r\n        mapping(address => bool) authorizedEntities;\r\n        mapping(string => mapping(address => bool)) authorizedEntitiesForDataType;\r\n        mapping(string => string) patientData;\r\n        string[] dataTypes;\r\n    }\r\n\r\n    AccessControl private accessControl;\r\n    mapping(address => Organization[]) public patientOrganizations; // Stores multiple organizations for each patient\r\n\r\n    // Events\r\n    event AccessGranted(address indexed entity, string dataType);\r\n    event AccessRevoked(address indexed entity, string dataType);\r\n    event PatientDataUpdated(string dataType, string ipfsUri);\r\n    event OrganizationAdded(address patient, string name, address orgAddress, string role);\r\n\r\n    function setPatient(address _patient) public{\r\n           accessControl.patient = _patient;\r\n    }\r\n\r\n    modifier onlyPatient() {\r\n        require(msg.sender == accessControl.patient, \"Only the patient can perform this action\");\r\n        _;\r\n    }\r\n\r\n    // Add an organization for the patient\r\n    function addOrganizationForPatient(address _orgAddress, string memory _name, string memory _role) public onlyPatient {\r\n        Organization memory newOrg = Organization(_name, _orgAddress, _role);\r\n        patientOrganizations[accessControl.patient].push(newOrg);\r\n        emit OrganizationAdded(accessControl.patient, _name, _orgAddress, _role);\r\n    }\r\n\r\n    // Get all organizations for a patient\r\n    function getPatientOrganizations() public view onlyPatient returns (Organization[] memory) {\r\n        return patientOrganizations[accessControl.patient];\r\n    }\r\n\r\n    // Update patient data\r\n    function updatePatientData(string memory _dataType, string memory _ipfsUri) public  {\r\n        if (bytes(accessControl.patientData[_dataType]).length == 0) {\r\n            accessControl.dataTypes.push(_dataType);\r\n        }\r\n        accessControl.patientData[_dataType] = _ipfsUri;\r\n        emit PatientDataUpdated(_dataType, _ipfsUri);\r\n    }\r\n\r\n    // Get the list of data types\r\n    function getPatientDataTypes() public view returns (string[] memory) {\r\n        return accessControl.dataTypes;\r\n    }\r\n\r\n    // Get patient data URI\r\n    function getPatientDataUri(string memory _dataType) public view returns (string memory) {\r\n        require(accessControl.authorizedEntitiesForDataType[_dataType][msg.sender] || msg.sender == accessControl.patient, \"Unauthorized access for data type\");\r\n        return accessControl.patientData[_dataType];\r\n    }\r\n\r\n    // Grant access to a data type\r\n    function grantAccess(address _entity, string memory _dataType) public onlyPatient {\r\n        accessControl.authorizedEntitiesForDataType[_dataType][_entity] = true;\r\n        emit AccessGranted(_entity, _dataType);\r\n    }\r\n\r\n    // Revoke access from a data type\r\n    function revokeAccess(address _entity, string memory _dataType) public onlyPatient {\r\n        accessControl.authorizedEntitiesForDataType[_dataType][_entity] = false;\r\n        emit AccessRevoked(_entity, _dataType);\r\n    }\r\n     function getOrganizationsAccessForDataType(string memory _dataType) public view returns (Organization[] memory, bool[] memory) {\r\n        uint orgCount = patientOrganizations[accessControl.patient].length;\r\n        Organization[] memory orgs = new Organization[](orgCount);\r\n        bool[] memory hasAccess = new bool[](orgCount);\r\n\r\n        for (uint i = 0; i < orgCount; i++) {\r\n            orgs[i] = patientOrganizations[accessControl.patient][i];\r\n            hasAccess[i] = accessControl.authorizedEntitiesForDataType[_dataType][orgs[i].orgAddress];\r\n        }\r\n\r\n        return (orgs, hasAccess);\r\n    }\r\n}\r\n",
  "sourcePath": "A:\\Sem-VII\\Research Project\\Enabling-Secure-Access-Control-of-Electronic-Health-Records-through-Smart-Contracts\\truffle\\contracts\\PatientOrgContract.sol",
  "compiler": {
    "name": "solc",
    "version": "0.8.23+commit.f704f362.Emscripten.clang"
  },
  "schemaVersion": "3.4.8",
  "updatedAt": "2023-11-13T19:23:44.464Z",
  "devdoc": {
    "kind": "dev",
    "methods": {},
    "version": 1
  },
  "userdoc": {
    "kind": "user",
    "methods": {},
    "version": 1
  }
}