{
  "contractName": "PatientOrgContract",
  "abi": [
    {
      "anonymous": false,
      "inputs": [
        {
          "indexed": true,
          "internalType": "address",
          "name": "entity",
          "type": "address"
        },
        {
          "indexed": false,
          "internalType": "string",
          "name": "dataType",
          "type": "string"
        }
      ],
      "name": "AccessGranted",
      "type": "event"
    },
    {
      "anonymous": false,
      "inputs": [
        {
          "indexed": true,
          "internalType": "address",
          "name": "entity",
          "type": "address"
        },
        {
          "indexed": false,
          "internalType": "string",
          "name": "dataType",
          "type": "string"
        }
      ],
      "name": "AccessRevoked",
      "type": "event"
    },
    {
      "anonymous": false,
      "inputs": [
        {
          "indexed": false,
          "internalType": "address",
          "name": "patient",
          "type": "address"
        },
        {
          "indexed": false,
          "internalType": "string",
          "name": "name",
          "type": "string"
        },
        {
          "indexed": false,
          "internalType": "address",
          "name": "orgAddress",
          "type": "address"
        },
        {
          "indexed": false,
          "internalType": "string",
          "name": "role",
          "type": "string"
        }
      ],
      "name": "OrganizationAdded",
      "type": "event"
    },
    {
      "anonymous": false,
      "inputs": [
        {
          "indexed": false,
          "internalType": "string",
          "name": "dataType",
          "type": "string"
        },
        {
          "indexed": false,
          "internalType": "string",
          "name": "ipfsUri",
          "type": "string"
        }
      ],
      "name": "PatientDataUpdated",
      "type": "event"
    },
    {
      "inputs": [
        {
          "internalType": "address",
          "name": "",
          "type": "address"
        }
      ],
      "name": "patientAccessControls",
      "outputs": [
        {
          "internalType": "address",
          "name": "patient",
          "type": "address"
        }
      ],
      "stateMutability": "view",
      "type": "function",
      "constant": true
    },
    {
      "inputs": [
        {
          "internalType": "address",
          "name": "",
          "type": "address"
        },
        {
          "internalType": "uint256",
          "name": "",
          "type": "uint256"
        }
      ],
      "name": "patientOrganizations",
      "outputs": [
        {
          "internalType": "string",
          "name": "name",
          "type": "string"
        },
        {
          "internalType": "address",
          "name": "orgAddress",
          "type": "address"
        },
        {
          "internalType": "string",
          "name": "role",
          "type": "string"
        }
      ],
      "stateMutability": "view",
      "type": "function",
      "constant": true
    },
    {
      "inputs": [
        {
          "internalType": "address",
          "name": "patient",
          "type": "address"
        }
      ],
      "name": "getAllOrganizationsWithAccess",
      "outputs": [
        {
          "components": [
            {
              "internalType": "string",
              "name": "name",
              "type": "string"
            },
            {
              "internalType": "address",
              "name": "orgAddress",
              "type": "address"
            },
            {
              "components": [
                {
                  "internalType": "string",
                  "name": "dataType",
                  "type": "string"
                },
                {
                  "internalType": "bool",
                  "name": "hasAccess",
                  "type": "bool"
                }
              ],
              "internalType": "struct PatientOrgContract.DataTypeWithAccess[]",
              "name": "hasAccess",
              "type": "tuple[]"
            }
          ],
          "internalType": "struct PatientOrgContract.OrganizationWithAccess[]",
          "name": "",
          "type": "tuple[]"
        }
      ],
      "stateMutability": "view",
      "type": "function",
      "constant": true
    },
    {
      "inputs": [
        {
          "internalType": "address",
          "name": "_orgAddress",
          "type": "address"
        },
        {
          "internalType": "address",
          "name": "patient",
          "type": "address"
        }
      ],
      "name": "getAllDataTypesWithAccessForOrganization",
      "outputs": [
        {
          "components": [
            {
              "internalType": "string",
              "name": "dataType",
              "type": "string"
            },
            {
              "internalType": "bool",
              "name": "hasAccess",
              "type": "bool"
            }
          ],
          "internalType": "struct PatientOrgContract.DataTypeWithAccess[]",
          "name": "",
          "type": "tuple[]"
        }
      ],
      "stateMutability": "view",
      "type": "function",
      "constant": true
    },
    {
      "inputs": [
        {
          "internalType": "address",
          "name": "_patient",
          "type": "address"
        }
      ],
      "name": "setPatient",
      "outputs": [],
      "stateMutability": "nonpayable",
      "type": "function"
    },
    {
      "inputs": [
        {
          "internalType": "address",
          "name": "_orgAddress",
          "type": "address"
        },
        {
          "internalType": "string",
          "name": "_name",
          "type": "string"
        },
        {
          "internalType": "string",
          "name": "_role",
          "type": "string"
        }
      ],
      "name": "addOrganizationForPatient",
      "outputs": [],
      "stateMutability": "nonpayable",
      "type": "function"
    },
    {
      "inputs": [],
      "name": "getPatientOrganizations",
      "outputs": [
        {
          "components": [
            {
              "internalType": "string",
              "name": "name",
              "type": "string"
            },
            {
              "internalType": "address",
              "name": "orgAddress",
              "type": "address"
            },
            {
              "internalType": "string",
              "name": "role",
              "type": "string"
            }
          ],
          "internalType": "struct PatientOrgContract.Organization[]",
          "name": "",
          "type": "tuple[]"
        }
      ],
      "stateMutability": "view",
      "type": "function",
      "constant": true
    },
    {
      "inputs": [
        {
          "internalType": "string",
          "name": "_dataType",
          "type": "string"
        },
        {
          "internalType": "string",
          "name": "_ipfsUri",
          "type": "string"
        }
      ],
      "name": "updatePatientData",
      "outputs": [],
      "stateMutability": "nonpayable",
      "type": "function"
    },
    {
      "inputs": [],
      "name": "getPatientDataTypes",
      "outputs": [
        {
          "internalType": "string[]",
          "name": "",
          "type": "string[]"
        }
      ],
      "stateMutability": "view",
      "type": "function",
      "constant": true
    },
    {
      "inputs": [
        {
          "internalType": "string",
          "name": "_dataType",
          "type": "string"
        },
        {
          "internalType": "address",
          "name": "patient",
          "type": "address"
        }
      ],
      "name": "getPatientDataUri",
      "outputs": [
        {
          "internalType": "string",
          "name": "",
          "type": "string"
        }
      ],
      "stateMutability": "view",
      "type": "function",
      "constant": true
    },
    {
      "inputs": [
        {
          "internalType": "address",
          "name": "_entity",
          "type": "address"
        },
        {
          "internalType": "string",
          "name": "_dataType",
          "type": "string"
        }
      ],
      "name": "grantAccess",
      "outputs": [],
      "stateMutability": "nonpayable",
      "type": "function"
    },
    {
      "inputs": [
        {
          "internalType": "address",
          "name": "_entity",
          "type": "address"
        },
        {
          "internalType": "string",
          "name": "_dataType",
          "type": "string"
        }
      ],
      "name": "revokeAccess",
      "outputs": [],
      "stateMutability": "nonpayable",
      "type": "function"
    },
    {
      "inputs": [
        {
          "internalType": "string",
          "name": "_dataType",
          "type": "string"
        }
      ],
      "name": "getOrganizationsAccessForDataType",
      "outputs": [
        {
          "components": [
            {
              "internalType": "string",
              "name": "name",
              "type": "string"
            },
            {
              "internalType": "address",
              "name": "orgAddress",
              "type": "address"
            },
            {
              "internalType": "string",
              "name": "role",
              "type": "string"
            }
          ],
          "internalType": "struct PatientOrgContract.Organization[]",
          "name": "",
          "type": "tuple[]"
        },
        {
          "internalType": "bool[]",
          "name": "",
          "type": "bool[]"
        }
      ],
      "stateMutability": "view",
      "type": "function",
      "constant": true
    }
  ],
  "bytecode": "0x608060405234801561000f575f80fd5b50612db68061001d5f395ff3fe608060405234801561000f575f80fd5b50600436106100cd575f3560e01c8063723f8ab51161008a578063c1a2b94e11610064578063c1a2b94e14610232578063d9b1d70e14610264578063df63747f14610282578063e50fe48e146102a0576100cd565b8063723f8ab5146101b65780639822ff8d146101d25780639bf32ec814610202576100cd565b8063070e5b96146100d157806308b795b1146101015780631164ee4d1461013157806324a586601461016257806350eeed4f1461017e5780636a44cac91461019a575b5f80fd5b6100eb60048036038101906100e69190611f2f565b6102bc565b6040516100f89190612003565b60405180910390f35b61011b60048036038101906101169190612023565b61048a565b604051610128919061205d565b60405180910390f35b61014b60048036038101906101469190612076565b6104c2565b6040516101599291906122e5565b60405180910390f35b61017c6004803603810190610177919061231a565b6108f9565b005b61019860048036038101906101939190612023565b610a0c565b005b6101b460048036038101906101af9190612390565b610a8b565b005b6101d060048036038101906101cb91906123ea565b610c55565b005b6101ec60048036038101906101e79190612023565b610f27565b6040516101f99190612676565b60405180910390f35b61021c60048036038101906102179190612696565b6112ab565b6040516102299190612757565b60405180910390f35b61024c600480360381019061024791906127aa565b611587565b60405161025b939291906127e8565b60405180910390f35b61026c6116f2565b604051610279919061282b565b60405180910390f35b61028a611a25565b6040516102979190612906565b60405180910390f35b6102ba60048036038101906102b59190612390565b611b36565b005b60605f805f8473ffffffffffffffffffffffffffffffffffffffff1673ffffffffffffffffffffffffffffffffffffffff1681526020019081526020015f209050806002018460405161030f9190612960565b90815260200160405180910390205f3373ffffffffffffffffffffffffffffffffffffffff1673ffffffffffffffffffffffffffffffffffffffff1681526020019081526020015f205f9054906101000a900460ff16806103bd5750805f015f9054906101000a900473ffffffffffffffffffffffffffffffffffffffff1673ffffffffffffffffffffffffffffffffffffffff163373ffffffffffffffffffffffffffffffffffffffff16145b156104715780600301846040516103d49190612960565b908152602001604051809103902080546103ed906129a3565b80601f0160208091040260200160405190810160405280929190818152602001828054610419906129a3565b80156104645780601f1061043b57610100808354040283529160200191610464565b820191905f5260205f20905b81548152906001019060200180831161044757829003601f168201915b5050505050915050610484565b60405180602001604052805f8152509150505b92915050565b5f602052805f5260405f205f91509050805f015f9054906101000a900473ffffffffffffffffffffffffffffffffffffffff16905081565b6060805f805f3373ffffffffffffffffffffffffffffffffffffffff1673ffffffffffffffffffffffffffffffffffffffff1681526020019081526020015f2090505f60015f835f015f9054906101000a900473ffffffffffffffffffffffffffffffffffffffff1673ffffffffffffffffffffffffffffffffffffffff1673ffffffffffffffffffffffffffffffffffffffff1681526020019081526020015f208054905090505f8167ffffffffffffffff81111561058557610584611db1565b5b6040519080825280602002602001820160405280156105be57816020015b6105ab611d01565b8152602001906001900390816105a35790505b5090505f8267ffffffffffffffff8111156105dc576105db611db1565b5b60405190808252806020026020018201604052801561060a5781602001602082028036833780820191505090505b5090505f5b838110156108e95760015f865f015f9054906101000a900473ffffffffffffffffffffffffffffffffffffffff1673ffffffffffffffffffffffffffffffffffffffff1673ffffffffffffffffffffffffffffffffffffffff1681526020019081526020015f208181548110610688576106876129d3565b5b905f5260205f2090600302016040518060600160405290815f820180546106ae906129a3565b80601f01602080910402602001604051908101604052809291908181526020018280546106da906129a3565b80156107255780601f106106fc57610100808354040283529160200191610725565b820191905f5260205f20905b81548152906001019060200180831161070857829003601f168201915b50505050508152602001600182015f9054906101000a900473ffffffffffffffffffffffffffffffffffffffff1673ffffffffffffffffffffffffffffffffffffffff1673ffffffffffffffffffffffffffffffffffffffff168152602001600282018054610793906129a3565b80601f01602080910402602001604051908101604052809291908181526020018280546107bf906129a3565b801561080a5780601f106107e15761010080835404028352916020019161080a565b820191905f5260205f20905b8154815290600101906020018083116107ed57829003601f168201915b505050505081525050838281518110610826576108256129d3565b5b602002602001018190525084600201886040516108439190612960565b90815260200160405180910390205f848381518110610865576108646129d3565b5b60200260200101516020015173ffffffffffffffffffffffffffffffffffffffff1673ffffffffffffffffffffffffffffffffffffffff1681526020019081526020015f205f9054906101000a900460ff168282815181106108ca576108c96129d3565b5b602002602001019015159081151581525050808060010191505061060f565b5081819550955050505050915091565b5f805f3373ffffffffffffffffffffffffffffffffffffffff1673ffffffffffffffffffffffffffffffffffffffff1681526020019081526020015f2090505f816003018460405161094b9190612960565b90815260200160405180910390208054610964906129a3565b9050036109a0578060040183908060018154018082558091505060019003905f5260205f20015f90919091909150908161099e9190612b9d565b505b8181600301846040516109b39190612960565b908152602001604051809103902090816109cd9190612b9d565b507ff003290f29262794ffea7a9da5f0e2d45291d0bf3cf968cadeaf7ca35b2df21583836040516109ff929190612c6c565b60405180910390a1505050565b805f808373ffffffffffffffffffffffffffffffffffffffff1673ffffffffffffffffffffffffffffffffffffffff1681526020019081526020015f205f015f6101000a81548173ffffffffffffffffffffffffffffffffffffffff021916908373ffffffffffffffffffffffffffffffffffffffff16021790555050565b5f803373ffffffffffffffffffffffffffffffffffffffff1673ffffffffffffffffffffffffffffffffffffffff1681526020019081526020015f205f015f9054906101000a900473ffffffffffffffffffffffffffffffffffffffff1673ffffffffffffffffffffffffffffffffffffffff163373ffffffffffffffffffffffffffffffffffffffff1614610b56576040517f08c379a0000000000000000000000000000000000000000000000000000000008152600401610b4d90612d11565b60405180910390fd5b5f805f3373ffffffffffffffffffffffffffffffffffffffff1673ffffffffffffffffffffffffffffffffffffffff1681526020019081526020015f2060020182604051610ba49190612960565b90815260200160405180910390205f8473ffffffffffffffffffffffffffffffffffffffff1673ffffffffffffffffffffffffffffffffffffffff1681526020019081526020015f205f6101000a81548160ff0219169083151502179055508173ffffffffffffffffffffffffffffffffffffffff167f51cbcaaca6ae26944c6280c966a07b04ca5c6766d82ca497ded152579431468d82604051610c499190612003565b60405180910390a25050565b5f803373ffffffffffffffffffffffffffffffffffffffff1673ffffffffffffffffffffffffffffffffffffffff1681526020019081526020015f205f015f9054906101000a900473ffffffffffffffffffffffffffffffffffffffff1673ffffffffffffffffffffffffffffffffffffffff163373ffffffffffffffffffffffffffffffffffffffff1614610d20576040517f08c379a0000000000000000000000000000000000000000000000000000000008152600401610d1790612d11565b60405180910390fd5b5f60405180606001604052808481526020018573ffffffffffffffffffffffffffffffffffffffff16815260200183815250905060015f805f3373ffffffffffffffffffffffffffffffffffffffff1673ffffffffffffffffffffffffffffffffffffffff1681526020019081526020015f205f015f9054906101000a900473ffffffffffffffffffffffffffffffffffffffff1673ffffffffffffffffffffffffffffffffffffffff1673ffffffffffffffffffffffffffffffffffffffff1681526020019081526020015f2081908060018154018082558091505060019003905f5260205f2090600302015f909190919091505f820151815f019081610e289190612b9d565b506020820151816001015f6101000a81548173ffffffffffffffffffffffffffffffffffffffff021916908373ffffffffffffffffffffffffffffffffffffffff1602179055506040820151816002019081610e849190612b9d565b5050507fcae71f98f8d9f298b947f99845d4ca2edd3f25f6582cd2fb82755bdd5be7d6925f803373ffffffffffffffffffffffffffffffffffffffff1673ffffffffffffffffffffffffffffffffffffffff1681526020019081526020015f205f015f9054906101000a900473ffffffffffffffffffffffffffffffffffffffff16848685604051610f199493929190612d2f565b60405180910390a150505050565b60605f805f8473ffffffffffffffffffffffffffffffffffffffff1673ffffffffffffffffffffffffffffffffffffffff1681526020019081526020015f2090505f60015f835f015f9054906101000a900473ffffffffffffffffffffffffffffffffffffffff1673ffffffffffffffffffffffffffffffffffffffff1673ffffffffffffffffffffffffffffffffffffffff1681526020019081526020015f208054905090505f8167ffffffffffffffff811115610fe957610fe8611db1565b5b60405190808252806020026020018201604052801561102257816020015b61100f611d37565b8152602001906001900390816110075790505b5090505f5b8281101561129f575f60015f865f015f9054906101000a900473ffffffffffffffffffffffffffffffffffffffff1673ffffffffffffffffffffffffffffffffffffffff1673ffffffffffffffffffffffffffffffffffffffff1681526020019081526020015f2082815481106110a1576110a06129d3565b5b905f5260205f2090600302016040518060600160405290815f820180546110c7906129a3565b80601f01602080910402602001604051908101604052809291908181526020018280546110f3906129a3565b801561113e5780601f106111155761010080835404028352916020019161113e565b820191905f5260205f20905b81548152906001019060200180831161112157829003601f168201915b50505050508152602001600182015f9054906101000a900473ffffffffffffffffffffffffffffffffffffffff1673ffffffffffffffffffffffffffffffffffffffff1673ffffffffffffffffffffffffffffffffffffffff1681526020016002820180546111ac906129a3565b80601f01602080910402602001604051908101604052809291908181526020018280546111d8906129a3565b80156112235780601f106111fa57610100808354040283529160200191611223565b820191905f5260205f20905b81548152906001019060200180831161120657829003601f168201915b50505050508152505090506040518060600160405280825f01518152602001826020015173ffffffffffffffffffffffffffffffffffffffff16815260200161127083602001518a6112ab565b815250838381518110611286576112856129d3565b5b6020026020010181905250508080600101915050611027565b50809350505050919050565b60605f803373ffffffffffffffffffffffffffffffffffffffff1673ffffffffffffffffffffffffffffffffffffffff1681526020019081526020015f205f015f9054906101000a900473ffffffffffffffffffffffffffffffffffffffff1673ffffffffffffffffffffffffffffffffffffffff163373ffffffffffffffffffffffffffffffffffffffff1614611378576040517f08c379a000000000000000000000000000000000000000000000000000000000815260040161136f90612d11565b60405180910390fd5b5f805f8473ffffffffffffffffffffffffffffffffffffffff1673ffffffffffffffffffffffffffffffffffffffff1681526020019081526020015f2090505f816004018054905090505f8167ffffffffffffffff8111156113dd576113dc611db1565b5b60405190808252806020026020018201604052801561141657816020015b611403611d6d565b8152602001906001900390816113fb5790505b5090505f5b8281101561157a575f84600401828154811061143a576114396129d3565b5b905f5260205f2001805461144d906129a3565b80601f0160208091040260200160405190810160405280929190818152602001828054611479906129a3565b80156114c45780601f1061149b576101008083540402835291602001916114c4565b820191905f5260205f20905b8154815290600101906020018083116114a757829003601f168201915b505050505090505f85600201826040516114de9190612960565b90815260200160405180910390205f8a73ffffffffffffffffffffffffffffffffffffffff1673ffffffffffffffffffffffffffffffffffffffff1681526020019081526020015f205f9054906101000a900460ff16905060405180604001604052808381526020018215158152508484815181106115605761155f6129d3565b5b60200260200101819052505050808060010191505061141b565b5080935050505092915050565b6001602052815f5260405f2081815481106115a0575f80fd5b905f5260205f2090600302015f9150915050805f0180546115c0906129a3565b80601f01602080910402602001604051908101604052809291908181526020018280546115ec906129a3565b80156116375780601f1061160e57610100808354040283529160200191611637565b820191905f5260205f20905b81548152906001019060200180831161161a57829003601f168201915b505050505090806001015f9054906101000a900473ffffffffffffffffffffffffffffffffffffffff1690806002018054611671906129a3565b80601f016020809104026020016040519081016040528092919081815260200182805461169d906129a3565b80156116e85780601f106116bf576101008083540402835291602001916116e8565b820191905f5260205f20905b8154815290600101906020018083116116cb57829003601f168201915b5050505050905083565b60605f803373ffffffffffffffffffffffffffffffffffffffff1673ffffffffffffffffffffffffffffffffffffffff1681526020019081526020015f205f015f9054906101000a900473ffffffffffffffffffffffffffffffffffffffff1673ffffffffffffffffffffffffffffffffffffffff163373ffffffffffffffffffffffffffffffffffffffff16146117bf576040517f08c379a00000000000000000000000000000000000000000000000000000000081526004016117b690612d11565b60405180910390fd5b60015f805f3373ffffffffffffffffffffffffffffffffffffffff1673ffffffffffffffffffffffffffffffffffffffff1681526020019081526020015f205f015f9054906101000a900473ffffffffffffffffffffffffffffffffffffffff1673ffffffffffffffffffffffffffffffffffffffff1673ffffffffffffffffffffffffffffffffffffffff1681526020019081526020015f20805480602002602001604051908101604052809291908181526020015f905b82821015611a1c578382905f5260205f2090600302016040518060600160405290815f820180546118a8906129a3565b80601f01602080910402602001604051908101604052809291908181526020018280546118d4906129a3565b801561191f5780601f106118f65761010080835404028352916020019161191f565b820191905f5260205f20905b81548152906001019060200180831161190257829003601f168201915b50505050508152602001600182015f9054906101000a900473ffffffffffffffffffffffffffffffffffffffff1673ffffffffffffffffffffffffffffffffffffffff1673ffffffffffffffffffffffffffffffffffffffff16815260200160028201805461198d906129a3565b80601f01602080910402602001604051908101604052809291908181526020018280546119b9906129a3565b8015611a045780601f106119db57610100808354040283529160200191611a04565b820191905f5260205f20905b8154815290600101906020018083116119e757829003601f168201915b50505050508152505081526020019060010190611878565b50505050905090565b60605f803373ffffffffffffffffffffffffffffffffffffffff1673ffffffffffffffffffffffffffffffffffffffff1681526020019081526020015f20600401805480602002602001604051908101604052809291908181526020015f905b82821015611b2d578382905f5260205f20018054611aa2906129a3565b80601f0160208091040260200160405190810160405280929190818152602001828054611ace906129a3565b8015611b195780601f10611af057610100808354040283529160200191611b19565b820191905f5260205f20905b815481529060010190602001808311611afc57829003601f168201915b505050505081526020019060010190611a85565b50505050905090565b5f803373ffffffffffffffffffffffffffffffffffffffff1673ffffffffffffffffffffffffffffffffffffffff1681526020019081526020015f205f015f9054906101000a900473ffffffffffffffffffffffffffffffffffffffff1673ffffffffffffffffffffffffffffffffffffffff163373ffffffffffffffffffffffffffffffffffffffff1614611c01576040517f08c379a0000000000000000000000000000000000000000000000000000000008152600401611bf890612d11565b60405180910390fd5b60015f803373ffffffffffffffffffffffffffffffffffffffff1673ffffffffffffffffffffffffffffffffffffffff1681526020019081526020015f2060020182604051611c509190612960565b90815260200160405180910390205f8473ffffffffffffffffffffffffffffffffffffffff1673ffffffffffffffffffffffffffffffffffffffff1681526020019081526020015f205f6101000a81548160ff0219169083151502179055508173ffffffffffffffffffffffffffffffffffffffff167f883d542f167dfc5f47e8bf1532c171025ed0e4c59c1126c7f61749fa21976a4582604051611cf59190612003565b60405180910390a25050565b6040518060600160405280606081526020015f73ffffffffffffffffffffffffffffffffffffffff168152602001606081525090565b6040518060600160405280606081526020015f73ffffffffffffffffffffffffffffffffffffffff168152602001606081525090565b6040518060400160405280606081526020015f151581525090565b5f604051905090565b5f80fd5b5f80fd5b5f80fd5b5f80fd5b5f601f19601f8301169050919050565b7f4e487b71000000000000000000000000000000000000000000000000000000005f52604160045260245ffd5b611de782611da1565b810181811067ffffffffffffffff82111715611e0657611e05611db1565b5b80604052505050565b5f611e18611d88565b9050611e248282611dde565b919050565b5f67ffffffffffffffff821115611e4357611e42611db1565b5b611e4c82611da1565b9050602081019050919050565b828183375f83830152505050565b5f611e79611e7484611e29565b611e0f565b905082815260208101848484011115611e9557611e94611d9d565b5b611ea0848285611e59565b509392505050565b5f82601f830112611ebc57611ebb611d99565b5b8135611ecc848260208601611e67565b91505092915050565b5f73ffffffffffffffffffffffffffffffffffffffff82169050919050565b5f611efe82611ed5565b9050919050565b611f0e81611ef4565b8114611f18575f80fd5b50565b5f81359050611f2981611f05565b92915050565b5f8060408385031215611f4557611f44611d91565b5b5f83013567ffffffffffffffff811115611f6257611f61611d95565b5b611f6e85828601611ea8565b9250506020611f7f85828601611f1b565b9150509250929050565b5f81519050919050565b5f82825260208201905092915050565b5f5b83811015611fc0578082015181840152602081019050611fa5565b5f8484015250505050565b5f611fd582611f89565b611fdf8185611f93565b9350611fef818560208601611fa3565b611ff881611da1565b840191505092915050565b5f6020820190508181035f83015261201b8184611fcb565b905092915050565b5f6020828403121561203857612037611d91565b5b5f61204584828501611f1b565b91505092915050565b61205781611ef4565b82525050565b5f6020820190506120705f83018461204e565b92915050565b5f6020828403121561208b5761208a611d91565b5b5f82013567ffffffffffffffff8111156120a8576120a7611d95565b5b6120b484828501611ea8565b91505092915050565b5f81519050919050565b5f82825260208201905092915050565b5f819050602082019050919050565b5f82825260208201905092915050565b5f61210082611f89565b61210a81856120e6565b935061211a818560208601611fa3565b61212381611da1565b840191505092915050565b61213781611ef4565b82525050565b5f606083015f8301518482035f86015261215782826120f6565b915050602083015161216c602086018261212e565b506040830151848203604086015261218482826120f6565b9150508091505092915050565b5f61219c838361213d565b905092915050565b5f602082019050919050565b5f6121ba826120bd565b6121c481856120c7565b9350836020820285016121d6856120d7565b805f5b8581101561221157848403895281516121f28582612191565b94506121fd836121a4565b925060208a019950506001810190506121d9565b50829750879550505050505092915050565b5f81519050919050565b5f82825260208201905092915050565b5f819050602082019050919050565b5f8115159050919050565b6122608161224c565b82525050565b5f6122718383612257565b60208301905092915050565b5f602082019050919050565b5f61229382612223565b61229d818561222d565b93506122a88361223d565b805f5b838110156122d85781516122bf8882612266565b97506122ca8361227d565b9250506001810190506122ab565b5085935050505092915050565b5f6040820190508181035f8301526122fd81856121b0565b905081810360208301526123118184612289565b90509392505050565b5f80604083850312156123305761232f611d91565b5b5f83013567ffffffffffffffff81111561234d5761234c611d95565b5b61235985828601611ea8565b925050602083013567ffffffffffffffff81111561237a57612379611d95565b5b61238685828601611ea8565b9150509250929050565b5f80604083850312156123a6576123a5611d91565b5b5f6123b385828601611f1b565b925050602083013567ffffffffffffffff8111156123d4576123d3611d95565b5b6123e085828601611ea8565b9150509250929050565b5f805f6060848603121561240157612400611d91565b5b5f61240e86828701611f1b565b935050602084013567ffffffffffffffff81111561242f5761242e611d95565b5b61243b86828701611ea8565b925050604084013567ffffffffffffffff81111561245c5761245b611d95565b5b61246886828701611ea8565b9150509250925092565b5f81519050919050565b5f82825260208201905092915050565b5f819050602082019050919050565b5f81519050919050565b5f82825260208201905092915050565b5f819050602082019050919050565b5f604083015f8301518482035f8601526124de82826120f6565b91505060208301516124f36020860182612257565b508091505092915050565b5f61250983836124c4565b905092915050565b5f602082019050919050565b5f6125278261249b565b61253181856124a5565b935083602082028501612543856124b5565b805f5b8581101561257e578484038952815161255f85826124fe565b945061256a83612511565b925060208a01995050600181019050612546565b50829750879550505050505092915050565b5f606083015f8301518482035f8601526125aa82826120f6565b91505060208301516125bf602086018261212e565b50604083015184820360408601526125d7828261251d565b9150508091505092915050565b5f6125ef8383612590565b905092915050565b5f602082019050919050565b5f61260d82612472565b612617818561247c565b9350836020820285016126298561248c565b805f5b85811015612664578484038952815161264585826125e4565b9450612650836125f7565b925060208a0199505060018101905061262c565b50829750879550505050505092915050565b5f6020820190508181035f83015261268e8184612603565b905092915050565b5f80604083850312156126ac576126ab611d91565b5b5f6126b985828601611f1b565b92505060206126ca85828601611f1b565b9150509250929050565b5f82825260208201905092915050565b5f6126ee8261249b565b6126f881856126d4565b93508360208202850161270a856124b5565b805f5b85811015612745578484038952815161272685826124fe565b945061273183612511565b925060208a0199505060018101905061270d565b50829750879550505050505092915050565b5f6020820190508181035f83015261276f81846126e4565b905092915050565b5f819050919050565b61278981612777565b8114612793575f80fd5b50565b5f813590506127a481612780565b92915050565b5f80604083850312156127c0576127bf611d91565b5b5f6127cd85828601611f1b565b92505060206127de85828601612796565b9150509250929050565b5f6060820190508181035f8301526128008186611fcb565b905061280f602083018561204e565b81810360408301526128218184611fcb565b9050949350505050565b5f6020820190508181035f83015261284381846121b0565b905092915050565b5f81519050919050565b5f82825260208201905092915050565b5f819050602082019050919050565b5f61287f83836120f6565b905092915050565b5f602082019050919050565b5f61289d8261284b565b6128a78185612855565b9350836020820285016128b985612865565b805f5b858110156128f457848403895281516128d58582612874565b94506128e083612887565b925060208a019950506001810190506128bc565b50829750879550505050505092915050565b5f6020820190508181035f83015261291e8184612893565b905092915050565b5f81905092915050565b5f61293a82611f89565b6129448185612926565b9350612954818560208601611fa3565b80840191505092915050565b5f61296b8284612930565b915081905092915050565b7f4e487b71000000000000000000000000000000000000000000000000000000005f52602260045260245ffd5b5f60028204905060018216806129ba57607f821691505b6020821081036129cd576129cc612976565b5b50919050565b7f4e487b71000000000000000000000000000000000000000000000000000000005f52603260045260245ffd5b5f819050815f5260205f209050919050565b5f6020601f8301049050919050565b5f82821b905092915050565b5f60088302612a5c7fffffffffffffffffffffffffffffffffffffffffffffffffffffffffffffffff82612a21565b612a668683612a21565b95508019841693508086168417925050509392505050565b5f819050919050565b5f612aa1612a9c612a9784612777565b612a7e565b612777565b9050919050565b5f819050919050565b612aba83612a87565b612ace612ac682612aa8565b848454612a2d565b825550505050565b5f90565b612ae2612ad6565b612aed818484612ab1565b505050565b5b81811015612b1057612b055f82612ada565b600181019050612af3565b5050565b601f821115612b5557612b2681612a00565b612b2f84612a12565b81016020851015612b3e578190505b612b52612b4a85612a12565b830182612af2565b50505b505050565b5f82821c905092915050565b5f612b755f1984600802612b5a565b1980831691505092915050565b5f612b8d8383612b66565b9150826002028217905092915050565b612ba682611f89565b67ffffffffffffffff811115612bbf57612bbe611db1565b5b612bc982546129a3565b612bd4828285612b14565b5f60209050601f831160018114612c05575f8415612bf3578287015190505b612bfd8582612b82565b865550612c64565b601f198416612c1386612a00565b5f5b82811015612c3a57848901518255600182019150602085019450602081019050612c15565b86831015612c575784890151612c53601f891682612b66565b8355505b6001600288020188555050505b505050505050565b5f6040820190508181035f830152612c848185611fcb565b90508181036020830152612c988184611fcb565b90509392505050565b7f4f6e6c79207468652070617469656e742063616e20706572666f726d207468695f8201527f7320616374696f6e000000000000000000000000000000000000000000000000602082015250565b5f612cfb602883611f93565b9150612d0682612ca1565b604082019050919050565b5f6020820190508181035f830152612d2881612cef565b9050919050565b5f608082019050612d425f83018761204e565b8181036020830152612d548186611fcb565b9050612d63604083018561204e565b8181036060830152612d758184611fcb565b90509594505050505056fea26469706673582212207a9e5ec9c39ba5289cf09f4c5ebed6e924b10d893b89a67832c9caedfbe9f3d964736f6c63430008170033",
  "immutableReferences": {},
  "source": "// SPDX-License-Identifier: MIT\r\npragma solidity ^0.8.7;\r\n\r\ncontract PatientOrgContract {\r\n    struct Organization {\r\n        string name;\r\n        address orgAddress;\r\n        string role;\r\n    }\r\n\r\n    struct AccessControl {\r\n        address patient;\r\n        mapping(address => bool) authorizedEntities;\r\n        mapping(string => mapping(address => bool)) authorizedEntitiesForDataType;\r\n        mapping(string => string) patientData;\r\n        string[] dataTypes;\r\n    }\r\n    struct OrganizationWithAccess {\r\n        string name;\r\n        address orgAddress;\r\n        DataTypeWithAccess[] hasAccess;\r\n    }\r\n\r\n    mapping(address => AccessControl) public patientAccessControls; // Mapping to store AccessControl for each patient\r\n    mapping(address => Organization[]) public patientOrganizations; // Stores multiple organizations for each patient\r\n\r\n    // Get all organizations and their access for a patient\r\n    function getAllOrganizationsWithAccess(address patient) public view returns (OrganizationWithAccess[] memory) {\r\n        AccessControl storage accessControl = patientAccessControls[patient];\r\n\r\n        uint orgCount = patientOrganizations[accessControl.patient].length;\r\n        OrganizationWithAccess[] memory orgsWithAccess = new OrganizationWithAccess[](orgCount);\r\n\r\n        for (uint i = 0; i < orgCount; i++) {\r\n            Organization memory org = patientOrganizations[accessControl.patient][i];\r\n            orgsWithAccess[i] = OrganizationWithAccess({\r\n                name: org.name,\r\n                orgAddress: org.orgAddress,\r\n                hasAccess: getAllDataTypesWithAccessForOrganization(org.orgAddress,patient)\r\n            });\r\n        }\r\n\r\n        return orgsWithAccess;\r\n    }\r\n\r\n        function getAllDataTypesWithAccessForOrganization(address _orgAddress,address patient) public view onlyPatient returns (DataTypeWithAccess[] memory) {\r\n        AccessControl storage accessControl = patientAccessControls[patient];\r\n\r\n        uint dataTypeCount = accessControl.dataTypes.length;\r\n        DataTypeWithAccess[] memory dataTypesWithAccess = new DataTypeWithAccess[](dataTypeCount);\r\n\r\n        for (uint i = 0; i < dataTypeCount; i++) {\r\n            string memory dataType = accessControl.dataTypes[i];\r\n            bool hasAccess = accessControl.authorizedEntitiesForDataType[dataType][_orgAddress];\r\n\r\n            dataTypesWithAccess[i] = DataTypeWithAccess({\r\n                dataType: dataType,\r\n                hasAccess: hasAccess\r\n            });\r\n        }\r\n\r\n        return dataTypesWithAccess;\r\n    }\r\n\r\n    // Helper struct to store data type details along with access status\r\n    struct DataTypeWithAccess {\r\n        string dataType;\r\n        bool hasAccess;\r\n    }\r\n    // Events\r\n    event AccessGranted(address indexed entity, string dataType);\r\n    event AccessRevoked(address indexed entity, string dataType);\r\n    event PatientDataUpdated(string dataType, string ipfsUri);\r\n    event OrganizationAdded(address patient, string name, address orgAddress, string role);\r\n\r\n    // Set patient access control\r\n    function setPatient(address _patient) public {\r\n        patientAccessControls[_patient].patient = _patient;\r\n    }\r\n\r\n    modifier onlyPatient() {\r\n        require(msg.sender == patientAccessControls[msg.sender].patient, \"Only the patient can perform this action\");\r\n        _;\r\n    }\r\n\r\n    // Add an organization for the patient\r\n    function addOrganizationForPatient(address _orgAddress, string memory _name, string memory _role) public onlyPatient {\r\n        Organization memory newOrg = Organization(_name, _orgAddress, _role);\r\n        patientOrganizations[patientAccessControls[msg.sender].patient].push(newOrg);\r\n        emit OrganizationAdded(patientAccessControls[msg.sender].patient, _name, _orgAddress, _role);\r\n    }\r\n\r\n    // Get all organizations for a patient\r\n    function getPatientOrganizations() public view onlyPatient returns (Organization[] memory) {\r\n        return patientOrganizations[patientAccessControls[msg.sender].patient];\r\n    }\r\n\r\n    // Update patient data\r\n    function updatePatientData(string memory _dataType, string memory _ipfsUri) public {\r\n        AccessControl storage accessControl = patientAccessControls[msg.sender];\r\n\r\n        if (bytes(accessControl.patientData[_dataType]).length == 0) {\r\n            accessControl.dataTypes.push(_dataType);\r\n        }\r\n        accessControl.patientData[_dataType] = _ipfsUri;\r\n        emit PatientDataUpdated(_dataType, _ipfsUri);\r\n    }\r\n\r\n    // Get the list of data types\r\n    function getPatientDataTypes() public view returns (string[] memory) {\r\n        return patientAccessControls[msg.sender].dataTypes;\r\n    }\r\n\r\n    // Get patient data URI\r\n    function getPatientDataUri(string memory _dataType,address patient) public view returns (string memory) {\r\n        AccessControl storage accessControl = patientAccessControls[patient];\r\n\r\n        if (accessControl.authorizedEntitiesForDataType[_dataType][msg.sender] || msg.sender == accessControl.patient){\r\n\r\n        return accessControl.patientData[_dataType];\r\n        }\r\n        return \"\";\r\n        }\r\n    // Grant access to a data type\r\n    function grantAccess(address _entity, string memory _dataType) public onlyPatient {\r\n        patientAccessControls[msg.sender].authorizedEntitiesForDataType[_dataType][_entity] = true;\r\n        emit AccessGranted(_entity, _dataType);\r\n    }\r\n\r\n    // Revoke access from a data type\r\n    function revokeAccess(address _entity, string memory _dataType) public onlyPatient {\r\n        patientAccessControls[msg.sender].authorizedEntitiesForDataType[_dataType][_entity] = false;\r\n        emit AccessRevoked(_entity, _dataType);\r\n    }\r\n\r\n    function getOrganizationsAccessForDataType(string memory _dataType) public view returns (Organization[] memory, bool[] memory) {\r\n        AccessControl storage accessControl = patientAccessControls[msg.sender];\r\n\r\n        uint orgCount = patientOrganizations[accessControl.patient].length;\r\n        Organization[] memory orgs = new Organization[](orgCount);\r\n        bool[] memory hasAccess = new bool[](orgCount);\r\n\r\n        for (uint i = 0; i < orgCount; i++) {\r\n            orgs[i] = patientOrganizations[accessControl.patient][i];\r\n            hasAccess[i] = accessControl.authorizedEntitiesForDataType[_dataType][orgs[i].orgAddress];\r\n        }\r\n\r\n        return (orgs, hasAccess);\r\n    }\r\n}\r\n",
  "sourcePath": "A:\\Sem-VII\\Research Project\\Enabling-Secure-Access-Control-of-Electronic-Health-Records-through-Smart-Contracts\\truffle\\contracts\\PatientOrgContract.sol",
  "compiler": {
    "name": "solc",
    "version": "0.8.23+commit.f704f362.Emscripten.clang"
  },
  "schemaVersion": "3.4.8",
  "updatedAt": "2023-11-14T08:22:40.324Z",
  "networkType": "ethereum",
  "devdoc": {
    "kind": "dev",
    "methods": {},
    "version": 1
  },
  "userdoc": {
    "kind": "user",
    "methods": {},
    "version": 1
  }
}