{
  "contractName": "PatientOrgContract",
  "abi": [
    {
      "anonymous": false,
      "inputs": [
        {
          "indexed": true,
          "internalType": "address",
          "name": "entity",
          "type": "address"
        },
        {
          "indexed": false,
          "internalType": "string",
          "name": "dataType",
          "type": "string"
        }
      ],
      "name": "AccessGranted",
      "type": "event"
    },
    {
      "anonymous": false,
      "inputs": [
        {
          "indexed": true,
          "internalType": "address",
          "name": "entity",
          "type": "address"
        },
        {
          "indexed": false,
          "internalType": "string",
          "name": "dataType",
          "type": "string"
        }
      ],
      "name": "AccessRevoked",
      "type": "event"
    },
    {
      "anonymous": false,
      "inputs": [
        {
          "indexed": false,
          "internalType": "address",
          "name": "patient",
          "type": "address"
        },
        {
          "indexed": false,
          "internalType": "string",
          "name": "name",
          "type": "string"
        },
        {
          "indexed": false,
          "internalType": "address",
          "name": "orgAddress",
          "type": "address"
        },
        {
          "indexed": false,
          "internalType": "string",
          "name": "role",
          "type": "string"
        }
      ],
      "name": "OrganizationAdded",
      "type": "event"
    },
    {
      "anonymous": false,
      "inputs": [
        {
          "indexed": false,
          "internalType": "string",
          "name": "dataType",
          "type": "string"
        },
        {
          "indexed": false,
          "internalType": "string",
          "name": "ipfsUri",
          "type": "string"
        }
      ],
      "name": "PatientDataUpdated",
      "type": "event"
    },
    {
      "inputs": [
        {
          "internalType": "address",
          "name": "",
          "type": "address"
        }
      ],
      "name": "patientAccessControls",
      "outputs": [
        {
          "internalType": "address",
          "name": "patient",
          "type": "address"
        }
      ],
      "stateMutability": "view",
      "type": "function",
      "constant": true
    },
    {
      "inputs": [
        {
          "internalType": "address",
          "name": "",
          "type": "address"
        },
        {
          "internalType": "uint256",
          "name": "",
          "type": "uint256"
        }
      ],
      "name": "patientOrganizations",
      "outputs": [
        {
          "internalType": "string",
          "name": "name",
          "type": "string"
        },
        {
          "internalType": "address",
          "name": "orgAddress",
          "type": "address"
        },
        {
          "internalType": "string",
          "name": "role",
          "type": "string"
        }
      ],
      "stateMutability": "view",
      "type": "function",
      "constant": true
    },
    {
      "inputs": [
        {
          "internalType": "address",
          "name": "patient",
          "type": "address"
        }
      ],
      "name": "getAllOrganizationsWithAccess",
      "outputs": [
        {
          "components": [
            {
              "internalType": "string",
              "name": "name",
              "type": "string"
            },
            {
              "internalType": "address",
              "name": "orgAddress",
              "type": "address"
            },
            {
              "components": [
                {
                  "internalType": "string",
                  "name": "dataType",
                  "type": "string"
                },
                {
                  "internalType": "bool",
                  "name": "hasAccess",
                  "type": "bool"
                }
              ],
              "internalType": "struct PatientOrgContract.DataTypeWithAccess[]",
              "name": "hasAccess",
              "type": "tuple[]"
            }
          ],
          "internalType": "struct PatientOrgContract.OrganizationWithAccess[]",
          "name": "",
          "type": "tuple[]"
        }
      ],
      "stateMutability": "view",
      "type": "function",
      "constant": true
    },
    {
      "inputs": [
        {
          "internalType": "address",
          "name": "_orgAddress",
          "type": "address"
        },
        {
          "internalType": "address",
          "name": "patient",
          "type": "address"
        }
      ],
      "name": "getAllDataTypesWithAccessForOrganization",
      "outputs": [
        {
          "components": [
            {
              "internalType": "string",
              "name": "dataType",
              "type": "string"
            },
            {
              "internalType": "bool",
              "name": "hasAccess",
              "type": "bool"
            }
          ],
          "internalType": "struct PatientOrgContract.DataTypeWithAccess[]",
          "name": "",
          "type": "tuple[]"
        }
      ],
      "stateMutability": "view",
      "type": "function",
      "constant": true
    },
    {
      "inputs": [
        {
          "internalType": "address",
          "name": "_patient",
          "type": "address"
        }
      ],
      "name": "setPatient",
      "outputs": [],
      "stateMutability": "nonpayable",
      "type": "function"
    },
    {
      "inputs": [
        {
          "internalType": "address",
          "name": "_orgAddress",
          "type": "address"
        },
        {
          "internalType": "string",
          "name": "_name",
          "type": "string"
        },
        {
          "internalType": "string",
          "name": "_role",
          "type": "string"
        }
      ],
      "name": "addOrganizationForPatient",
      "outputs": [],
      "stateMutability": "nonpayable",
      "type": "function"
    },
    {
      "inputs": [],
      "name": "getPatientOrganizations",
      "outputs": [
        {
          "components": [
            {
              "internalType": "string",
              "name": "name",
              "type": "string"
            },
            {
              "internalType": "address",
              "name": "orgAddress",
              "type": "address"
            },
            {
              "internalType": "string",
              "name": "role",
              "type": "string"
            }
          ],
          "internalType": "struct PatientOrgContract.Organization[]",
          "name": "",
          "type": "tuple[]"
        }
      ],
      "stateMutability": "view",
      "type": "function",
      "constant": true
    },
    {
      "inputs": [
        {
          "internalType": "string",
          "name": "_dataType",
          "type": "string"
        },
        {
          "internalType": "string",
          "name": "_ipfsUri",
          "type": "string"
        }
      ],
      "name": "updatePatientData",
      "outputs": [],
      "stateMutability": "nonpayable",
      "type": "function"
    },
    {
      "inputs": [],
      "name": "getPatientDataTypes",
      "outputs": [
        {
          "internalType": "string[]",
          "name": "",
          "type": "string[]"
        }
      ],
      "stateMutability": "view",
      "type": "function",
      "constant": true
    },
    {
      "inputs": [
        {
          "internalType": "string",
          "name": "_dataType",
          "type": "string"
        },
        {
          "internalType": "address",
          "name": "patient",
          "type": "address"
        },
        {
          "internalType": "address",
          "name": "sender",
          "type": "address"
        }
      ],
      "name": "getPatientDataUri",
      "outputs": [
        {
          "internalType": "string",
          "name": "",
          "type": "string"
        }
      ],
      "stateMutability": "view",
      "type": "function",
      "constant": true
    },
    {
      "inputs": [
        {
          "internalType": "address",
          "name": "_entity",
          "type": "address"
        },
        {
          "internalType": "string",
          "name": "_dataType",
          "type": "string"
        }
      ],
      "name": "grantAccess",
      "outputs": [],
      "stateMutability": "nonpayable",
      "type": "function"
    },
    {
      "inputs": [
        {
          "internalType": "address",
          "name": "_entity",
          "type": "address"
        },
        {
          "internalType": "string",
          "name": "_dataType",
          "type": "string"
        }
      ],
      "name": "revokeAccess",
      "outputs": [],
      "stateMutability": "nonpayable",
      "type": "function"
    },
    {
      "inputs": [
        {
          "internalType": "string",
          "name": "_dataType",
          "type": "string"
        }
      ],
      "name": "getOrganizationsAccessForDataType",
      "outputs": [
        {
          "components": [
            {
              "internalType": "string",
              "name": "name",
              "type": "string"
            },
            {
              "internalType": "address",
              "name": "orgAddress",
              "type": "address"
            },
            {
              "internalType": "string",
              "name": "role",
              "type": "string"
            }
          ],
          "internalType": "struct PatientOrgContract.Organization[]",
          "name": "",
          "type": "tuple[]"
        },
        {
          "internalType": "bool[]",
          "name": "",
          "type": "bool[]"
        }
      ],
      "stateMutability": "view",
      "type": "function",
      "constant": true
    }
  ],
  "bytecode": "0x6080604052348015600e575f80fd5b50612daf8061001c5f395ff3fe608060405234801561000f575f80fd5b50600436106100cd575f3560e01c80639822ff8d1161008a578063d9b1d70e11610064578063d9b1d70e14610234578063df63747f14610252578063e50fe48e14610270578063ea6729891461028c576100cd565b80639822ff8d146101a25780639bf32ec8146101d2578063c1a2b94e14610202576100cd565b806308b795b1146100d15780631164ee4d1461010157806324a586601461013257806350eeed4f1461014e5780636a44cac91461016a578063723f8ab514610186575b5f80fd5b6100eb60048036038101906100e69190611df4565b6102bc565b6040516100f89190611e2e565b60405180910390f35b61011b60048036038101906101169190611f83565b6102f4565b60405161012992919061220a565b60405180910390f35b61014c6004803603810190610147919061223f565b61072b565b005b61016860048036038101906101639190611df4565b61083e565b005b610184600480360381019061017f91906122b5565b6108bd565b005b6101a0600480360381019061019b919061230f565b610a87565b005b6101bc60048036038101906101b79190611df4565b610d59565b6040516101c9919061259b565b60405180910390f35b6101ec60048036038101906101e791906125bb565b6110dd565b6040516101f9919061267c565b60405180910390f35b61021c600480360381019061021791906126cf565b6113b9565b60405161022b93929190612755565b60405180910390f35b61023c611524565b6040516102499190612798565b60405180910390f35b61025a611857565b6040516102679190612873565b60405180910390f35b61028a600480360381019061028591906122b5565b611968565b005b6102a660048036038101906102a19190612893565b611b33565b6040516102b391906128ff565b60405180910390f35b5f602052805f5260405f205f91509050805f015f9054906101000a900473ffffffffffffffffffffffffffffffffffffffff16905081565b6060805f805f3373ffffffffffffffffffffffffffffffffffffffff1673ffffffffffffffffffffffffffffffffffffffff1681526020019081526020015f2090505f60015f835f015f9054906101000a900473ffffffffffffffffffffffffffffffffffffffff1673ffffffffffffffffffffffffffffffffffffffff1673ffffffffffffffffffffffffffffffffffffffff1681526020019081526020015f208054905090505f8167ffffffffffffffff8111156103b7576103b6611e5f565b5b6040519080825280602002602001820160405280156103f057816020015b6103dd611d02565b8152602001906001900390816103d55790505b5090505f8267ffffffffffffffff81111561040e5761040d611e5f565b5b60405190808252806020026020018201604052801561043c5781602001602082028036833780820191505090505b5090505f5b8381101561071b5760015f865f015f9054906101000a900473ffffffffffffffffffffffffffffffffffffffff1673ffffffffffffffffffffffffffffffffffffffff1673ffffffffffffffffffffffffffffffffffffffff1681526020019081526020015f2081815481106104ba576104b961291f565b5b905f5260205f2090600302016040518060600160405290815f820180546104e090612979565b80601f016020809104026020016040519081016040528092919081815260200182805461050c90612979565b80156105575780601f1061052e57610100808354040283529160200191610557565b820191905f5260205f20905b81548152906001019060200180831161053a57829003601f168201915b50505050508152602001600182015f9054906101000a900473ffffffffffffffffffffffffffffffffffffffff1673ffffffffffffffffffffffffffffffffffffffff1673ffffffffffffffffffffffffffffffffffffffff1681526020016002820180546105c590612979565b80601f01602080910402602001604051908101604052809291908181526020018280546105f190612979565b801561063c5780601f106106135761010080835404028352916020019161063c565b820191905f5260205f20905b81548152906001019060200180831161061f57829003601f168201915b5050505050815250508382815181106106585761065761291f565b5b6020026020010181905250846002018860405161067591906129e3565b90815260200160405180910390205f8483815181106106975761069661291f565b5b60200260200101516020015173ffffffffffffffffffffffffffffffffffffffff1673ffffffffffffffffffffffffffffffffffffffff1681526020019081526020015f205f9054906101000a900460ff168282815181106106fc576106fb61291f565b5b6020026020010190151590811515815250508080600101915050610441565b5081819550955050505050915091565b5f805f3373ffffffffffffffffffffffffffffffffffffffff1673ffffffffffffffffffffffffffffffffffffffff1681526020019081526020015f2090505f816003018460405161077d91906129e3565b9081526020016040518091039020805461079690612979565b9050036107d2578060040183908060018154018082558091505060019003905f5260205f20015f9091909190915090816107d09190612b96565b505b8181600301846040516107e591906129e3565b908152602001604051809103902090816107ff9190612b96565b507ff003290f29262794ffea7a9da5f0e2d45291d0bf3cf968cadeaf7ca35b2df2158383604051610831929190612c65565b60405180910390a1505050565b805f808373ffffffffffffffffffffffffffffffffffffffff1673ffffffffffffffffffffffffffffffffffffffff1681526020019081526020015f205f015f6101000a81548173ffffffffffffffffffffffffffffffffffffffff021916908373ffffffffffffffffffffffffffffffffffffffff16021790555050565b5f803373ffffffffffffffffffffffffffffffffffffffff1673ffffffffffffffffffffffffffffffffffffffff1681526020019081526020015f205f015f9054906101000a900473ffffffffffffffffffffffffffffffffffffffff1673ffffffffffffffffffffffffffffffffffffffff163373ffffffffffffffffffffffffffffffffffffffff1614610988576040517f08c379a000000000000000000000000000000000000000000000000000000000815260040161097f90612d0a565b60405180910390fd5b5f805f3373ffffffffffffffffffffffffffffffffffffffff1673ffffffffffffffffffffffffffffffffffffffff1681526020019081526020015f20600201826040516109d691906129e3565b90815260200160405180910390205f8473ffffffffffffffffffffffffffffffffffffffff1673ffffffffffffffffffffffffffffffffffffffff1681526020019081526020015f205f6101000a81548160ff0219169083151502179055508173ffffffffffffffffffffffffffffffffffffffff167f51cbcaaca6ae26944c6280c966a07b04ca5c6766d82ca497ded152579431468d82604051610a7b91906128ff565b60405180910390a25050565b5f803373ffffffffffffffffffffffffffffffffffffffff1673ffffffffffffffffffffffffffffffffffffffff1681526020019081526020015f205f015f9054906101000a900473ffffffffffffffffffffffffffffffffffffffff1673ffffffffffffffffffffffffffffffffffffffff163373ffffffffffffffffffffffffffffffffffffffff1614610b52576040517f08c379a0000000000000000000000000000000000000000000000000000000008152600401610b4990612d0a565b60405180910390fd5b5f60405180606001604052808481526020018573ffffffffffffffffffffffffffffffffffffffff16815260200183815250905060015f805f3373ffffffffffffffffffffffffffffffffffffffff1673ffffffffffffffffffffffffffffffffffffffff1681526020019081526020015f205f015f9054906101000a900473ffffffffffffffffffffffffffffffffffffffff1673ffffffffffffffffffffffffffffffffffffffff1673ffffffffffffffffffffffffffffffffffffffff1681526020019081526020015f2081908060018154018082558091505060019003905f5260205f2090600302015f909190919091505f820151815f019081610c5a9190612b96565b506020820151816001015f6101000a81548173ffffffffffffffffffffffffffffffffffffffff021916908373ffffffffffffffffffffffffffffffffffffffff1602179055506040820151816002019081610cb69190612b96565b5050507fcae71f98f8d9f298b947f99845d4ca2edd3f25f6582cd2fb82755bdd5be7d6925f803373ffffffffffffffffffffffffffffffffffffffff1673ffffffffffffffffffffffffffffffffffffffff1681526020019081526020015f205f015f9054906101000a900473ffffffffffffffffffffffffffffffffffffffff16848685604051610d4b9493929190612d28565b60405180910390a150505050565b60605f805f8473ffffffffffffffffffffffffffffffffffffffff1673ffffffffffffffffffffffffffffffffffffffff1681526020019081526020015f2090505f60015f835f015f9054906101000a900473ffffffffffffffffffffffffffffffffffffffff1673ffffffffffffffffffffffffffffffffffffffff1673ffffffffffffffffffffffffffffffffffffffff1681526020019081526020015f208054905090505f8167ffffffffffffffff811115610e1b57610e1a611e5f565b5b604051908082528060200260200182016040528015610e5457816020015b610e41611d38565b815260200190600190039081610e395790505b5090505f5b828110156110d1575f60015f865f015f9054906101000a900473ffffffffffffffffffffffffffffffffffffffff1673ffffffffffffffffffffffffffffffffffffffff1673ffffffffffffffffffffffffffffffffffffffff1681526020019081526020015f208281548110610ed357610ed261291f565b5b905f5260205f2090600302016040518060600160405290815f82018054610ef990612979565b80601f0160208091040260200160405190810160405280929190818152602001828054610f2590612979565b8015610f705780601f10610f4757610100808354040283529160200191610f70565b820191905f5260205f20905b815481529060010190602001808311610f5357829003601f168201915b50505050508152602001600182015f9054906101000a900473ffffffffffffffffffffffffffffffffffffffff1673ffffffffffffffffffffffffffffffffffffffff1673ffffffffffffffffffffffffffffffffffffffff168152602001600282018054610fde90612979565b80601f016020809104026020016040519081016040528092919081815260200182805461100a90612979565b80156110555780601f1061102c57610100808354040283529160200191611055565b820191905f5260205f20905b81548152906001019060200180831161103857829003601f168201915b50505050508152505090506040518060600160405280825f01518152602001826020015173ffffffffffffffffffffffffffffffffffffffff1681526020016110a283602001518a6110dd565b8152508383815181106110b8576110b761291f565b5b6020026020010181905250508080600101915050610e59565b50809350505050919050565b60605f803373ffffffffffffffffffffffffffffffffffffffff1673ffffffffffffffffffffffffffffffffffffffff1681526020019081526020015f205f015f9054906101000a900473ffffffffffffffffffffffffffffffffffffffff1673ffffffffffffffffffffffffffffffffffffffff163373ffffffffffffffffffffffffffffffffffffffff16146111aa576040517f08c379a00000000000000000000000000000000000000000000000000000000081526004016111a190612d0a565b60405180910390fd5b5f805f8473ffffffffffffffffffffffffffffffffffffffff1673ffffffffffffffffffffffffffffffffffffffff1681526020019081526020015f2090505f816004018054905090505f8167ffffffffffffffff81111561120f5761120e611e5f565b5b60405190808252806020026020018201604052801561124857816020015b611235611d6e565b81526020019060019003908161122d5790505b5090505f5b828110156113ac575f84600401828154811061126c5761126b61291f565b5b905f5260205f2001805461127f90612979565b80601f01602080910402602001604051908101604052809291908181526020018280546112ab90612979565b80156112f65780601f106112cd576101008083540402835291602001916112f6565b820191905f5260205f20905b8154815290600101906020018083116112d957829003601f168201915b505050505090505f856002018260405161131091906129e3565b90815260200160405180910390205f8a73ffffffffffffffffffffffffffffffffffffffff1673ffffffffffffffffffffffffffffffffffffffff1681526020019081526020015f205f9054906101000a900460ff16905060405180604001604052808381526020018215158152508484815181106113925761139161291f565b5b60200260200101819052505050808060010191505061124d565b5080935050505092915050565b6001602052815f5260405f2081815481106113d2575f80fd5b905f5260205f2090600302015f9150915050805f0180546113f290612979565b80601f016020809104026020016040519081016040528092919081815260200182805461141e90612979565b80156114695780601f1061144057610100808354040283529160200191611469565b820191905f5260205f20905b81548152906001019060200180831161144c57829003601f168201915b505050505090806001015f9054906101000a900473ffffffffffffffffffffffffffffffffffffffff16908060020180546114a390612979565b80601f01602080910402602001604051908101604052809291908181526020018280546114cf90612979565b801561151a5780601f106114f15761010080835404028352916020019161151a565b820191905f5260205f20905b8154815290600101906020018083116114fd57829003601f168201915b5050505050905083565b60605f803373ffffffffffffffffffffffffffffffffffffffff1673ffffffffffffffffffffffffffffffffffffffff1681526020019081526020015f205f015f9054906101000a900473ffffffffffffffffffffffffffffffffffffffff1673ffffffffffffffffffffffffffffffffffffffff163373ffffffffffffffffffffffffffffffffffffffff16146115f1576040517f08c379a00000000000000000000000000000000000000000000000000000000081526004016115e890612d0a565b60405180910390fd5b60015f805f3373ffffffffffffffffffffffffffffffffffffffff1673ffffffffffffffffffffffffffffffffffffffff1681526020019081526020015f205f015f9054906101000a900473ffffffffffffffffffffffffffffffffffffffff1673ffffffffffffffffffffffffffffffffffffffff1673ffffffffffffffffffffffffffffffffffffffff1681526020019081526020015f20805480602002602001604051908101604052809291908181526020015f905b8282101561184e578382905f5260205f2090600302016040518060600160405290815f820180546116da90612979565b80601f016020809104026020016040519081016040528092919081815260200182805461170690612979565b80156117515780601f1061172857610100808354040283529160200191611751565b820191905f5260205f20905b81548152906001019060200180831161173457829003601f168201915b50505050508152602001600182015f9054906101000a900473ffffffffffffffffffffffffffffffffffffffff1673ffffffffffffffffffffffffffffffffffffffff1673ffffffffffffffffffffffffffffffffffffffff1681526020016002820180546117bf90612979565b80601f01602080910402602001604051908101604052809291908181526020018280546117eb90612979565b80156118365780601f1061180d57610100808354040283529160200191611836565b820191905f5260205f20905b81548152906001019060200180831161181957829003601f168201915b505050505081525050815260200190600101906116aa565b50505050905090565b60605f803373ffffffffffffffffffffffffffffffffffffffff1673ffffffffffffffffffffffffffffffffffffffff1681526020019081526020015f20600401805480602002602001604051908101604052809291908181526020015f905b8282101561195f578382905f5260205f200180546118d490612979565b80601f016020809104026020016040519081016040528092919081815260200182805461190090612979565b801561194b5780601f106119225761010080835404028352916020019161194b565b820191905f5260205f20905b81548152906001019060200180831161192e57829003601f168201915b5050505050815260200190600101906118b7565b50505050905090565b5f803373ffffffffffffffffffffffffffffffffffffffff1673ffffffffffffffffffffffffffffffffffffffff1681526020019081526020015f205f015f9054906101000a900473ffffffffffffffffffffffffffffffffffffffff1673ffffffffffffffffffffffffffffffffffffffff163373ffffffffffffffffffffffffffffffffffffffff1614611a33576040517f08c379a0000000000000000000000000000000000000000000000000000000008152600401611a2a90612d0a565b60405180910390fd5b60015f803373ffffffffffffffffffffffffffffffffffffffff1673ffffffffffffffffffffffffffffffffffffffff1681526020019081526020015f2060020182604051611a8291906129e3565b90815260200160405180910390205f8473ffffffffffffffffffffffffffffffffffffffff1673ffffffffffffffffffffffffffffffffffffffff1681526020019081526020015f205f6101000a81548160ff0219169083151502179055508173ffffffffffffffffffffffffffffffffffffffff167f883d542f167dfc5f47e8bf1532c171025ed0e4c59c1126c7f61749fa21976a4582604051611b2791906128ff565b60405180910390a25050565b60605f805f8573ffffffffffffffffffffffffffffffffffffffff1673ffffffffffffffffffffffffffffffffffffffff1681526020019081526020015f2090508060020185604051611b8691906129e3565b90815260200160405180910390205f8473ffffffffffffffffffffffffffffffffffffffff1673ffffffffffffffffffffffffffffffffffffffff1681526020019081526020015f205f9054906101000a900460ff1680611c345750805f015f9054906101000a900473ffffffffffffffffffffffffffffffffffffffff1673ffffffffffffffffffffffffffffffffffffffff168373ffffffffffffffffffffffffffffffffffffffff16145b15611ce8578060030185604051611c4b91906129e3565b90815260200160405180910390208054611c6490612979565b80601f0160208091040260200160405190810160405280929190818152602001828054611c9090612979565b8015611cdb5780601f10611cb257610100808354040283529160200191611cdb565b820191905f5260205f20905b815481529060010190602001808311611cbe57829003601f168201915b5050505050915050611cfb565b60405180602001604052805f8152509150505b9392505050565b6040518060600160405280606081526020015f73ffffffffffffffffffffffffffffffffffffffff168152602001606081525090565b6040518060600160405280606081526020015f73ffffffffffffffffffffffffffffffffffffffff168152602001606081525090565b6040518060400160405280606081526020015f151581525090565b5f604051905090565b5f80fd5b5f80fd5b5f73ffffffffffffffffffffffffffffffffffffffff82169050919050565b5f611dc382611d9a565b9050919050565b611dd381611db9565b8114611ddd575f80fd5b50565b5f81359050611dee81611dca565b92915050565b5f60208284031215611e0957611e08611d92565b5b5f611e1684828501611de0565b91505092915050565b611e2881611db9565b82525050565b5f602082019050611e415f830184611e1f565b92915050565b5f80fd5b5f80fd5b5f601f19601f8301169050919050565b7f4e487b71000000000000000000000000000000000000000000000000000000005f52604160045260245ffd5b611e9582611e4f565b810181811067ffffffffffffffff82111715611eb457611eb3611e5f565b5b80604052505050565b5f611ec6611d89565b9050611ed28282611e8c565b919050565b5f67ffffffffffffffff821115611ef157611ef0611e5f565b5b611efa82611e4f565b9050602081019050919050565b828183375f83830152505050565b5f611f27611f2284611ed7565b611ebd565b905082815260208101848484011115611f4357611f42611e4b565b5b611f4e848285611f07565b509392505050565b5f82601f830112611f6a57611f69611e47565b5b8135611f7a848260208601611f15565b91505092915050565b5f60208284031215611f9857611f97611d92565b5b5f82013567ffffffffffffffff811115611fb557611fb4611d96565b5b611fc184828501611f56565b91505092915050565b5f81519050919050565b5f82825260208201905092915050565b5f819050602082019050919050565b5f81519050919050565b5f82825260208201905092915050565b8281835e5f83830152505050565b5f61202582611ff3565b61202f8185611ffd565b935061203f81856020860161200d565b61204881611e4f565b840191505092915050565b61205c81611db9565b82525050565b5f606083015f8301518482035f86015261207c828261201b565b91505060208301516120916020860182612053565b50604083015184820360408601526120a9828261201b565b9150508091505092915050565b5f6120c18383612062565b905092915050565b5f602082019050919050565b5f6120df82611fca565b6120e98185611fd4565b9350836020820285016120fb85611fe4565b805f5b85811015612136578484038952815161211785826120b6565b9450612122836120c9565b925060208a019950506001810190506120fe565b50829750879550505050505092915050565b5f81519050919050565b5f82825260208201905092915050565b5f819050602082019050919050565b5f8115159050919050565b61218581612171565b82525050565b5f612196838361217c565b60208301905092915050565b5f602082019050919050565b5f6121b882612148565b6121c28185612152565b93506121cd83612162565b805f5b838110156121fd5781516121e4888261218b565b97506121ef836121a2565b9250506001810190506121d0565b5085935050505092915050565b5f6040820190508181035f83015261222281856120d5565b9050818103602083015261223681846121ae565b90509392505050565b5f806040838503121561225557612254611d92565b5b5f83013567ffffffffffffffff81111561227257612271611d96565b5b61227e85828601611f56565b925050602083013567ffffffffffffffff81111561229f5761229e611d96565b5b6122ab85828601611f56565b9150509250929050565b5f80604083850312156122cb576122ca611d92565b5b5f6122d885828601611de0565b925050602083013567ffffffffffffffff8111156122f9576122f8611d96565b5b61230585828601611f56565b9150509250929050565b5f805f6060848603121561232657612325611d92565b5b5f61233386828701611de0565b935050602084013567ffffffffffffffff81111561235457612353611d96565b5b61236086828701611f56565b925050604084013567ffffffffffffffff81111561238157612380611d96565b5b61238d86828701611f56565b9150509250925092565b5f81519050919050565b5f82825260208201905092915050565b5f819050602082019050919050565b5f81519050919050565b5f82825260208201905092915050565b5f819050602082019050919050565b5f604083015f8301518482035f860152612403828261201b565b9150506020830151612418602086018261217c565b508091505092915050565b5f61242e83836123e9565b905092915050565b5f602082019050919050565b5f61244c826123c0565b61245681856123ca565b935083602082028501612468856123da565b805f5b858110156124a357848403895281516124848582612423565b945061248f83612436565b925060208a0199505060018101905061246b565b50829750879550505050505092915050565b5f606083015f8301518482035f8601526124cf828261201b565b91505060208301516124e46020860182612053565b50604083015184820360408601526124fc8282612442565b9150508091505092915050565b5f61251483836124b5565b905092915050565b5f602082019050919050565b5f61253282612397565b61253c81856123a1565b93508360208202850161254e856123b1565b805f5b85811015612589578484038952815161256a8582612509565b94506125758361251c565b925060208a01995050600181019050612551565b50829750879550505050505092915050565b5f6020820190508181035f8301526125b38184612528565b905092915050565b5f80604083850312156125d1576125d0611d92565b5b5f6125de85828601611de0565b92505060206125ef85828601611de0565b9150509250929050565b5f82825260208201905092915050565b5f612613826123c0565b61261d81856125f9565b93508360208202850161262f856123da565b805f5b8581101561266a578484038952815161264b8582612423565b945061265683612436565b925060208a01995050600181019050612632565b50829750879550505050505092915050565b5f6020820190508181035f8301526126948184612609565b905092915050565b5f819050919050565b6126ae8161269c565b81146126b8575f80fd5b50565b5f813590506126c9816126a5565b92915050565b5f80604083850312156126e5576126e4611d92565b5b5f6126f285828601611de0565b9250506020612703858286016126bb565b9150509250929050565b5f82825260208201905092915050565b5f61272782611ff3565b612731818561270d565b935061274181856020860161200d565b61274a81611e4f565b840191505092915050565b5f6060820190508181035f83015261276d818661271d565b905061277c6020830185611e1f565b818103604083015261278e818461271d565b9050949350505050565b5f6020820190508181035f8301526127b081846120d5565b905092915050565b5f81519050919050565b5f82825260208201905092915050565b5f819050602082019050919050565b5f6127ec838361201b565b905092915050565b5f602082019050919050565b5f61280a826127b8565b61281481856127c2565b935083602082028501612826856127d2565b805f5b85811015612861578484038952815161284285826127e1565b945061284d836127f4565b925060208a01995050600181019050612829565b50829750879550505050505092915050565b5f6020820190508181035f83015261288b8184612800565b905092915050565b5f805f606084860312156128aa576128a9611d92565b5b5f84013567ffffffffffffffff8111156128c7576128c6611d96565b5b6128d386828701611f56565b93505060206128e486828701611de0565b92505060406128f586828701611de0565b9150509250925092565b5f6020820190508181035f830152612917818461271d565b905092915050565b7f4e487b71000000000000000000000000000000000000000000000000000000005f52603260045260245ffd5b7f4e487b71000000000000000000000000000000000000000000000000000000005f52602260045260245ffd5b5f600282049050600182168061299057607f821691505b6020821081036129a3576129a261294c565b5b50919050565b5f81905092915050565b5f6129bd82611ff3565b6129c781856129a9565b93506129d781856020860161200d565b80840191505092915050565b5f6129ee82846129b3565b915081905092915050565b5f819050815f5260205f209050919050565b5f6020601f8301049050919050565b5f82821b905092915050565b5f60088302612a557fffffffffffffffffffffffffffffffffffffffffffffffffffffffffffffffff82612a1a565b612a5f8683612a1a565b95508019841693508086168417925050509392505050565b5f819050919050565b5f612a9a612a95612a908461269c565b612a77565b61269c565b9050919050565b5f819050919050565b612ab383612a80565b612ac7612abf82612aa1565b848454612a26565b825550505050565b5f90565b612adb612acf565b612ae6818484612aaa565b505050565b5b81811015612b0957612afe5f82612ad3565b600181019050612aec565b5050565b601f821115612b4e57612b1f816129f9565b612b2884612a0b565b81016020851015612b37578190505b612b4b612b4385612a0b565b830182612aeb565b50505b505050565b5f82821c905092915050565b5f612b6e5f1984600802612b53565b1980831691505092915050565b5f612b868383612b5f565b9150826002028217905092915050565b612b9f82611ff3565b67ffffffffffffffff811115612bb857612bb7611e5f565b5b612bc28254612979565b612bcd828285612b0d565b5f60209050601f831160018114612bfe575f8415612bec578287015190505b612bf68582612b7b565b865550612c5d565b601f198416612c0c866129f9565b5f5b82811015612c3357848901518255600182019150602085019450602081019050612c0e565b86831015612c505784890151612c4c601f891682612b5f565b8355505b6001600288020188555050505b505050505050565b5f6040820190508181035f830152612c7d818561271d565b90508181036020830152612c91818461271d565b90509392505050565b7f4f6e6c79207468652070617469656e742063616e20706572666f726d207468695f8201527f7320616374696f6e000000000000000000000000000000000000000000000000602082015250565b5f612cf460288361270d565b9150612cff82612c9a565b604082019050919050565b5f6020820190508181035f830152612d2181612ce8565b9050919050565b5f608082019050612d3b5f830187611e1f565b8181036020830152612d4d818661271d565b9050612d5c6040830185611e1f565b8181036060830152612d6e818461271d565b90509594505050505056fea2646970667358221220117c2159e45ccecb823da709278dd0980a31b00497d8d65c01932cea8e84df9964736f6c63430008190033",
  "immutableReferences": {},
  "source": "// SPDX-License-Identifier: MIT\r\npragma solidity ^0.8.7;\r\n\r\ncontract PatientOrgContract {\r\n    struct Organization {\r\n        string name;\r\n        address orgAddress;\r\n        string role;\r\n    }\r\n\r\n    struct AccessControl {\r\n        address patient;\r\n        mapping(address => bool) authorizedEntities;\r\n        mapping(string => mapping(address => bool)) authorizedEntitiesForDataType;\r\n        mapping(string => string) patientData;\r\n        string[] dataTypes;\r\n    }\r\n    struct OrganizationWithAccess {\r\n        string name;\r\n        address orgAddress;\r\n        DataTypeWithAccess[] hasAccess;\r\n    }\r\n\r\n    mapping(address => AccessControl) public patientAccessControls; // Mapping to store AccessControl for each patient\r\n    mapping(address => Organization[]) public patientOrganizations; // Stores multiple organizations for each patient\r\n\r\n    // Get all organizations and their access for a patient\r\n    function getAllOrganizationsWithAccess(address patient) public view returns (OrganizationWithAccess[] memory) {\r\n        AccessControl storage accessControl = patientAccessControls[patient];\r\n\r\n        uint orgCount = patientOrganizations[accessControl.patient].length;\r\n        OrganizationWithAccess[] memory orgsWithAccess = new OrganizationWithAccess[](orgCount);\r\n\r\n        for (uint i = 0; i < orgCount; i++) {\r\n            Organization memory org = patientOrganizations[accessControl.patient][i];\r\n            orgsWithAccess[i] = OrganizationWithAccess({\r\n                name: org.name,\r\n                orgAddress: org.orgAddress,\r\n                hasAccess: getAllDataTypesWithAccessForOrganization(org.orgAddress,patient)\r\n            });\r\n        }\r\n\r\n        return orgsWithAccess;\r\n    }\r\n\r\n        function getAllDataTypesWithAccessForOrganization(address _orgAddress,address patient) public view onlyPatient returns (DataTypeWithAccess[] memory) {\r\n        AccessControl storage accessControl = patientAccessControls[patient];\r\n\r\n        uint dataTypeCount = accessControl.dataTypes.length;\r\n        DataTypeWithAccess[] memory dataTypesWithAccess = new DataTypeWithAccess[](dataTypeCount);\r\n\r\n        for (uint i = 0; i < dataTypeCount; i++) {\r\n            string memory dataType = accessControl.dataTypes[i];\r\n            bool hasAccess = accessControl.authorizedEntitiesForDataType[dataType][_orgAddress];\r\n\r\n            dataTypesWithAccess[i] = DataTypeWithAccess({\r\n                dataType: dataType,\r\n                hasAccess: hasAccess\r\n            });\r\n        }\r\n\r\n        return dataTypesWithAccess;\r\n    }\r\n\r\n    // Helper struct to store data type details along with access status\r\n    struct DataTypeWithAccess {\r\n        string dataType;\r\n        bool hasAccess;\r\n    }\r\n    // Events\r\n    event AccessGranted(address indexed entity, string dataType);\r\n    event AccessRevoked(address indexed entity, string dataType);\r\n    event PatientDataUpdated(string dataType, string ipfsUri);\r\n    event OrganizationAdded(address patient, string name, address orgAddress, string role);\r\n\r\n    // Set patient access control\r\n    function setPatient(address _patient) public {\r\n        patientAccessControls[_patient].patient = _patient;\r\n    }\r\n\r\n    modifier onlyPatient() {\r\n        require(msg.sender == patientAccessControls[msg.sender].patient, \"Only the patient can perform this action\");\r\n        _;\r\n    }\r\n\r\n    // Add an organization for the patient\r\n    function addOrganizationForPatient(address _orgAddress, string memory _name, string memory _role) public onlyPatient {\r\n        Organization memory newOrg = Organization(_name, _orgAddress, _role);\r\n        patientOrganizations[patientAccessControls[msg.sender].patient].push(newOrg);\r\n        emit OrganizationAdded(patientAccessControls[msg.sender].patient, _name, _orgAddress, _role);\r\n    }\r\n\r\n    // Get all organizations for a patient\r\n    function getPatientOrganizations() public view onlyPatient returns (Organization[] memory) {\r\n        return patientOrganizations[patientAccessControls[msg.sender].patient];\r\n    }\r\n\r\n    // Update patient data\r\n    function updatePatientData(string memory _dataType, string memory _ipfsUri) public {\r\n        AccessControl storage accessControl = patientAccessControls[msg.sender];\r\n\r\n        if (bytes(accessControl.patientData[_dataType]).length == 0) {\r\n            accessControl.dataTypes.push(_dataType);\r\n        }\r\n        accessControl.patientData[_dataType] = _ipfsUri;\r\n        emit PatientDataUpdated(_dataType, _ipfsUri);\r\n    }\r\n\r\n    // Get the list of data types\r\n    function getPatientDataTypes() public view returns (string[] memory) {\r\n        return patientAccessControls[msg.sender].dataTypes;\r\n    }\r\n\r\n    // Get patient data URI\r\n    function getPatientDataUri(string memory _dataType,address patient,address sender) public view returns (string memory) {\r\n        AccessControl storage accessControl = patientAccessControls[patient];\r\n\r\n        if (accessControl.authorizedEntitiesForDataType[_dataType][sender] || sender == accessControl.patient){\r\n\r\n        return accessControl.patientData[_dataType];\r\n        }\r\n        return \"\";\r\n    }\r\n    // Grant access to a data type\r\n    function grantAccess(address _entity, string memory _dataType) public onlyPatient {\r\n        patientAccessControls[msg.sender].authorizedEntitiesForDataType[_dataType][_entity] = true;\r\n        emit AccessGranted(_entity, _dataType);\r\n    }\r\n\r\n    // Revoke access from a data type\r\n    function revokeAccess(address _entity, string memory _dataType) public onlyPatient {\r\n        patientAccessControls[msg.sender].authorizedEntitiesForDataType[_dataType][_entity] = false;\r\n        emit AccessRevoked(_entity, _dataType);\r\n    }\r\n\r\n    function getOrganizationsAccessForDataType(string memory _dataType) public view returns (Organization[] memory, bool[] memory) {\r\n        AccessControl storage accessControl = patientAccessControls[msg.sender];\r\n\r\n        uint orgCount = patientOrganizations[accessControl.patient].length;\r\n        Organization[] memory orgs = new Organization[](orgCount);\r\n        bool[] memory hasAccess = new bool[](orgCount);\r\n\r\n        for (uint i = 0; i < orgCount; i++) {\r\n            orgs[i] = patientOrganizations[accessControl.patient][i];\r\n            hasAccess[i] = accessControl.authorizedEntitiesForDataType[_dataType][orgs[i].orgAddress];\r\n        }\r\n\r\n        return (orgs, hasAccess);\r\n    }\r\n}\r\n",
  "sourcePath": "A:\\Sem-VII\\Research Project\\Enabling-Secure-Access-Control-of-Electronic-Health-Records-through-Smart-Contracts\\truffle\\contracts\\PatientOrgContract.sol",
  "compiler": {
    "name": "solc",
    "version": "0.8.25+commit.b61c2a91.Emscripten.clang"
  },
  "schemaVersion": "3.4.8",
  "updatedAt": "2024-05-07T18:22:53.405Z",
  "networkType": "ethereum",
  "devdoc": {
    "kind": "dev",
    "methods": {},
    "version": 1
  },
  "userdoc": {
    "kind": "user",
    "methods": {},
    "version": 1
  }
}