{
  "contractName": "PatientOrgContract",
  "abi": [
    {
      "anonymous": false,
      "inputs": [
        {
          "indexed": true,
          "internalType": "address",
          "name": "entity",
          "type": "address"
        },
        {
          "indexed": false,
          "internalType": "string",
          "name": "dataType",
          "type": "string"
        }
      ],
      "name": "AccessGranted",
      "type": "event"
    },
    {
      "anonymous": false,
      "inputs": [
        {
          "indexed": true,
          "internalType": "address",
          "name": "entity",
          "type": "address"
        },
        {
          "indexed": false,
          "internalType": "string",
          "name": "dataType",
          "type": "string"
        }
      ],
      "name": "AccessRevoked",
      "type": "event"
    },
    {
      "anonymous": false,
      "inputs": [
        {
          "indexed": false,
          "internalType": "address",
          "name": "patient",
          "type": "address"
        },
        {
          "indexed": false,
          "internalType": "string",
          "name": "name",
          "type": "string"
        },
        {
          "indexed": false,
          "internalType": "address",
          "name": "orgAddress",
          "type": "address"
        },
        {
          "indexed": false,
          "internalType": "string",
          "name": "role",
          "type": "string"
        }
      ],
      "name": "OrganizationAdded",
      "type": "event"
    },
    {
      "anonymous": false,
      "inputs": [
        {
          "indexed": false,
          "internalType": "string",
          "name": "dataType",
          "type": "string"
        },
        {
          "indexed": false,
          "internalType": "string",
          "name": "ipfsUri",
          "type": "string"
        }
      ],
      "name": "PatientDataUpdated",
      "type": "event"
    },
    {
      "inputs": [
        {
          "internalType": "address",
          "name": "",
          "type": "address"
        }
      ],
      "name": "patientAccessControls",
      "outputs": [
        {
          "internalType": "address",
          "name": "patient",
          "type": "address"
        }
      ],
      "stateMutability": "view",
      "type": "function",
      "constant": true
    },
    {
      "inputs": [
        {
          "internalType": "address",
          "name": "",
          "type": "address"
        },
        {
          "internalType": "uint256",
          "name": "",
          "type": "uint256"
        }
      ],
      "name": "patientOrganizations",
      "outputs": [
        {
          "internalType": "string",
          "name": "name",
          "type": "string"
        },
        {
          "internalType": "address",
          "name": "orgAddress",
          "type": "address"
        },
        {
          "internalType": "string",
          "name": "role",
          "type": "string"
        }
      ],
      "stateMutability": "view",
      "type": "function",
      "constant": true
    },
    {
      "inputs": [
        {
          "internalType": "address",
          "name": "patient",
          "type": "address"
        }
      ],
      "name": "getAllOrganizationsWithAccess",
      "outputs": [
        {
          "components": [
            {
              "internalType": "string",
              "name": "name",
              "type": "string"
            },
            {
              "internalType": "address",
              "name": "orgAddress",
              "type": "address"
            },
            {
              "components": [
                {
                  "internalType": "string",
                  "name": "dataType",
                  "type": "string"
                },
                {
                  "internalType": "bool",
                  "name": "hasAccess",
                  "type": "bool"
                }
              ],
              "internalType": "struct PatientOrgContract.DataTypeWithAccess[]",
              "name": "hasAccess",
              "type": "tuple[]"
            }
          ],
          "internalType": "struct PatientOrgContract.OrganizationWithAccess[]",
          "name": "",
          "type": "tuple[]"
        }
      ],
      "stateMutability": "view",
      "type": "function",
      "constant": true
    },
    {
      "inputs": [
        {
          "internalType": "address",
          "name": "_orgAddress",
          "type": "address"
        }
      ],
      "name": "getAllDataTypesWithAccessForOrganization",
      "outputs": [
        {
          "components": [
            {
              "internalType": "string",
              "name": "dataType",
              "type": "string"
            },
            {
              "internalType": "bool",
              "name": "hasAccess",
              "type": "bool"
            }
          ],
          "internalType": "struct PatientOrgContract.DataTypeWithAccess[]",
          "name": "",
          "type": "tuple[]"
        }
      ],
      "stateMutability": "view",
      "type": "function",
      "constant": true
    },
    {
      "inputs": [
        {
          "internalType": "address",
          "name": "_patient",
          "type": "address"
        }
      ],
      "name": "setPatient",
      "outputs": [],
      "stateMutability": "nonpayable",
      "type": "function"
    },
    {
      "inputs": [
        {
          "internalType": "address",
          "name": "_orgAddress",
          "type": "address"
        },
        {
          "internalType": "string",
          "name": "_name",
          "type": "string"
        },
        {
          "internalType": "string",
          "name": "_role",
          "type": "string"
        }
      ],
      "name": "addOrganizationForPatient",
      "outputs": [],
      "stateMutability": "nonpayable",
      "type": "function"
    },
    {
      "inputs": [],
      "name": "getPatientOrganizations",
      "outputs": [
        {
          "components": [
            {
              "internalType": "string",
              "name": "name",
              "type": "string"
            },
            {
              "internalType": "address",
              "name": "orgAddress",
              "type": "address"
            },
            {
              "internalType": "string",
              "name": "role",
              "type": "string"
            }
          ],
          "internalType": "struct PatientOrgContract.Organization[]",
          "name": "",
          "type": "tuple[]"
        }
      ],
      "stateMutability": "view",
      "type": "function",
      "constant": true
    },
    {
      "inputs": [
        {
          "internalType": "string",
          "name": "_dataType",
          "type": "string"
        },
        {
          "internalType": "string",
          "name": "_ipfsUri",
          "type": "string"
        }
      ],
      "name": "updatePatientData",
      "outputs": [],
      "stateMutability": "nonpayable",
      "type": "function"
    },
    {
      "inputs": [],
      "name": "getPatientDataTypes",
      "outputs": [
        {
          "internalType": "string[]",
          "name": "",
          "type": "string[]"
        }
      ],
      "stateMutability": "view",
      "type": "function",
      "constant": true
    },
    {
      "inputs": [
        {
          "internalType": "string",
          "name": "_dataType",
          "type": "string"
        }
      ],
      "name": "getPatientDataUri",
      "outputs": [
        {
          "internalType": "string",
          "name": "",
          "type": "string"
        }
      ],
      "stateMutability": "view",
      "type": "function",
      "constant": true
    },
    {
      "inputs": [
        {
          "internalType": "address",
          "name": "_entity",
          "type": "address"
        },
        {
          "internalType": "string",
          "name": "_dataType",
          "type": "string"
        }
      ],
      "name": "grantAccess",
      "outputs": [],
      "stateMutability": "nonpayable",
      "type": "function"
    },
    {
      "inputs": [
        {
          "internalType": "address",
          "name": "_entity",
          "type": "address"
        },
        {
          "internalType": "string",
          "name": "_dataType",
          "type": "string"
        }
      ],
      "name": "revokeAccess",
      "outputs": [],
      "stateMutability": "nonpayable",
      "type": "function"
    },
    {
      "inputs": [
        {
          "internalType": "string",
          "name": "_dataType",
          "type": "string"
        }
      ],
      "name": "getOrganizationsAccessForDataType",
      "outputs": [
        {
          "components": [
            {
              "internalType": "string",
              "name": "name",
              "type": "string"
            },
            {
              "internalType": "address",
              "name": "orgAddress",
              "type": "address"
            },
            {
              "internalType": "string",
              "name": "role",
              "type": "string"
            }
          ],
          "internalType": "struct PatientOrgContract.Organization[]",
          "name": "",
          "type": "tuple[]"
        },
        {
          "internalType": "bool[]",
          "name": "",
          "type": "bool[]"
        }
      ],
      "stateMutability": "view",
      "type": "function",
      "constant": true
    }
  ],
  "bytecode": "0x608060405234801561000f575f80fd5b50612dcb8061001d5f395ff3fe608060405234801561000f575f80fd5b50600436106100cd575f3560e01c80638445fa631161008a578063c1a2b94e11610064578063c1a2b94e14610232578063d9b1d70e14610264578063df63747f14610282578063e50fe48e146102a0576100cd565b80638445fa63146101a257806397290820146101d25780639822ff8d14610202576100cd565b806308b795b1146100d15780631164ee4d1461010157806324a586601461013257806350eeed4f1461014e5780636a44cac91461016a578063723f8ab514610186575b5f80fd5b6100eb60048036038101906100e69190611e12565b6102bc565b6040516100f89190611e4c565b60405180910390f35b61011b60048036038101906101169190611fa1565b6102f4565b604051610129929190612242565b60405180910390f35b61014c60048036038101906101479190612277565b61072b565b005b61016860048036038101906101639190611e12565b61083e565b005b610184600480360381019061017f91906122ed565b6108bd565b005b6101a0600480360381019061019b9190612347565b610a87565b005b6101bc60048036038101906101b79190611e12565b610d59565b6040516101c991906124c4565b60405180910390f35b6101ec60048036038101906101e79190611fa1565b611034565b6040516101f9919061252c565b60405180910390f35b61021c60048036038101906102179190611e12565b611223565b60405161022991906126de565b60405180910390f35b61024c60048036038101906102479190612731565b6115a6565b60405161025b9392919061276f565b60405180910390f35b61026c611711565b60405161027991906127b2565b60405180910390f35b61028a611a44565b604051610297919061288d565b60405180910390f35b6102ba60048036038101906102b591906122ed565b611b55565b005b5f602052805f5260405f205f91509050805f015f9054906101000a900473ffffffffffffffffffffffffffffffffffffffff16905081565b6060805f805f3373ffffffffffffffffffffffffffffffffffffffff1673ffffffffffffffffffffffffffffffffffffffff1681526020019081526020015f2090505f60015f835f015f9054906101000a900473ffffffffffffffffffffffffffffffffffffffff1673ffffffffffffffffffffffffffffffffffffffff1673ffffffffffffffffffffffffffffffffffffffff1681526020019081526020015f208054905090505f8167ffffffffffffffff8111156103b7576103b6611e7d565b5b6040519080825280602002602001820160405280156103f057816020015b6103dd611d20565b8152602001906001900390816103d55790505b5090505f8267ffffffffffffffff81111561040e5761040d611e7d565b5b60405190808252806020026020018201604052801561043c5781602001602082028036833780820191505090505b5090505f5b8381101561071b5760015f865f015f9054906101000a900473ffffffffffffffffffffffffffffffffffffffff1673ffffffffffffffffffffffffffffffffffffffff1673ffffffffffffffffffffffffffffffffffffffff1681526020019081526020015f2081815481106104ba576104b96128ad565b5b905f5260205f2090600302016040518060600160405290815f820180546104e090612907565b80601f016020809104026020016040519081016040528092919081815260200182805461050c90612907565b80156105575780601f1061052e57610100808354040283529160200191610557565b820191905f5260205f20905b81548152906001019060200180831161053a57829003601f168201915b50505050508152602001600182015f9054906101000a900473ffffffffffffffffffffffffffffffffffffffff1673ffffffffffffffffffffffffffffffffffffffff1673ffffffffffffffffffffffffffffffffffffffff1681526020016002820180546105c590612907565b80601f01602080910402602001604051908101604052809291908181526020018280546105f190612907565b801561063c5780601f106106135761010080835404028352916020019161063c565b820191905f5260205f20905b81548152906001019060200180831161061f57829003601f168201915b505050505081525050838281518110610658576106576128ad565b5b602002602001018190525084600201886040516106759190612971565b90815260200160405180910390205f848381518110610697576106966128ad565b5b60200260200101516020015173ffffffffffffffffffffffffffffffffffffffff1673ffffffffffffffffffffffffffffffffffffffff1681526020019081526020015f205f9054906101000a900460ff168282815181106106fc576106fb6128ad565b5b6020026020010190151590811515815250508080600101915050610441565b5081819550955050505050915091565b5f805f3373ffffffffffffffffffffffffffffffffffffffff1673ffffffffffffffffffffffffffffffffffffffff1681526020019081526020015f2090505f816003018460405161077d9190612971565b9081526020016040518091039020805461079690612907565b9050036107d2578060040183908060018154018082558091505060019003905f5260205f20015f9091909190915090816107d09190612b24565b505b8181600301846040516107e59190612971565b908152602001604051809103902090816107ff9190612b24565b507ff003290f29262794ffea7a9da5f0e2d45291d0bf3cf968cadeaf7ca35b2df2158383604051610831929190612bf3565b60405180910390a1505050565b805f808373ffffffffffffffffffffffffffffffffffffffff1673ffffffffffffffffffffffffffffffffffffffff1681526020019081526020015f205f015f6101000a81548173ffffffffffffffffffffffffffffffffffffffff021916908373ffffffffffffffffffffffffffffffffffffffff16021790555050565b5f803373ffffffffffffffffffffffffffffffffffffffff1673ffffffffffffffffffffffffffffffffffffffff1681526020019081526020015f205f015f9054906101000a900473ffffffffffffffffffffffffffffffffffffffff1673ffffffffffffffffffffffffffffffffffffffff163373ffffffffffffffffffffffffffffffffffffffff1614610988576040517f08c379a000000000000000000000000000000000000000000000000000000000815260040161097f90612c98565b60405180910390fd5b5f805f3373ffffffffffffffffffffffffffffffffffffffff1673ffffffffffffffffffffffffffffffffffffffff1681526020019081526020015f20600201826040516109d69190612971565b90815260200160405180910390205f8473ffffffffffffffffffffffffffffffffffffffff1673ffffffffffffffffffffffffffffffffffffffff1681526020019081526020015f205f6101000a81548160ff0219169083151502179055508173ffffffffffffffffffffffffffffffffffffffff167f51cbcaaca6ae26944c6280c966a07b04ca5c6766d82ca497ded152579431468d82604051610a7b919061252c565b60405180910390a25050565b5f803373ffffffffffffffffffffffffffffffffffffffff1673ffffffffffffffffffffffffffffffffffffffff1681526020019081526020015f205f015f9054906101000a900473ffffffffffffffffffffffffffffffffffffffff1673ffffffffffffffffffffffffffffffffffffffff163373ffffffffffffffffffffffffffffffffffffffff1614610b52576040517f08c379a0000000000000000000000000000000000000000000000000000000008152600401610b4990612c98565b60405180910390fd5b5f60405180606001604052808481526020018573ffffffffffffffffffffffffffffffffffffffff16815260200183815250905060015f805f3373ffffffffffffffffffffffffffffffffffffffff1673ffffffffffffffffffffffffffffffffffffffff1681526020019081526020015f205f015f9054906101000a900473ffffffffffffffffffffffffffffffffffffffff1673ffffffffffffffffffffffffffffffffffffffff1673ffffffffffffffffffffffffffffffffffffffff1681526020019081526020015f2081908060018154018082558091505060019003905f5260205f2090600302015f909190919091505f820151815f019081610c5a9190612b24565b506020820151816001015f6101000a81548173ffffffffffffffffffffffffffffffffffffffff021916908373ffffffffffffffffffffffffffffffffffffffff1602179055506040820151816002019081610cb69190612b24565b5050507fcae71f98f8d9f298b947f99845d4ca2edd3f25f6582cd2fb82755bdd5be7d6925f803373ffffffffffffffffffffffffffffffffffffffff1673ffffffffffffffffffffffffffffffffffffffff1681526020019081526020015f205f015f9054906101000a900473ffffffffffffffffffffffffffffffffffffffff16848685604051610d4b9493929190612cb6565b60405180910390a150505050565b60605f803373ffffffffffffffffffffffffffffffffffffffff1673ffffffffffffffffffffffffffffffffffffffff1681526020019081526020015f205f015f9054906101000a900473ffffffffffffffffffffffffffffffffffffffff1673ffffffffffffffffffffffffffffffffffffffff163373ffffffffffffffffffffffffffffffffffffffff1614610e26576040517f08c379a0000000000000000000000000000000000000000000000000000000008152600401610e1d90612c98565b60405180910390fd5b5f805f3373ffffffffffffffffffffffffffffffffffffffff1673ffffffffffffffffffffffffffffffffffffffff1681526020019081526020015f2090505f816004018054905090505f8167ffffffffffffffff811115610e8b57610e8a611e7d565b5b604051908082528060200260200182016040528015610ec457816020015b610eb1611d56565b815260200190600190039081610ea95790505b5090505f5b82811015611028575f846004018281548110610ee857610ee76128ad565b5b905f5260205f20018054610efb90612907565b80601f0160208091040260200160405190810160405280929190818152602001828054610f2790612907565b8015610f725780601f10610f4957610100808354040283529160200191610f72565b820191905f5260205f20905b815481529060010190602001808311610f5557829003601f168201915b505050505090505f8560020182604051610f8c9190612971565b90815260200160405180910390205f8973ffffffffffffffffffffffffffffffffffffffff1673ffffffffffffffffffffffffffffffffffffffff1681526020019081526020015f205f9054906101000a900460ff169050604051806040016040528083815260200182151581525084848151811061100e5761100d6128ad565b5b602002602001018190525050508080600101915050610ec9565b50809350505050919050565b60605f805f3373ffffffffffffffffffffffffffffffffffffffff1673ffffffffffffffffffffffffffffffffffffffff1681526020019081526020015f20905080600201836040516110879190612971565b90815260200160405180910390205f3373ffffffffffffffffffffffffffffffffffffffff1673ffffffffffffffffffffffffffffffffffffffff1681526020019081526020015f205f9054906101000a900460ff16806111355750805f015f9054906101000a900473ffffffffffffffffffffffffffffffffffffffff1673ffffffffffffffffffffffffffffffffffffffff163373ffffffffffffffffffffffffffffffffffffffff16145b611174576040517f08c379a000000000000000000000000000000000000000000000000000000000815260040161116b90612d77565b60405180910390fd5b80600301836040516111869190612971565b9081526020016040518091039020805461119f90612907565b80601f01602080910402602001604051908101604052809291908181526020018280546111cb90612907565b80156112165780601f106111ed57610100808354040283529160200191611216565b820191905f5260205f20905b8154815290600101906020018083116111f957829003601f168201915b5050505050915050919050565b60605f805f8473ffffffffffffffffffffffffffffffffffffffff1673ffffffffffffffffffffffffffffffffffffffff1681526020019081526020015f2090505f60015f835f015f9054906101000a900473ffffffffffffffffffffffffffffffffffffffff1673ffffffffffffffffffffffffffffffffffffffff1673ffffffffffffffffffffffffffffffffffffffff1681526020019081526020015f208054905090505f8167ffffffffffffffff8111156112e5576112e4611e7d565b5b60405190808252806020026020018201604052801561131e57816020015b61130b611d71565b8152602001906001900390816113035790505b5090505f5b8281101561159a575f60015f865f015f9054906101000a900473ffffffffffffffffffffffffffffffffffffffff1673ffffffffffffffffffffffffffffffffffffffff1673ffffffffffffffffffffffffffffffffffffffff1681526020019081526020015f20828154811061139d5761139c6128ad565b5b905f5260205f2090600302016040518060600160405290815f820180546113c390612907565b80601f01602080910402602001604051908101604052809291908181526020018280546113ef90612907565b801561143a5780601f106114115761010080835404028352916020019161143a565b820191905f5260205f20905b81548152906001019060200180831161141d57829003601f168201915b50505050508152602001600182015f9054906101000a900473ffffffffffffffffffffffffffffffffffffffff1673ffffffffffffffffffffffffffffffffffffffff1673ffffffffffffffffffffffffffffffffffffffff1681526020016002820180546114a890612907565b80601f01602080910402602001604051908101604052809291908181526020018280546114d490612907565b801561151f5780601f106114f65761010080835404028352916020019161151f565b820191905f5260205f20905b81548152906001019060200180831161150257829003601f168201915b50505050508152505090506040518060600160405280825f01518152602001826020015173ffffffffffffffffffffffffffffffffffffffff16815260200161156b8360200151610d59565b815250838381518110611581576115806128ad565b5b6020026020010181905250508080600101915050611323565b50809350505050919050565b6001602052815f5260405f2081815481106115bf575f80fd5b905f5260205f2090600302015f9150915050805f0180546115df90612907565b80601f016020809104026020016040519081016040528092919081815260200182805461160b90612907565b80156116565780601f1061162d57610100808354040283529160200191611656565b820191905f5260205f20905b81548152906001019060200180831161163957829003601f168201915b505050505090806001015f9054906101000a900473ffffffffffffffffffffffffffffffffffffffff169080600201805461169090612907565b80601f01602080910402602001604051908101604052809291908181526020018280546116bc90612907565b80156117075780601f106116de57610100808354040283529160200191611707565b820191905f5260205f20905b8154815290600101906020018083116116ea57829003601f168201915b5050505050905083565b60605f803373ffffffffffffffffffffffffffffffffffffffff1673ffffffffffffffffffffffffffffffffffffffff1681526020019081526020015f205f015f9054906101000a900473ffffffffffffffffffffffffffffffffffffffff1673ffffffffffffffffffffffffffffffffffffffff163373ffffffffffffffffffffffffffffffffffffffff16146117de576040517f08c379a00000000000000000000000000000000000000000000000000000000081526004016117d590612c98565b60405180910390fd5b60015f805f3373ffffffffffffffffffffffffffffffffffffffff1673ffffffffffffffffffffffffffffffffffffffff1681526020019081526020015f205f015f9054906101000a900473ffffffffffffffffffffffffffffffffffffffff1673ffffffffffffffffffffffffffffffffffffffff1673ffffffffffffffffffffffffffffffffffffffff1681526020019081526020015f20805480602002602001604051908101604052809291908181526020015f905b82821015611a3b578382905f5260205f2090600302016040518060600160405290815f820180546118c790612907565b80601f01602080910402602001604051908101604052809291908181526020018280546118f390612907565b801561193e5780601f106119155761010080835404028352916020019161193e565b820191905f5260205f20905b81548152906001019060200180831161192157829003601f168201915b50505050508152602001600182015f9054906101000a900473ffffffffffffffffffffffffffffffffffffffff1673ffffffffffffffffffffffffffffffffffffffff1673ffffffffffffffffffffffffffffffffffffffff1681526020016002820180546119ac90612907565b80601f01602080910402602001604051908101604052809291908181526020018280546119d890612907565b8015611a235780601f106119fa57610100808354040283529160200191611a23565b820191905f5260205f20905b815481529060010190602001808311611a0657829003601f168201915b50505050508152505081526020019060010190611897565b50505050905090565b60605f803373ffffffffffffffffffffffffffffffffffffffff1673ffffffffffffffffffffffffffffffffffffffff1681526020019081526020015f20600401805480602002602001604051908101604052809291908181526020015f905b82821015611b4c578382905f5260205f20018054611ac190612907565b80601f0160208091040260200160405190810160405280929190818152602001828054611aed90612907565b8015611b385780601f10611b0f57610100808354040283529160200191611b38565b820191905f5260205f20905b815481529060010190602001808311611b1b57829003601f168201915b505050505081526020019060010190611aa4565b50505050905090565b5f803373ffffffffffffffffffffffffffffffffffffffff1673ffffffffffffffffffffffffffffffffffffffff1681526020019081526020015f205f015f9054906101000a900473ffffffffffffffffffffffffffffffffffffffff1673ffffffffffffffffffffffffffffffffffffffff163373ffffffffffffffffffffffffffffffffffffffff1614611c20576040517f08c379a0000000000000000000000000000000000000000000000000000000008152600401611c1790612c98565b60405180910390fd5b60015f803373ffffffffffffffffffffffffffffffffffffffff1673ffffffffffffffffffffffffffffffffffffffff1681526020019081526020015f2060020182604051611c6f9190612971565b90815260200160405180910390205f8473ffffffffffffffffffffffffffffffffffffffff1673ffffffffffffffffffffffffffffffffffffffff1681526020019081526020015f205f6101000a81548160ff0219169083151502179055508173ffffffffffffffffffffffffffffffffffffffff167f883d542f167dfc5f47e8bf1532c171025ed0e4c59c1126c7f61749fa21976a4582604051611d14919061252c565b60405180910390a25050565b6040518060600160405280606081526020015f73ffffffffffffffffffffffffffffffffffffffff168152602001606081525090565b6040518060400160405280606081526020015f151581525090565b6040518060600160405280606081526020015f73ffffffffffffffffffffffffffffffffffffffff168152602001606081525090565b5f604051905090565b5f80fd5b5f80fd5b5f73ffffffffffffffffffffffffffffffffffffffff82169050919050565b5f611de182611db8565b9050919050565b611df181611dd7565b8114611dfb575f80fd5b50565b5f81359050611e0c81611de8565b92915050565b5f60208284031215611e2757611e26611db0565b5b5f611e3484828501611dfe565b91505092915050565b611e4681611dd7565b82525050565b5f602082019050611e5f5f830184611e3d565b92915050565b5f80fd5b5f80fd5b5f601f19601f8301169050919050565b7f4e487b71000000000000000000000000000000000000000000000000000000005f52604160045260245ffd5b611eb382611e6d565b810181811067ffffffffffffffff82111715611ed257611ed1611e7d565b5b80604052505050565b5f611ee4611da7565b9050611ef08282611eaa565b919050565b5f67ffffffffffffffff821115611f0f57611f0e611e7d565b5b611f1882611e6d565b9050602081019050919050565b828183375f83830152505050565b5f611f45611f4084611ef5565b611edb565b905082815260208101848484011115611f6157611f60611e69565b5b611f6c848285611f25565b509392505050565b5f82601f830112611f8857611f87611e65565b5b8135611f98848260208601611f33565b91505092915050565b5f60208284031215611fb657611fb5611db0565b5b5f82013567ffffffffffffffff811115611fd357611fd2611db4565b5b611fdf84828501611f74565b91505092915050565b5f81519050919050565b5f82825260208201905092915050565b5f819050602082019050919050565b5f81519050919050565b5f82825260208201905092915050565b5f5b8381101561204857808201518184015260208101905061202d565b5f8484015250505050565b5f61205d82612011565b612067818561201b565b935061207781856020860161202b565b61208081611e6d565b840191505092915050565b61209481611dd7565b82525050565b5f606083015f8301518482035f8601526120b48282612053565b91505060208301516120c9602086018261208b565b50604083015184820360408601526120e18282612053565b9150508091505092915050565b5f6120f9838361209a565b905092915050565b5f602082019050919050565b5f61211782611fe8565b6121218185611ff2565b93508360208202850161213385612002565b805f5b8581101561216e578484038952815161214f85826120ee565b945061215a83612101565b925060208a01995050600181019050612136565b50829750879550505050505092915050565b5f81519050919050565b5f82825260208201905092915050565b5f819050602082019050919050565b5f8115159050919050565b6121bd816121a9565b82525050565b5f6121ce83836121b4565b60208301905092915050565b5f602082019050919050565b5f6121f082612180565b6121fa818561218a565b93506122058361219a565b805f5b8381101561223557815161221c88826121c3565b9750612227836121da565b925050600181019050612208565b5085935050505092915050565b5f6040820190508181035f83015261225a818561210d565b9050818103602083015261226e81846121e6565b90509392505050565b5f806040838503121561228d5761228c611db0565b5b5f83013567ffffffffffffffff8111156122aa576122a9611db4565b5b6122b685828601611f74565b925050602083013567ffffffffffffffff8111156122d7576122d6611db4565b5b6122e385828601611f74565b9150509250929050565b5f806040838503121561230357612302611db0565b5b5f61231085828601611dfe565b925050602083013567ffffffffffffffff81111561233157612330611db4565b5b61233d85828601611f74565b9150509250929050565b5f805f6060848603121561235e5761235d611db0565b5b5f61236b86828701611dfe565b935050602084013567ffffffffffffffff81111561238c5761238b611db4565b5b61239886828701611f74565b925050604084013567ffffffffffffffff8111156123b9576123b8611db4565b5b6123c586828701611f74565b9150509250925092565b5f81519050919050565b5f82825260208201905092915050565b5f819050602082019050919050565b5f604083015f8301518482035f8601526124128282612053565b915050602083015161242760208601826121b4565b508091505092915050565b5f61243d83836123f8565b905092915050565b5f602082019050919050565b5f61245b826123cf565b61246581856123d9565b935083602082028501612477856123e9565b805f5b858110156124b257848403895281516124938582612432565b945061249e83612445565b925060208a0199505060018101905061247a565b50829750879550505050505092915050565b5f6020820190508181035f8301526124dc8184612451565b905092915050565b5f82825260208201905092915050565b5f6124fe82612011565b61250881856124e4565b935061251881856020860161202b565b61252181611e6d565b840191505092915050565b5f6020820190508181035f83015261254481846124f4565b905092915050565b5f81519050919050565b5f82825260208201905092915050565b5f819050602082019050919050565b5f82825260208201905092915050565b5f61258f826123cf565b6125998185612575565b9350836020820285016125ab856123e9565b805f5b858110156125e657848403895281516125c78582612432565b94506125d283612445565b925060208a019950506001810190506125ae565b50829750879550505050505092915050565b5f606083015f8301518482035f8601526126128282612053565b9150506020830151612627602086018261208b565b506040830151848203604086015261263f8282612585565b9150508091505092915050565b5f61265783836125f8565b905092915050565b5f602082019050919050565b5f6126758261254c565b61267f8185612556565b93508360208202850161269185612566565b805f5b858110156126cc57848403895281516126ad858261264c565b94506126b88361265f565b925060208a01995050600181019050612694565b50829750879550505050505092915050565b5f6020820190508181035f8301526126f6818461266b565b905092915050565b5f819050919050565b612710816126fe565b811461271a575f80fd5b50565b5f8135905061272b81612707565b92915050565b5f806040838503121561274757612746611db0565b5b5f61275485828601611dfe565b92505060206127658582860161271d565b9150509250929050565b5f6060820190508181035f83015261278781866124f4565b90506127966020830185611e3d565b81810360408301526127a881846124f4565b9050949350505050565b5f6020820190508181035f8301526127ca818461210d565b905092915050565b5f81519050919050565b5f82825260208201905092915050565b5f819050602082019050919050565b5f6128068383612053565b905092915050565b5f602082019050919050565b5f612824826127d2565b61282e81856127dc565b935083602082028501612840856127ec565b805f5b8581101561287b578484038952815161285c85826127fb565b94506128678361280e565b925060208a01995050600181019050612843565b50829750879550505050505092915050565b5f6020820190508181035f8301526128a5818461281a565b905092915050565b7f4e487b71000000000000000000000000000000000000000000000000000000005f52603260045260245ffd5b7f4e487b71000000000000000000000000000000000000000000000000000000005f52602260045260245ffd5b5f600282049050600182168061291e57607f821691505b602082108103612931576129306128da565b5b50919050565b5f81905092915050565b5f61294b82612011565b6129558185612937565b935061296581856020860161202b565b80840191505092915050565b5f61297c8284612941565b915081905092915050565b5f819050815f5260205f209050919050565b5f6020601f8301049050919050565b5f82821b905092915050565b5f600883026129e37fffffffffffffffffffffffffffffffffffffffffffffffffffffffffffffffff826129a8565b6129ed86836129a8565b95508019841693508086168417925050509392505050565b5f819050919050565b5f612a28612a23612a1e846126fe565b612a05565b6126fe565b9050919050565b5f819050919050565b612a4183612a0e565b612a55612a4d82612a2f565b8484546129b4565b825550505050565b5f90565b612a69612a5d565b612a74818484612a38565b505050565b5b81811015612a9757612a8c5f82612a61565b600181019050612a7a565b5050565b601f821115612adc57612aad81612987565b612ab684612999565b81016020851015612ac5578190505b612ad9612ad185612999565b830182612a79565b50505b505050565b5f82821c905092915050565b5f612afc5f1984600802612ae1565b1980831691505092915050565b5f612b148383612aed565b9150826002028217905092915050565b612b2d82612011565b67ffffffffffffffff811115612b4657612b45611e7d565b5b612b508254612907565b612b5b828285612a9b565b5f60209050601f831160018114612b8c575f8415612b7a578287015190505b612b848582612b09565b865550612beb565b601f198416612b9a86612987565b5f5b82811015612bc157848901518255600182019150602085019450602081019050612b9c565b86831015612bde5784890151612bda601f891682612aed565b8355505b6001600288020188555050505b505050505050565b5f6040820190508181035f830152612c0b81856124f4565b90508181036020830152612c1f81846124f4565b90509392505050565b7f4f6e6c79207468652070617469656e742063616e20706572666f726d207468695f8201527f7320616374696f6e000000000000000000000000000000000000000000000000602082015250565b5f612c826028836124e4565b9150612c8d82612c28565b604082019050919050565b5f6020820190508181035f830152612caf81612c76565b9050919050565b5f608082019050612cc95f830187611e3d565b8181036020830152612cdb81866124f4565b9050612cea6040830185611e3d565b8181036060830152612cfc81846124f4565b905095945050505050565b7f556e617574686f72697a65642061636365737320666f722064617461207479705f8201527f6500000000000000000000000000000000000000000000000000000000000000602082015250565b5f612d616021836124e4565b9150612d6c82612d07565b604082019050919050565b5f6020820190508181035f830152612d8e81612d55565b905091905056fea2646970667358221220bbe50b41347c16439a07462b8689a3a2d8822b048186bedd7f9242bddde64a5264736f6c63430008170033",
  "immutableReferences": {},
  "source": "// SPDX-License-Identifier: MIT\r\npragma solidity ^0.8.7;\r\n\r\ncontract PatientOrgContract {\r\n    struct Organization {\r\n        string name;\r\n        address orgAddress;\r\n        string role;\r\n    }\r\n\r\n    struct AccessControl {\r\n        address patient;\r\n        mapping(address => bool) authorizedEntities;\r\n        mapping(string => mapping(address => bool)) authorizedEntitiesForDataType;\r\n        mapping(string => string) patientData;\r\n        string[] dataTypes;\r\n    }\r\n    struct OrganizationWithAccess {\r\n        string name;\r\n        address orgAddress;\r\n        DataTypeWithAccess[] hasAccess;\r\n    }\r\n\r\n    mapping(address => AccessControl) public patientAccessControls; // Mapping to store AccessControl for each patient\r\n    mapping(address => Organization[]) public patientOrganizations; // Stores multiple organizations for each patient\r\n\r\n    // Get all organizations and their access for a patient\r\n    function getAllOrganizationsWithAccess(address patient) public view returns (OrganizationWithAccess[] memory) {\r\n        AccessControl storage accessControl = patientAccessControls[patient];\r\n\r\n        uint orgCount = patientOrganizations[accessControl.patient].length;\r\n        OrganizationWithAccess[] memory orgsWithAccess = new OrganizationWithAccess[](orgCount);\r\n\r\n        for (uint i = 0; i < orgCount; i++) {\r\n            Organization memory org = patientOrganizations[accessControl.patient][i];\r\n            orgsWithAccess[i] = OrganizationWithAccess({\r\n                name: org.name,\r\n                orgAddress: org.orgAddress,\r\n                hasAccess: getAllDataTypesWithAccessForOrganization(org.orgAddress)\r\n            });\r\n        }\r\n\r\n        return orgsWithAccess;\r\n    }\r\n\r\n        function getAllDataTypesWithAccessForOrganization(address _orgAddress) public view onlyPatient returns (DataTypeWithAccess[] memory) {\r\n        AccessControl storage accessControl = patientAccessControls[msg.sender];\r\n\r\n        uint dataTypeCount = accessControl.dataTypes.length;\r\n        DataTypeWithAccess[] memory dataTypesWithAccess = new DataTypeWithAccess[](dataTypeCount);\r\n\r\n        for (uint i = 0; i < dataTypeCount; i++) {\r\n            string memory dataType = accessControl.dataTypes[i];\r\n            bool hasAccess = accessControl.authorizedEntitiesForDataType[dataType][_orgAddress];\r\n\r\n            dataTypesWithAccess[i] = DataTypeWithAccess({\r\n                dataType: dataType,\r\n                hasAccess: hasAccess\r\n            });\r\n        }\r\n\r\n        return dataTypesWithAccess;\r\n    }\r\n\r\n    // Helper struct to store data type details along with access status\r\n    struct DataTypeWithAccess {\r\n        string dataType;\r\n        bool hasAccess;\r\n    }\r\n    // Events\r\n    event AccessGranted(address indexed entity, string dataType);\r\n    event AccessRevoked(address indexed entity, string dataType);\r\n    event PatientDataUpdated(string dataType, string ipfsUri);\r\n    event OrganizationAdded(address patient, string name, address orgAddress, string role);\r\n\r\n    // Set patient access control\r\n    function setPatient(address _patient) public {\r\n        patientAccessControls[_patient].patient = _patient;\r\n    }\r\n\r\n    modifier onlyPatient() {\r\n        require(msg.sender == patientAccessControls[msg.sender].patient, \"Only the patient can perform this action\");\r\n        _;\r\n    }\r\n\r\n    // Add an organization for the patient\r\n    function addOrganizationForPatient(address _orgAddress, string memory _name, string memory _role) public onlyPatient {\r\n        Organization memory newOrg = Organization(_name, _orgAddress, _role);\r\n        patientOrganizations[patientAccessControls[msg.sender].patient].push(newOrg);\r\n        emit OrganizationAdded(patientAccessControls[msg.sender].patient, _name, _orgAddress, _role);\r\n    }\r\n\r\n    // Get all organizations for a patient\r\n    function getPatientOrganizations() public view onlyPatient returns (Organization[] memory) {\r\n        return patientOrganizations[patientAccessControls[msg.sender].patient];\r\n    }\r\n\r\n    // Update patient data\r\n    function updatePatientData(string memory _dataType, string memory _ipfsUri) public {\r\n        AccessControl storage accessControl = patientAccessControls[msg.sender];\r\n\r\n        if (bytes(accessControl.patientData[_dataType]).length == 0) {\r\n            accessControl.dataTypes.push(_dataType);\r\n        }\r\n        accessControl.patientData[_dataType] = _ipfsUri;\r\n        emit PatientDataUpdated(_dataType, _ipfsUri);\r\n    }\r\n\r\n    // Get the list of data types\r\n    function getPatientDataTypes() public view returns (string[] memory) {\r\n        return patientAccessControls[msg.sender].dataTypes;\r\n    }\r\n\r\n    // Get patient data URI\r\n    function getPatientDataUri(string memory _dataType) public view returns (string memory) {\r\n        AccessControl storage accessControl = patientAccessControls[msg.sender];\r\n\r\n        require(accessControl.authorizedEntitiesForDataType[_dataType][msg.sender] || msg.sender == accessControl.patient, \"Unauthorized access for data type\");\r\n        return accessControl.patientData[_dataType];\r\n    }\r\n\r\n    // Grant access to a data type\r\n    function grantAccess(address _entity, string memory _dataType) public onlyPatient {\r\n        patientAccessControls[msg.sender].authorizedEntitiesForDataType[_dataType][_entity] = true;\r\n        emit AccessGranted(_entity, _dataType);\r\n    }\r\n\r\n    // Revoke access from a data type\r\n    function revokeAccess(address _entity, string memory _dataType) public onlyPatient {\r\n        patientAccessControls[msg.sender].authorizedEntitiesForDataType[_dataType][_entity] = false;\r\n        emit AccessRevoked(_entity, _dataType);\r\n    }\r\n\r\n    function getOrganizationsAccessForDataType(string memory _dataType) public view returns (Organization[] memory, bool[] memory) {\r\n        AccessControl storage accessControl = patientAccessControls[msg.sender];\r\n\r\n        uint orgCount = patientOrganizations[accessControl.patient].length;\r\n        Organization[] memory orgs = new Organization[](orgCount);\r\n        bool[] memory hasAccess = new bool[](orgCount);\r\n\r\n        for (uint i = 0; i < orgCount; i++) {\r\n            orgs[i] = patientOrganizations[accessControl.patient][i];\r\n            hasAccess[i] = accessControl.authorizedEntitiesForDataType[_dataType][orgs[i].orgAddress];\r\n        }\r\n\r\n        return (orgs, hasAccess);\r\n    }\r\n}\r\n",
  "sourcePath": "A:\\Sem-VII\\Research Project\\Enabling-Secure-Access-Control-of-Electronic-Health-Records-through-Smart-Contracts\\truffle\\contracts\\PatientOrgContract.sol",
  "compiler": {
    "name": "solc",
    "version": "0.8.23+commit.f704f362.Emscripten.clang"
  },
  "schemaVersion": "3.4.8",
  "updatedAt": "2023-11-13T21:25:52.018Z",
  "networkType": "ethereum",
  "devdoc": {
    "kind": "dev",
    "methods": {},
    "version": 1
  },
  "userdoc": {
    "kind": "user",
    "methods": {},
    "version": 1
  }
}