{
  "contractName": "PatientOrgContract",
  "abi": [
    {
      "anonymous": false,
      "inputs": [
        {
          "indexed": true,
          "internalType": "address",
          "name": "entity",
          "type": "address"
        },
        {
          "indexed": false,
          "internalType": "string",
          "name": "dataType",
          "type": "string"
        }
      ],
      "name": "AccessGranted",
      "type": "event"
    },
    {
      "anonymous": false,
      "inputs": [
        {
          "indexed": true,
          "internalType": "address",
          "name": "entity",
          "type": "address"
        },
        {
          "indexed": false,
          "internalType": "string",
          "name": "dataType",
          "type": "string"
        }
      ],
      "name": "AccessRevoked",
      "type": "event"
    },
    {
      "anonymous": false,
      "inputs": [
        {
          "indexed": false,
          "internalType": "address",
          "name": "patient",
          "type": "address"
        },
        {
          "indexed": false,
          "internalType": "string",
          "name": "name",
          "type": "string"
        },
        {
          "indexed": false,
          "internalType": "address",
          "name": "orgAddress",
          "type": "address"
        },
        {
          "indexed": false,
          "internalType": "string",
          "name": "role",
          "type": "string"
        }
      ],
      "name": "OrganizationAdded",
      "type": "event"
    },
    {
      "anonymous": false,
      "inputs": [
        {
          "indexed": false,
          "internalType": "string",
          "name": "dataType",
          "type": "string"
        },
        {
          "indexed": false,
          "internalType": "string",
          "name": "ipfsUri",
          "type": "string"
        }
      ],
      "name": "PatientDataUpdated",
      "type": "event"
    },
    {
      "inputs": [
        {
          "internalType": "address",
          "name": "",
          "type": "address"
        }
      ],
      "name": "patientAccessControls",
      "outputs": [
        {
          "internalType": "address",
          "name": "patient",
          "type": "address"
        }
      ],
      "stateMutability": "view",
      "type": "function",
      "constant": true
    },
    {
      "inputs": [
        {
          "internalType": "address",
          "name": "",
          "type": "address"
        },
        {
          "internalType": "uint256",
          "name": "",
          "type": "uint256"
        }
      ],
      "name": "patientOrganizations",
      "outputs": [
        {
          "internalType": "string",
          "name": "name",
          "type": "string"
        },
        {
          "internalType": "address",
          "name": "orgAddress",
          "type": "address"
        },
        {
          "internalType": "string",
          "name": "role",
          "type": "string"
        }
      ],
      "stateMutability": "view",
      "type": "function",
      "constant": true
    },
    {
      "inputs": [
        {
          "internalType": "address",
          "name": "_patient",
          "type": "address"
        }
      ],
      "name": "setPatient",
      "outputs": [],
      "stateMutability": "nonpayable",
      "type": "function"
    },
    {
      "inputs": [
        {
          "internalType": "address",
          "name": "_orgAddress",
          "type": "address"
        },
        {
          "internalType": "string",
          "name": "_name",
          "type": "string"
        },
        {
          "internalType": "string",
          "name": "_role",
          "type": "string"
        }
      ],
      "name": "addOrganizationForPatient",
      "outputs": [],
      "stateMutability": "nonpayable",
      "type": "function"
    },
    {
      "inputs": [],
      "name": "getPatientOrganizations",
      "outputs": [
        {
          "components": [
            {
              "internalType": "string",
              "name": "name",
              "type": "string"
            },
            {
              "internalType": "address",
              "name": "orgAddress",
              "type": "address"
            },
            {
              "internalType": "string",
              "name": "role",
              "type": "string"
            }
          ],
          "internalType": "struct PatientOrgContract.Organization[]",
          "name": "",
          "type": "tuple[]"
        }
      ],
      "stateMutability": "view",
      "type": "function",
      "constant": true
    },
    {
      "inputs": [
        {
          "internalType": "string",
          "name": "_dataType",
          "type": "string"
        },
        {
          "internalType": "string",
          "name": "_ipfsUri",
          "type": "string"
        }
      ],
      "name": "updatePatientData",
      "outputs": [],
      "stateMutability": "nonpayable",
      "type": "function"
    },
    {
      "inputs": [],
      "name": "getPatientDataTypes",
      "outputs": [
        {
          "internalType": "string[]",
          "name": "",
          "type": "string[]"
        }
      ],
      "stateMutability": "view",
      "type": "function",
      "constant": true
    },
    {
      "inputs": [
        {
          "internalType": "string",
          "name": "_dataType",
          "type": "string"
        }
      ],
      "name": "getPatientDataUri",
      "outputs": [
        {
          "internalType": "string",
          "name": "",
          "type": "string"
        }
      ],
      "stateMutability": "view",
      "type": "function",
      "constant": true
    },
    {
      "inputs": [
        {
          "internalType": "address",
          "name": "_entity",
          "type": "address"
        },
        {
          "internalType": "string",
          "name": "_dataType",
          "type": "string"
        }
      ],
      "name": "grantAccess",
      "outputs": [],
      "stateMutability": "nonpayable",
      "type": "function"
    },
    {
      "inputs": [
        {
          "internalType": "address",
          "name": "_entity",
          "type": "address"
        },
        {
          "internalType": "string",
          "name": "_dataType",
          "type": "string"
        }
      ],
      "name": "revokeAccess",
      "outputs": [],
      "stateMutability": "nonpayable",
      "type": "function"
    },
    {
      "inputs": [
        {
          "internalType": "string",
          "name": "_dataType",
          "type": "string"
        }
      ],
      "name": "getOrganizationsAccessForDataType",
      "outputs": [
        {
          "components": [
            {
              "internalType": "string",
              "name": "name",
              "type": "string"
            },
            {
              "internalType": "address",
              "name": "orgAddress",
              "type": "address"
            },
            {
              "internalType": "string",
              "name": "role",
              "type": "string"
            }
          ],
          "internalType": "struct PatientOrgContract.Organization[]",
          "name": "",
          "type": "tuple[]"
        },
        {
          "internalType": "bool[]",
          "name": "",
          "type": "bool[]"
        }
      ],
      "stateMutability": "view",
      "type": "function",
      "constant": true
    }
  ],
  "bytecode": "0x608060405234801561000f575f80fd5b506123cf8061001d5f395ff3fe608060405234801561000f575f80fd5b50600436106100a7575f3560e01c8063723f8ab51161006f578063723f8ab514610160578063972908201461017c578063c1a2b94e146101ac578063d9b1d70e146101de578063df63747f146101fc578063e50fe48e1461021a576100a7565b806308b795b1146100ab5780631164ee4d146100db57806324a586601461010c57806350eeed4f146101285780636a44cac914610144575b5f80fd5b6100c560048036038101906100c091906116dd565b610236565b6040516100d29190611717565b60405180910390f35b6100f560048036038101906100f0919061186c565b61026e565b604051610103929190611b0d565b60405180910390f35b61012660048036038101906101219190611b42565b6106a5565b005b610142600480360381019061013d91906116dd565b6107b8565b005b61015e60048036038101906101599190611bb8565b610837565b005b61017a60048036038101906101759190611c12565b610a01565b005b6101966004803603810190610191919061186c565b610cd3565b6040516101a39190611ce2565b60405180910390f35b6101c660048036038101906101c19190611d35565b610ec2565b6040516101d593929190611d73565b60405180910390f35b6101e661102d565b6040516101f39190611db6565b60405180910390f35b610204611360565b6040516102119190611e91565b60405180910390f35b610234600480360381019061022f9190611bb8565b611471565b005b5f602052805f5260405f205f91509050805f015f9054906101000a900473ffffffffffffffffffffffffffffffffffffffff16905081565b6060805f805f3373ffffffffffffffffffffffffffffffffffffffff1673ffffffffffffffffffffffffffffffffffffffff1681526020019081526020015f2090505f60015f835f015f9054906101000a900473ffffffffffffffffffffffffffffffffffffffff1673ffffffffffffffffffffffffffffffffffffffff1673ffffffffffffffffffffffffffffffffffffffff1681526020019081526020015f208054905090505f8167ffffffffffffffff81111561033157610330611748565b5b60405190808252806020026020018201604052801561036a57816020015b61035761163c565b81526020019060019003908161034f5790505b5090505f8267ffffffffffffffff81111561038857610387611748565b5b6040519080825280602002602001820160405280156103b65781602001602082028036833780820191505090505b5090505f5b838110156106955760015f865f015f9054906101000a900473ffffffffffffffffffffffffffffffffffffffff1673ffffffffffffffffffffffffffffffffffffffff1673ffffffffffffffffffffffffffffffffffffffff1681526020019081526020015f20818154811061043457610433611eb1565b5b905f5260205f2090600302016040518060600160405290815f8201805461045a90611f0b565b80601f016020809104026020016040519081016040528092919081815260200182805461048690611f0b565b80156104d15780601f106104a8576101008083540402835291602001916104d1565b820191905f5260205f20905b8154815290600101906020018083116104b457829003601f168201915b50505050508152602001600182015f9054906101000a900473ffffffffffffffffffffffffffffffffffffffff1673ffffffffffffffffffffffffffffffffffffffff1673ffffffffffffffffffffffffffffffffffffffff16815260200160028201805461053f90611f0b565b80601f016020809104026020016040519081016040528092919081815260200182805461056b90611f0b565b80156105b65780601f1061058d576101008083540402835291602001916105b6565b820191905f5260205f20905b81548152906001019060200180831161059957829003601f168201915b5050505050815250508382815181106105d2576105d1611eb1565b5b602002602001018190525084600201886040516105ef9190611f75565b90815260200160405180910390205f84838151811061061157610610611eb1565b5b60200260200101516020015173ffffffffffffffffffffffffffffffffffffffff1673ffffffffffffffffffffffffffffffffffffffff1681526020019081526020015f205f9054906101000a900460ff1682828151811061067657610675611eb1565b5b60200260200101901515908115158152505080806001019150506103bb565b5081819550955050505050915091565b5f805f3373ffffffffffffffffffffffffffffffffffffffff1673ffffffffffffffffffffffffffffffffffffffff1681526020019081526020015f2090505f81600301846040516106f79190611f75565b9081526020016040518091039020805461071090611f0b565b90500361074c578060040183908060018154018082558091505060019003905f5260205f20015f90919091909150908161074a9190612128565b505b81816003018460405161075f9190611f75565b908152602001604051809103902090816107799190612128565b507ff003290f29262794ffea7a9da5f0e2d45291d0bf3cf968cadeaf7ca35b2df21583836040516107ab9291906121f7565b60405180910390a1505050565b805f808373ffffffffffffffffffffffffffffffffffffffff1673ffffffffffffffffffffffffffffffffffffffff1681526020019081526020015f205f015f6101000a81548173ffffffffffffffffffffffffffffffffffffffff021916908373ffffffffffffffffffffffffffffffffffffffff16021790555050565b5f803373ffffffffffffffffffffffffffffffffffffffff1673ffffffffffffffffffffffffffffffffffffffff1681526020019081526020015f205f015f9054906101000a900473ffffffffffffffffffffffffffffffffffffffff1673ffffffffffffffffffffffffffffffffffffffff163373ffffffffffffffffffffffffffffffffffffffff1614610902576040517f08c379a00000000000000000000000000000000000000000000000000000000081526004016108f99061229c565b60405180910390fd5b5f805f3373ffffffffffffffffffffffffffffffffffffffff1673ffffffffffffffffffffffffffffffffffffffff1681526020019081526020015f20600201826040516109509190611f75565b90815260200160405180910390205f8473ffffffffffffffffffffffffffffffffffffffff1673ffffffffffffffffffffffffffffffffffffffff1681526020019081526020015f205f6101000a81548160ff0219169083151502179055508173ffffffffffffffffffffffffffffffffffffffff167f51cbcaaca6ae26944c6280c966a07b04ca5c6766d82ca497ded152579431468d826040516109f59190611ce2565b60405180910390a25050565b5f803373ffffffffffffffffffffffffffffffffffffffff1673ffffffffffffffffffffffffffffffffffffffff1681526020019081526020015f205f015f9054906101000a900473ffffffffffffffffffffffffffffffffffffffff1673ffffffffffffffffffffffffffffffffffffffff163373ffffffffffffffffffffffffffffffffffffffff1614610acc576040517f08c379a0000000000000000000000000000000000000000000000000000000008152600401610ac39061229c565b60405180910390fd5b5f60405180606001604052808481526020018573ffffffffffffffffffffffffffffffffffffffff16815260200183815250905060015f805f3373ffffffffffffffffffffffffffffffffffffffff1673ffffffffffffffffffffffffffffffffffffffff1681526020019081526020015f205f015f9054906101000a900473ffffffffffffffffffffffffffffffffffffffff1673ffffffffffffffffffffffffffffffffffffffff1673ffffffffffffffffffffffffffffffffffffffff1681526020019081526020015f2081908060018154018082558091505060019003905f5260205f2090600302015f909190919091505f820151815f019081610bd49190612128565b506020820151816001015f6101000a81548173ffffffffffffffffffffffffffffffffffffffff021916908373ffffffffffffffffffffffffffffffffffffffff1602179055506040820151816002019081610c309190612128565b5050507fcae71f98f8d9f298b947f99845d4ca2edd3f25f6582cd2fb82755bdd5be7d6925f803373ffffffffffffffffffffffffffffffffffffffff1673ffffffffffffffffffffffffffffffffffffffff1681526020019081526020015f205f015f9054906101000a900473ffffffffffffffffffffffffffffffffffffffff16848685604051610cc594939291906122ba565b60405180910390a150505050565b60605f805f3373ffffffffffffffffffffffffffffffffffffffff1673ffffffffffffffffffffffffffffffffffffffff1681526020019081526020015f2090508060020183604051610d269190611f75565b90815260200160405180910390205f3373ffffffffffffffffffffffffffffffffffffffff1673ffffffffffffffffffffffffffffffffffffffff1681526020019081526020015f205f9054906101000a900460ff1680610dd45750805f015f9054906101000a900473ffffffffffffffffffffffffffffffffffffffff1673ffffffffffffffffffffffffffffffffffffffff163373ffffffffffffffffffffffffffffffffffffffff16145b610e13576040517f08c379a0000000000000000000000000000000000000000000000000000000008152600401610e0a9061237b565b60405180910390fd5b8060030183604051610e259190611f75565b90815260200160405180910390208054610e3e90611f0b565b80601f0160208091040260200160405190810160405280929190818152602001828054610e6a90611f0b565b8015610eb55780601f10610e8c57610100808354040283529160200191610eb5565b820191905f5260205f20905b815481529060010190602001808311610e9857829003601f168201915b5050505050915050919050565b6001602052815f5260405f208181548110610edb575f80fd5b905f5260205f2090600302015f9150915050805f018054610efb90611f0b565b80601f0160208091040260200160405190810160405280929190818152602001828054610f2790611f0b565b8015610f725780601f10610f4957610100808354040283529160200191610f72565b820191905f5260205f20905b815481529060010190602001808311610f5557829003601f168201915b505050505090806001015f9054906101000a900473ffffffffffffffffffffffffffffffffffffffff1690806002018054610fac90611f0b565b80601f0160208091040260200160405190810160405280929190818152602001828054610fd890611f0b565b80156110235780601f10610ffa57610100808354040283529160200191611023565b820191905f5260205f20905b81548152906001019060200180831161100657829003601f168201915b5050505050905083565b60605f803373ffffffffffffffffffffffffffffffffffffffff1673ffffffffffffffffffffffffffffffffffffffff1681526020019081526020015f205f015f9054906101000a900473ffffffffffffffffffffffffffffffffffffffff1673ffffffffffffffffffffffffffffffffffffffff163373ffffffffffffffffffffffffffffffffffffffff16146110fa576040517f08c379a00000000000000000000000000000000000000000000000000000000081526004016110f19061229c565b60405180910390fd5b60015f805f3373ffffffffffffffffffffffffffffffffffffffff1673ffffffffffffffffffffffffffffffffffffffff1681526020019081526020015f205f015f9054906101000a900473ffffffffffffffffffffffffffffffffffffffff1673ffffffffffffffffffffffffffffffffffffffff1673ffffffffffffffffffffffffffffffffffffffff1681526020019081526020015f20805480602002602001604051908101604052809291908181526020015f905b82821015611357578382905f5260205f2090600302016040518060600160405290815f820180546111e390611f0b565b80601f016020809104026020016040519081016040528092919081815260200182805461120f90611f0b565b801561125a5780601f106112315761010080835404028352916020019161125a565b820191905f5260205f20905b81548152906001019060200180831161123d57829003601f168201915b50505050508152602001600182015f9054906101000a900473ffffffffffffffffffffffffffffffffffffffff1673ffffffffffffffffffffffffffffffffffffffff1673ffffffffffffffffffffffffffffffffffffffff1681526020016002820180546112c890611f0b565b80601f01602080910402602001604051908101604052809291908181526020018280546112f490611f0b565b801561133f5780601f106113165761010080835404028352916020019161133f565b820191905f5260205f20905b81548152906001019060200180831161132257829003601f168201915b505050505081525050815260200190600101906111b3565b50505050905090565b60605f803373ffffffffffffffffffffffffffffffffffffffff1673ffffffffffffffffffffffffffffffffffffffff1681526020019081526020015f20600401805480602002602001604051908101604052809291908181526020015f905b82821015611468578382905f5260205f200180546113dd90611f0b565b80601f016020809104026020016040519081016040528092919081815260200182805461140990611f0b565b80156114545780601f1061142b57610100808354040283529160200191611454565b820191905f5260205f20905b81548152906001019060200180831161143757829003601f168201915b5050505050815260200190600101906113c0565b50505050905090565b5f803373ffffffffffffffffffffffffffffffffffffffff1673ffffffffffffffffffffffffffffffffffffffff1681526020019081526020015f205f015f9054906101000a900473ffffffffffffffffffffffffffffffffffffffff1673ffffffffffffffffffffffffffffffffffffffff163373ffffffffffffffffffffffffffffffffffffffff161461153c576040517f08c379a00000000000000000000000000000000000000000000000000000000081526004016115339061229c565b60405180910390fd5b60015f803373ffffffffffffffffffffffffffffffffffffffff1673ffffffffffffffffffffffffffffffffffffffff1681526020019081526020015f206002018260405161158b9190611f75565b90815260200160405180910390205f8473ffffffffffffffffffffffffffffffffffffffff1673ffffffffffffffffffffffffffffffffffffffff1681526020019081526020015f205f6101000a81548160ff0219169083151502179055508173ffffffffffffffffffffffffffffffffffffffff167f883d542f167dfc5f47e8bf1532c171025ed0e4c59c1126c7f61749fa21976a45826040516116309190611ce2565b60405180910390a25050565b6040518060600160405280606081526020015f73ffffffffffffffffffffffffffffffffffffffff168152602001606081525090565b5f604051905090565b5f80fd5b5f80fd5b5f73ffffffffffffffffffffffffffffffffffffffff82169050919050565b5f6116ac82611683565b9050919050565b6116bc816116a2565b81146116c6575f80fd5b50565b5f813590506116d7816116b3565b92915050565b5f602082840312156116f2576116f161167b565b5b5f6116ff848285016116c9565b91505092915050565b611711816116a2565b82525050565b5f60208201905061172a5f830184611708565b92915050565b5f80fd5b5f80fd5b5f601f19601f8301169050919050565b7f4e487b71000000000000000000000000000000000000000000000000000000005f52604160045260245ffd5b61177e82611738565b810181811067ffffffffffffffff8211171561179d5761179c611748565b5b80604052505050565b5f6117af611672565b90506117bb8282611775565b919050565b5f67ffffffffffffffff8211156117da576117d9611748565b5b6117e382611738565b9050602081019050919050565b828183375f83830152505050565b5f61181061180b846117c0565b6117a6565b90508281526020810184848401111561182c5761182b611734565b5b6118378482856117f0565b509392505050565b5f82601f83011261185357611852611730565b5b81356118638482602086016117fe565b91505092915050565b5f602082840312156118815761188061167b565b5b5f82013567ffffffffffffffff81111561189e5761189d61167f565b5b6118aa8482850161183f565b91505092915050565b5f81519050919050565b5f82825260208201905092915050565b5f819050602082019050919050565b5f81519050919050565b5f82825260208201905092915050565b5f5b838110156119135780820151818401526020810190506118f8565b5f8484015250505050565b5f611928826118dc565b61193281856118e6565b93506119428185602086016118f6565b61194b81611738565b840191505092915050565b61195f816116a2565b82525050565b5f606083015f8301518482035f86015261197f828261191e565b91505060208301516119946020860182611956565b50604083015184820360408601526119ac828261191e565b9150508091505092915050565b5f6119c48383611965565b905092915050565b5f602082019050919050565b5f6119e2826118b3565b6119ec81856118bd565b9350836020820285016119fe856118cd565b805f5b85811015611a395784840389528151611a1a85826119b9565b9450611a25836119cc565b925060208a01995050600181019050611a01565b50829750879550505050505092915050565b5f81519050919050565b5f82825260208201905092915050565b5f819050602082019050919050565b5f8115159050919050565b611a8881611a74565b82525050565b5f611a998383611a7f565b60208301905092915050565b5f602082019050919050565b5f611abb82611a4b565b611ac58185611a55565b9350611ad083611a65565b805f5b83811015611b00578151611ae78882611a8e565b9750611af283611aa5565b925050600181019050611ad3565b5085935050505092915050565b5f6040820190508181035f830152611b2581856119d8565b90508181036020830152611b398184611ab1565b90509392505050565b5f8060408385031215611b5857611b5761167b565b5b5f83013567ffffffffffffffff811115611b7557611b7461167f565b5b611b818582860161183f565b925050602083013567ffffffffffffffff811115611ba257611ba161167f565b5b611bae8582860161183f565b9150509250929050565b5f8060408385031215611bce57611bcd61167b565b5b5f611bdb858286016116c9565b925050602083013567ffffffffffffffff811115611bfc57611bfb61167f565b5b611c088582860161183f565b9150509250929050565b5f805f60608486031215611c2957611c2861167b565b5b5f611c36868287016116c9565b935050602084013567ffffffffffffffff811115611c5757611c5661167f565b5b611c638682870161183f565b925050604084013567ffffffffffffffff811115611c8457611c8361167f565b5b611c908682870161183f565b9150509250925092565b5f82825260208201905092915050565b5f611cb4826118dc565b611cbe8185611c9a565b9350611cce8185602086016118f6565b611cd781611738565b840191505092915050565b5f6020820190508181035f830152611cfa8184611caa565b905092915050565b5f819050919050565b611d1481611d02565b8114611d1e575f80fd5b50565b5f81359050611d2f81611d0b565b92915050565b5f8060408385031215611d4b57611d4a61167b565b5b5f611d58858286016116c9565b9250506020611d6985828601611d21565b9150509250929050565b5f6060820190508181035f830152611d8b8186611caa565b9050611d9a6020830185611708565b8181036040830152611dac8184611caa565b9050949350505050565b5f6020820190508181035f830152611dce81846119d8565b905092915050565b5f81519050919050565b5f82825260208201905092915050565b5f819050602082019050919050565b5f611e0a838361191e565b905092915050565b5f602082019050919050565b5f611e2882611dd6565b611e328185611de0565b935083602082028501611e4485611df0565b805f5b85811015611e7f5784840389528151611e608582611dff565b9450611e6b83611e12565b925060208a01995050600181019050611e47565b50829750879550505050505092915050565b5f6020820190508181035f830152611ea98184611e1e565b905092915050565b7f4e487b71000000000000000000000000000000000000000000000000000000005f52603260045260245ffd5b7f4e487b71000000000000000000000000000000000000000000000000000000005f52602260045260245ffd5b5f6002820490506001821680611f2257607f821691505b602082108103611f3557611f34611ede565b5b50919050565b5f81905092915050565b5f611f4f826118dc565b611f598185611f3b565b9350611f698185602086016118f6565b80840191505092915050565b5f611f808284611f45565b915081905092915050565b5f819050815f5260205f209050919050565b5f6020601f8301049050919050565b5f82821b905092915050565b5f60088302611fe77fffffffffffffffffffffffffffffffffffffffffffffffffffffffffffffffff82611fac565b611ff18683611fac565b95508019841693508086168417925050509392505050565b5f819050919050565b5f61202c61202761202284611d02565b612009565b611d02565b9050919050565b5f819050919050565b61204583612012565b61205961205182612033565b848454611fb8565b825550505050565b5f90565b61206d612061565b61207881848461203c565b505050565b5b8181101561209b576120905f82612065565b60018101905061207e565b5050565b601f8211156120e0576120b181611f8b565b6120ba84611f9d565b810160208510156120c9578190505b6120dd6120d585611f9d565b83018261207d565b50505b505050565b5f82821c905092915050565b5f6121005f19846008026120e5565b1980831691505092915050565b5f61211883836120f1565b9150826002028217905092915050565b612131826118dc565b67ffffffffffffffff81111561214a57612149611748565b5b6121548254611f0b565b61215f82828561209f565b5f60209050601f831160018114612190575f841561217e578287015190505b612188858261210d565b8655506121ef565b601f19841661219e86611f8b565b5f5b828110156121c5578489015182556001820191506020850194506020810190506121a0565b868310156121e257848901516121de601f8916826120f1565b8355505b6001600288020188555050505b505050505050565b5f6040820190508181035f83015261220f8185611caa565b905081810360208301526122238184611caa565b90509392505050565b7f4f6e6c79207468652070617469656e742063616e20706572666f726d207468695f8201527f7320616374696f6e000000000000000000000000000000000000000000000000602082015250565b5f612286602883611c9a565b91506122918261222c565b604082019050919050565b5f6020820190508181035f8301526122b38161227a565b9050919050565b5f6080820190506122cd5f830187611708565b81810360208301526122df8186611caa565b90506122ee6040830185611708565b81810360608301526123008184611caa565b905095945050505050565b7f556e617574686f72697a65642061636365737320666f722064617461207479705f8201527f6500000000000000000000000000000000000000000000000000000000000000602082015250565b5f612365602183611c9a565b91506123708261230b565b604082019050919050565b5f6020820190508181035f83015261239281612359565b905091905056fea2646970667358221220199f6bcd6007ebf7fdf100c4549a586ddcc9c557643c4a76fa5fb1651ee2df1064736f6c63430008170033",
  "immutableReferences": {},
  "source": "// SPDX-License-Identifier: MIT\r\npragma solidity ^0.8.7;\r\n\r\ncontract PatientOrgContract {\r\n    struct Organization {\r\n        string name;\r\n        address orgAddress;\r\n        string role;\r\n    }\r\n\r\n    struct AccessControl {\r\n        address patient;\r\n        mapping(address => bool) authorizedEntities;\r\n        mapping(string => mapping(address => bool)) authorizedEntitiesForDataType;\r\n        mapping(string => string) patientData;\r\n        string[] dataTypes;\r\n    }\r\n\r\n    mapping(address => AccessControl) public patientAccessControls; // Mapping to store AccessControl for each patient\r\n    mapping(address => Organization[]) public patientOrganizations; // Stores multiple organizations for each patient\r\n\r\n    // Events\r\n    event AccessGranted(address indexed entity, string dataType);\r\n    event AccessRevoked(address indexed entity, string dataType);\r\n    event PatientDataUpdated(string dataType, string ipfsUri);\r\n    event OrganizationAdded(address patient, string name, address orgAddress, string role);\r\n\r\n    // Set patient access control\r\n    function setPatient(address _patient) public {\r\n        patientAccessControls[_patient].patient = _patient;\r\n    }\r\n\r\n    modifier onlyPatient() {\r\n        require(msg.sender == patientAccessControls[msg.sender].patient, \"Only the patient can perform this action\");\r\n        _;\r\n    }\r\n\r\n    // Add an organization for the patient\r\n    function addOrganizationForPatient(address _orgAddress, string memory _name, string memory _role) public onlyPatient {\r\n        Organization memory newOrg = Organization(_name, _orgAddress, _role);\r\n        patientOrganizations[patientAccessControls[msg.sender].patient].push(newOrg);\r\n        emit OrganizationAdded(patientAccessControls[msg.sender].patient, _name, _orgAddress, _role);\r\n    }\r\n\r\n    // Get all organizations for a patient\r\n    function getPatientOrganizations() public view onlyPatient returns (Organization[] memory) {\r\n        return patientOrganizations[patientAccessControls[msg.sender].patient];\r\n    }\r\n\r\n    // Update patient data\r\n    function updatePatientData(string memory _dataType, string memory _ipfsUri) public {\r\n        AccessControl storage accessControl = patientAccessControls[msg.sender];\r\n\r\n        if (bytes(accessControl.patientData[_dataType]).length == 0) {\r\n            accessControl.dataTypes.push(_dataType);\r\n        }\r\n        accessControl.patientData[_dataType] = _ipfsUri;\r\n        emit PatientDataUpdated(_dataType, _ipfsUri);\r\n    }\r\n\r\n    // Get the list of data types\r\n    function getPatientDataTypes() public view returns (string[] memory) {\r\n        return patientAccessControls[msg.sender].dataTypes;\r\n    }\r\n\r\n    // Get patient data URI\r\n    function getPatientDataUri(string memory _dataType) public view returns (string memory) {\r\n        AccessControl storage accessControl = patientAccessControls[msg.sender];\r\n\r\n        require(accessControl.authorizedEntitiesForDataType[_dataType][msg.sender] || msg.sender == accessControl.patient, \"Unauthorized access for data type\");\r\n        return accessControl.patientData[_dataType];\r\n    }\r\n\r\n    // Grant access to a data type\r\n    function grantAccess(address _entity, string memory _dataType) public onlyPatient {\r\n        patientAccessControls[msg.sender].authorizedEntitiesForDataType[_dataType][_entity] = true;\r\n        emit AccessGranted(_entity, _dataType);\r\n    }\r\n\r\n    // Revoke access from a data type\r\n    function revokeAccess(address _entity, string memory _dataType) public onlyPatient {\r\n        patientAccessControls[msg.sender].authorizedEntitiesForDataType[_dataType][_entity] = false;\r\n        emit AccessRevoked(_entity, _dataType);\r\n    }\r\n\r\n    function getOrganizationsAccessForDataType(string memory _dataType) public view returns (Organization[] memory, bool[] memory) {\r\n        AccessControl storage accessControl = patientAccessControls[msg.sender];\r\n\r\n        uint orgCount = patientOrganizations[accessControl.patient].length;\r\n        Organization[] memory orgs = new Organization[](orgCount);\r\n        bool[] memory hasAccess = new bool[](orgCount);\r\n\r\n        for (uint i = 0; i < orgCount; i++) {\r\n            orgs[i] = patientOrganizations[accessControl.patient][i];\r\n            hasAccess[i] = accessControl.authorizedEntitiesForDataType[_dataType][orgs[i].orgAddress];\r\n        }\r\n\r\n        return (orgs, hasAccess);\r\n    }\r\n}\r\n",
  "sourcePath": "A:\\Sem-VII\\Research Project\\Enabling-Secure-Access-Control-of-Electronic-Health-Records-through-Smart-Contracts\\truffle\\contracts\\PatientOrgContract.sol",
  "compiler": {
    "name": "solc",
    "version": "0.8.23+commit.f704f362.Emscripten.clang"
  },
  "schemaVersion": "3.4.8",
  "updatedAt": "2023-11-13T19:42:42.460Z",
  "networkType": "ethereum",
  "devdoc": {
    "kind": "dev",
    "methods": {},
    "version": 1
  },
  "userdoc": {
    "kind": "user",
    "methods": {},
    "version": 1
  }
}