{
  "contractName": "PatientOrgContract",
  "abi": [
    {
      "anonymous": false,
      "inputs": [
        {
          "indexed": true,
          "internalType": "address",
          "name": "entity",
          "type": "address"
        },
        {
          "indexed": false,
          "internalType": "string",
          "name": "dataType",
          "type": "string"
        }
      ],
      "name": "AccessGranted",
      "type": "event"
    },
    {
      "anonymous": false,
      "inputs": [
        {
          "indexed": true,
          "internalType": "address",
          "name": "entity",
          "type": "address"
        },
        {
          "indexed": false,
          "internalType": "string",
          "name": "dataType",
          "type": "string"
        }
      ],
      "name": "AccessRevoked",
      "type": "event"
    },
    {
      "anonymous": false,
      "inputs": [
        {
          "indexed": false,
          "internalType": "address",
          "name": "patient",
          "type": "address"
        },
        {
          "indexed": false,
          "internalType": "string",
          "name": "name",
          "type": "string"
        },
        {
          "indexed": false,
          "internalType": "address",
          "name": "orgAddress",
          "type": "address"
        },
        {
          "indexed": false,
          "internalType": "string",
          "name": "role",
          "type": "string"
        }
      ],
      "name": "OrganizationAdded",
      "type": "event"
    },
    {
      "anonymous": false,
      "inputs": [
        {
          "indexed": false,
          "internalType": "string",
          "name": "dataType",
          "type": "string"
        },
        {
          "indexed": false,
          "internalType": "string",
          "name": "ipfsUri",
          "type": "string"
        }
      ],
      "name": "PatientDataUpdated",
      "type": "event"
    },
    {
      "inputs": [
        {
          "internalType": "address",
          "name": "",
          "type": "address"
        }
      ],
      "name": "patientAccessControls",
      "outputs": [
        {
          "internalType": "address",
          "name": "patient",
          "type": "address"
        }
      ],
      "stateMutability": "view",
      "type": "function",
      "constant": true
    },
    {
      "inputs": [
        {
          "internalType": "address",
          "name": "",
          "type": "address"
        },
        {
          "internalType": "uint256",
          "name": "",
          "type": "uint256"
        }
      ],
      "name": "patientOrganizations",
      "outputs": [
        {
          "internalType": "string",
          "name": "name",
          "type": "string"
        },
        {
          "internalType": "address",
          "name": "orgAddress",
          "type": "address"
        },
        {
          "internalType": "string",
          "name": "role",
          "type": "string"
        }
      ],
      "stateMutability": "view",
      "type": "function",
      "constant": true
    },
    {
      "inputs": [
        {
          "internalType": "address",
          "name": "patient",
          "type": "address"
        }
      ],
      "name": "getAllOrganizationsWithAccess",
      "outputs": [
        {
          "components": [
            {
              "internalType": "string",
              "name": "name",
              "type": "string"
            },
            {
              "internalType": "address",
              "name": "orgAddress",
              "type": "address"
            },
            {
              "components": [
                {
                  "internalType": "string",
                  "name": "dataType",
                  "type": "string"
                },
                {
                  "internalType": "bool",
                  "name": "hasAccess",
                  "type": "bool"
                }
              ],
              "internalType": "struct PatientOrgContract.DataTypeWithAccess[]",
              "name": "hasAccess",
              "type": "tuple[]"
            }
          ],
          "internalType": "struct PatientOrgContract.OrganizationWithAccess[]",
          "name": "",
          "type": "tuple[]"
        }
      ],
      "stateMutability": "view",
      "type": "function",
      "constant": true
    },
    {
      "inputs": [
        {
          "internalType": "address",
          "name": "_orgAddress",
          "type": "address"
        },
        {
          "internalType": "address",
          "name": "patient",
          "type": "address"
        }
      ],
      "name": "getAllDataTypesWithAccessForOrganization",
      "outputs": [
        {
          "components": [
            {
              "internalType": "string",
              "name": "dataType",
              "type": "string"
            },
            {
              "internalType": "bool",
              "name": "hasAccess",
              "type": "bool"
            }
          ],
          "internalType": "struct PatientOrgContract.DataTypeWithAccess[]",
          "name": "",
          "type": "tuple[]"
        }
      ],
      "stateMutability": "view",
      "type": "function",
      "constant": true
    },
    {
      "inputs": [
        {
          "internalType": "address",
          "name": "_patient",
          "type": "address"
        }
      ],
      "name": "setPatient",
      "outputs": [],
      "stateMutability": "nonpayable",
      "type": "function"
    },
    {
      "inputs": [
        {
          "internalType": "address",
          "name": "_orgAddress",
          "type": "address"
        },
        {
          "internalType": "string",
          "name": "_name",
          "type": "string"
        },
        {
          "internalType": "string",
          "name": "_role",
          "type": "string"
        }
      ],
      "name": "addOrganizationForPatient",
      "outputs": [],
      "stateMutability": "nonpayable",
      "type": "function"
    },
    {
      "inputs": [],
      "name": "getPatientOrganizations",
      "outputs": [
        {
          "components": [
            {
              "internalType": "string",
              "name": "name",
              "type": "string"
            },
            {
              "internalType": "address",
              "name": "orgAddress",
              "type": "address"
            },
            {
              "internalType": "string",
              "name": "role",
              "type": "string"
            }
          ],
          "internalType": "struct PatientOrgContract.Organization[]",
          "name": "",
          "type": "tuple[]"
        }
      ],
      "stateMutability": "view",
      "type": "function",
      "constant": true
    },
    {
      "inputs": [
        {
          "internalType": "string",
          "name": "_dataType",
          "type": "string"
        },
        {
          "internalType": "string",
          "name": "_ipfsUri",
          "type": "string"
        }
      ],
      "name": "updatePatientData",
      "outputs": [],
      "stateMutability": "nonpayable",
      "type": "function"
    },
    {
      "inputs": [],
      "name": "getPatientDataTypes",
      "outputs": [
        {
          "internalType": "string[]",
          "name": "",
          "type": "string[]"
        }
      ],
      "stateMutability": "view",
      "type": "function",
      "constant": true
    },
    {
      "inputs": [
        {
          "internalType": "string",
          "name": "_dataType",
          "type": "string"
        },
        {
          "internalType": "address",
          "name": "patient",
          "type": "address"
        },
        {
          "internalType": "address",
          "name": "sender",
          "type": "address"
        }
      ],
      "name": "getPatientDataUri",
      "outputs": [
        {
          "internalType": "string",
          "name": "",
          "type": "string"
        }
      ],
      "stateMutability": "view",
      "type": "function",
      "constant": true
    },
    {
      "inputs": [
        {
          "internalType": "address",
          "name": "_entity",
          "type": "address"
        },
        {
          "internalType": "string",
          "name": "_dataType",
          "type": "string"
        }
      ],
      "name": "grantAccess",
      "outputs": [],
      "stateMutability": "nonpayable",
      "type": "function"
    },
    {
      "inputs": [
        {
          "internalType": "address",
          "name": "_entity",
          "type": "address"
        },
        {
          "internalType": "string",
          "name": "_dataType",
          "type": "string"
        }
      ],
      "name": "revokeAccess",
      "outputs": [],
      "stateMutability": "nonpayable",
      "type": "function"
    },
    {
      "inputs": [
        {
          "internalType": "string",
          "name": "_dataType",
          "type": "string"
        }
      ],
      "name": "getOrganizationsAccessForDataType",
      "outputs": [
        {
          "components": [
            {
              "internalType": "string",
              "name": "name",
              "type": "string"
            },
            {
              "internalType": "address",
              "name": "orgAddress",
              "type": "address"
            },
            {
              "internalType": "string",
              "name": "role",
              "type": "string"
            }
          ],
          "internalType": "struct PatientOrgContract.Organization[]",
          "name": "",
          "type": "tuple[]"
        },
        {
          "internalType": "bool[]",
          "name": "",
          "type": "bool[]"
        }
      ],
      "stateMutability": "view",
      "type": "function",
      "constant": true
    }
  ],
  "bytecode": "0x608060405234801561000f575f80fd5b50612dc98061001d5f395ff3fe608060405234801561000f575f80fd5b50600436106100cd575f3560e01c80639822ff8d1161008a578063d9b1d70e11610064578063d9b1d70e14610234578063df63747f14610252578063e50fe48e14610270578063ea6729891461028c576100cd565b80639822ff8d146101a25780639bf32ec8146101d2578063c1a2b94e14610202576100cd565b806308b795b1146100d15780631164ee4d1461010157806324a586601461013257806350eeed4f1461014e5780636a44cac91461016a578063723f8ab514610186575b5f80fd5b6100eb60048036038101906100e69190611df4565b6102bc565b6040516100f89190611e2e565b60405180910390f35b61011b60048036038101906101169190611f83565b6102f4565b604051610129929190612224565b60405180910390f35b61014c60048036038101906101479190612259565b61072b565b005b61016860048036038101906101639190611df4565b61083e565b005b610184600480360381019061017f91906122cf565b6108bd565b005b6101a0600480360381019061019b9190612329565b610a87565b005b6101bc60048036038101906101b79190611df4565b610d59565b6040516101c991906125b5565b60405180910390f35b6101ec60048036038101906101e791906125d5565b6110dd565b6040516101f99190612696565b60405180910390f35b61021c600480360381019061021791906126e9565b6113b9565b60405161022b9392919061276f565b60405180910390f35b61023c611524565b60405161024991906127b2565b60405180910390f35b61025a611857565b604051610267919061288d565b60405180910390f35b61028a600480360381019061028591906122cf565b611968565b005b6102a660048036038101906102a191906128ad565b611b33565b6040516102b39190612919565b60405180910390f35b5f602052805f5260405f205f91509050805f015f9054906101000a900473ffffffffffffffffffffffffffffffffffffffff16905081565b6060805f805f3373ffffffffffffffffffffffffffffffffffffffff1673ffffffffffffffffffffffffffffffffffffffff1681526020019081526020015f2090505f60015f835f015f9054906101000a900473ffffffffffffffffffffffffffffffffffffffff1673ffffffffffffffffffffffffffffffffffffffff1673ffffffffffffffffffffffffffffffffffffffff1681526020019081526020015f208054905090505f8167ffffffffffffffff8111156103b7576103b6611e5f565b5b6040519080825280602002602001820160405280156103f057816020015b6103dd611d02565b8152602001906001900390816103d55790505b5090505f8267ffffffffffffffff81111561040e5761040d611e5f565b5b60405190808252806020026020018201604052801561043c5781602001602082028036833780820191505090505b5090505f5b8381101561071b5760015f865f015f9054906101000a900473ffffffffffffffffffffffffffffffffffffffff1673ffffffffffffffffffffffffffffffffffffffff1673ffffffffffffffffffffffffffffffffffffffff1681526020019081526020015f2081815481106104ba576104b9612939565b5b905f5260205f2090600302016040518060600160405290815f820180546104e090612993565b80601f016020809104026020016040519081016040528092919081815260200182805461050c90612993565b80156105575780601f1061052e57610100808354040283529160200191610557565b820191905f5260205f20905b81548152906001019060200180831161053a57829003601f168201915b50505050508152602001600182015f9054906101000a900473ffffffffffffffffffffffffffffffffffffffff1673ffffffffffffffffffffffffffffffffffffffff1673ffffffffffffffffffffffffffffffffffffffff1681526020016002820180546105c590612993565b80601f01602080910402602001604051908101604052809291908181526020018280546105f190612993565b801561063c5780601f106106135761010080835404028352916020019161063c565b820191905f5260205f20905b81548152906001019060200180831161061f57829003601f168201915b50505050508152505083828151811061065857610657612939565b5b6020026020010181905250846002018860405161067591906129fd565b90815260200160405180910390205f84838151811061069757610696612939565b5b60200260200101516020015173ffffffffffffffffffffffffffffffffffffffff1673ffffffffffffffffffffffffffffffffffffffff1681526020019081526020015f205f9054906101000a900460ff168282815181106106fc576106fb612939565b5b6020026020010190151590811515815250508080600101915050610441565b5081819550955050505050915091565b5f805f3373ffffffffffffffffffffffffffffffffffffffff1673ffffffffffffffffffffffffffffffffffffffff1681526020019081526020015f2090505f816003018460405161077d91906129fd565b9081526020016040518091039020805461079690612993565b9050036107d2578060040183908060018154018082558091505060019003905f5260205f20015f9091909190915090816107d09190612bb0565b505b8181600301846040516107e591906129fd565b908152602001604051809103902090816107ff9190612bb0565b507ff003290f29262794ffea7a9da5f0e2d45291d0bf3cf968cadeaf7ca35b2df2158383604051610831929190612c7f565b60405180910390a1505050565b805f808373ffffffffffffffffffffffffffffffffffffffff1673ffffffffffffffffffffffffffffffffffffffff1681526020019081526020015f205f015f6101000a81548173ffffffffffffffffffffffffffffffffffffffff021916908373ffffffffffffffffffffffffffffffffffffffff16021790555050565b5f803373ffffffffffffffffffffffffffffffffffffffff1673ffffffffffffffffffffffffffffffffffffffff1681526020019081526020015f205f015f9054906101000a900473ffffffffffffffffffffffffffffffffffffffff1673ffffffffffffffffffffffffffffffffffffffff163373ffffffffffffffffffffffffffffffffffffffff1614610988576040517f08c379a000000000000000000000000000000000000000000000000000000000815260040161097f90612d24565b60405180910390fd5b5f805f3373ffffffffffffffffffffffffffffffffffffffff1673ffffffffffffffffffffffffffffffffffffffff1681526020019081526020015f20600201826040516109d691906129fd565b90815260200160405180910390205f8473ffffffffffffffffffffffffffffffffffffffff1673ffffffffffffffffffffffffffffffffffffffff1681526020019081526020015f205f6101000a81548160ff0219169083151502179055508173ffffffffffffffffffffffffffffffffffffffff167f51cbcaaca6ae26944c6280c966a07b04ca5c6766d82ca497ded152579431468d82604051610a7b9190612919565b60405180910390a25050565b5f803373ffffffffffffffffffffffffffffffffffffffff1673ffffffffffffffffffffffffffffffffffffffff1681526020019081526020015f205f015f9054906101000a900473ffffffffffffffffffffffffffffffffffffffff1673ffffffffffffffffffffffffffffffffffffffff163373ffffffffffffffffffffffffffffffffffffffff1614610b52576040517f08c379a0000000000000000000000000000000000000000000000000000000008152600401610b4990612d24565b60405180910390fd5b5f60405180606001604052808481526020018573ffffffffffffffffffffffffffffffffffffffff16815260200183815250905060015f805f3373ffffffffffffffffffffffffffffffffffffffff1673ffffffffffffffffffffffffffffffffffffffff1681526020019081526020015f205f015f9054906101000a900473ffffffffffffffffffffffffffffffffffffffff1673ffffffffffffffffffffffffffffffffffffffff1673ffffffffffffffffffffffffffffffffffffffff1681526020019081526020015f2081908060018154018082558091505060019003905f5260205f2090600302015f909190919091505f820151815f019081610c5a9190612bb0565b506020820151816001015f6101000a81548173ffffffffffffffffffffffffffffffffffffffff021916908373ffffffffffffffffffffffffffffffffffffffff1602179055506040820151816002019081610cb69190612bb0565b5050507fcae71f98f8d9f298b947f99845d4ca2edd3f25f6582cd2fb82755bdd5be7d6925f803373ffffffffffffffffffffffffffffffffffffffff1673ffffffffffffffffffffffffffffffffffffffff1681526020019081526020015f205f015f9054906101000a900473ffffffffffffffffffffffffffffffffffffffff16848685604051610d4b9493929190612d42565b60405180910390a150505050565b60605f805f8473ffffffffffffffffffffffffffffffffffffffff1673ffffffffffffffffffffffffffffffffffffffff1681526020019081526020015f2090505f60015f835f015f9054906101000a900473ffffffffffffffffffffffffffffffffffffffff1673ffffffffffffffffffffffffffffffffffffffff1673ffffffffffffffffffffffffffffffffffffffff1681526020019081526020015f208054905090505f8167ffffffffffffffff811115610e1b57610e1a611e5f565b5b604051908082528060200260200182016040528015610e5457816020015b610e41611d38565b815260200190600190039081610e395790505b5090505f5b828110156110d1575f60015f865f015f9054906101000a900473ffffffffffffffffffffffffffffffffffffffff1673ffffffffffffffffffffffffffffffffffffffff1673ffffffffffffffffffffffffffffffffffffffff1681526020019081526020015f208281548110610ed357610ed2612939565b5b905f5260205f2090600302016040518060600160405290815f82018054610ef990612993565b80601f0160208091040260200160405190810160405280929190818152602001828054610f2590612993565b8015610f705780601f10610f4757610100808354040283529160200191610f70565b820191905f5260205f20905b815481529060010190602001808311610f5357829003601f168201915b50505050508152602001600182015f9054906101000a900473ffffffffffffffffffffffffffffffffffffffff1673ffffffffffffffffffffffffffffffffffffffff1673ffffffffffffffffffffffffffffffffffffffff168152602001600282018054610fde90612993565b80601f016020809104026020016040519081016040528092919081815260200182805461100a90612993565b80156110555780601f1061102c57610100808354040283529160200191611055565b820191905f5260205f20905b81548152906001019060200180831161103857829003601f168201915b50505050508152505090506040518060600160405280825f01518152602001826020015173ffffffffffffffffffffffffffffffffffffffff1681526020016110a283602001518a6110dd565b8152508383815181106110b8576110b7612939565b5b6020026020010181905250508080600101915050610e59565b50809350505050919050565b60605f803373ffffffffffffffffffffffffffffffffffffffff1673ffffffffffffffffffffffffffffffffffffffff1681526020019081526020015f205f015f9054906101000a900473ffffffffffffffffffffffffffffffffffffffff1673ffffffffffffffffffffffffffffffffffffffff163373ffffffffffffffffffffffffffffffffffffffff16146111aa576040517f08c379a00000000000000000000000000000000000000000000000000000000081526004016111a190612d24565b60405180910390fd5b5f805f8473ffffffffffffffffffffffffffffffffffffffff1673ffffffffffffffffffffffffffffffffffffffff1681526020019081526020015f2090505f816004018054905090505f8167ffffffffffffffff81111561120f5761120e611e5f565b5b60405190808252806020026020018201604052801561124857816020015b611235611d6e565b81526020019060019003908161122d5790505b5090505f5b828110156113ac575f84600401828154811061126c5761126b612939565b5b905f5260205f2001805461127f90612993565b80601f01602080910402602001604051908101604052809291908181526020018280546112ab90612993565b80156112f65780601f106112cd576101008083540402835291602001916112f6565b820191905f5260205f20905b8154815290600101906020018083116112d957829003601f168201915b505050505090505f856002018260405161131091906129fd565b90815260200160405180910390205f8a73ffffffffffffffffffffffffffffffffffffffff1673ffffffffffffffffffffffffffffffffffffffff1681526020019081526020015f205f9054906101000a900460ff169050604051806040016040528083815260200182151581525084848151811061139257611391612939565b5b60200260200101819052505050808060010191505061124d565b5080935050505092915050565b6001602052815f5260405f2081815481106113d2575f80fd5b905f5260205f2090600302015f9150915050805f0180546113f290612993565b80601f016020809104026020016040519081016040528092919081815260200182805461141e90612993565b80156114695780601f1061144057610100808354040283529160200191611469565b820191905f5260205f20905b81548152906001019060200180831161144c57829003601f168201915b505050505090806001015f9054906101000a900473ffffffffffffffffffffffffffffffffffffffff16908060020180546114a390612993565b80601f01602080910402602001604051908101604052809291908181526020018280546114cf90612993565b801561151a5780601f106114f15761010080835404028352916020019161151a565b820191905f5260205f20905b8154815290600101906020018083116114fd57829003601f168201915b5050505050905083565b60605f803373ffffffffffffffffffffffffffffffffffffffff1673ffffffffffffffffffffffffffffffffffffffff1681526020019081526020015f205f015f9054906101000a900473ffffffffffffffffffffffffffffffffffffffff1673ffffffffffffffffffffffffffffffffffffffff163373ffffffffffffffffffffffffffffffffffffffff16146115f1576040517f08c379a00000000000000000000000000000000000000000000000000000000081526004016115e890612d24565b60405180910390fd5b60015f805f3373ffffffffffffffffffffffffffffffffffffffff1673ffffffffffffffffffffffffffffffffffffffff1681526020019081526020015f205f015f9054906101000a900473ffffffffffffffffffffffffffffffffffffffff1673ffffffffffffffffffffffffffffffffffffffff1673ffffffffffffffffffffffffffffffffffffffff1681526020019081526020015f20805480602002602001604051908101604052809291908181526020015f905b8282101561184e578382905f5260205f2090600302016040518060600160405290815f820180546116da90612993565b80601f016020809104026020016040519081016040528092919081815260200182805461170690612993565b80156117515780601f1061172857610100808354040283529160200191611751565b820191905f5260205f20905b81548152906001019060200180831161173457829003601f168201915b50505050508152602001600182015f9054906101000a900473ffffffffffffffffffffffffffffffffffffffff1673ffffffffffffffffffffffffffffffffffffffff1673ffffffffffffffffffffffffffffffffffffffff1681526020016002820180546117bf90612993565b80601f01602080910402602001604051908101604052809291908181526020018280546117eb90612993565b80156118365780601f1061180d57610100808354040283529160200191611836565b820191905f5260205f20905b81548152906001019060200180831161181957829003601f168201915b505050505081525050815260200190600101906116aa565b50505050905090565b60605f803373ffffffffffffffffffffffffffffffffffffffff1673ffffffffffffffffffffffffffffffffffffffff1681526020019081526020015f20600401805480602002602001604051908101604052809291908181526020015f905b8282101561195f578382905f5260205f200180546118d490612993565b80601f016020809104026020016040519081016040528092919081815260200182805461190090612993565b801561194b5780601f106119225761010080835404028352916020019161194b565b820191905f5260205f20905b81548152906001019060200180831161192e57829003601f168201915b5050505050815260200190600101906118b7565b50505050905090565b5f803373ffffffffffffffffffffffffffffffffffffffff1673ffffffffffffffffffffffffffffffffffffffff1681526020019081526020015f205f015f9054906101000a900473ffffffffffffffffffffffffffffffffffffffff1673ffffffffffffffffffffffffffffffffffffffff163373ffffffffffffffffffffffffffffffffffffffff1614611a33576040517f08c379a0000000000000000000000000000000000000000000000000000000008152600401611a2a90612d24565b60405180910390fd5b60015f803373ffffffffffffffffffffffffffffffffffffffff1673ffffffffffffffffffffffffffffffffffffffff1681526020019081526020015f2060020182604051611a8291906129fd565b90815260200160405180910390205f8473ffffffffffffffffffffffffffffffffffffffff1673ffffffffffffffffffffffffffffffffffffffff1681526020019081526020015f205f6101000a81548160ff0219169083151502179055508173ffffffffffffffffffffffffffffffffffffffff167f883d542f167dfc5f47e8bf1532c171025ed0e4c59c1126c7f61749fa21976a4582604051611b279190612919565b60405180910390a25050565b60605f805f8573ffffffffffffffffffffffffffffffffffffffff1673ffffffffffffffffffffffffffffffffffffffff1681526020019081526020015f2090508060020185604051611b8691906129fd565b90815260200160405180910390205f8473ffffffffffffffffffffffffffffffffffffffff1673ffffffffffffffffffffffffffffffffffffffff1681526020019081526020015f205f9054906101000a900460ff1680611c345750805f015f9054906101000a900473ffffffffffffffffffffffffffffffffffffffff1673ffffffffffffffffffffffffffffffffffffffff168373ffffffffffffffffffffffffffffffffffffffff16145b15611ce8578060030185604051611c4b91906129fd565b90815260200160405180910390208054611c6490612993565b80601f0160208091040260200160405190810160405280929190818152602001828054611c9090612993565b8015611cdb5780601f10611cb257610100808354040283529160200191611cdb565b820191905f5260205f20905b815481529060010190602001808311611cbe57829003601f168201915b5050505050915050611cfb565b60405180602001604052805f8152509150505b9392505050565b6040518060600160405280606081526020015f73ffffffffffffffffffffffffffffffffffffffff168152602001606081525090565b6040518060600160405280606081526020015f73ffffffffffffffffffffffffffffffffffffffff168152602001606081525090565b6040518060400160405280606081526020015f151581525090565b5f604051905090565b5f80fd5b5f80fd5b5f73ffffffffffffffffffffffffffffffffffffffff82169050919050565b5f611dc382611d9a565b9050919050565b611dd381611db9565b8114611ddd575f80fd5b50565b5f81359050611dee81611dca565b92915050565b5f60208284031215611e0957611e08611d92565b5b5f611e1684828501611de0565b91505092915050565b611e2881611db9565b82525050565b5f602082019050611e415f830184611e1f565b92915050565b5f80fd5b5f80fd5b5f601f19601f8301169050919050565b7f4e487b71000000000000000000000000000000000000000000000000000000005f52604160045260245ffd5b611e9582611e4f565b810181811067ffffffffffffffff82111715611eb457611eb3611e5f565b5b80604052505050565b5f611ec6611d89565b9050611ed28282611e8c565b919050565b5f67ffffffffffffffff821115611ef157611ef0611e5f565b5b611efa82611e4f565b9050602081019050919050565b828183375f83830152505050565b5f611f27611f2284611ed7565b611ebd565b905082815260208101848484011115611f4357611f42611e4b565b5b611f4e848285611f07565b509392505050565b5f82601f830112611f6a57611f69611e47565b5b8135611f7a848260208601611f15565b91505092915050565b5f60208284031215611f9857611f97611d92565b5b5f82013567ffffffffffffffff811115611fb557611fb4611d96565b5b611fc184828501611f56565b91505092915050565b5f81519050919050565b5f82825260208201905092915050565b5f819050602082019050919050565b5f81519050919050565b5f82825260208201905092915050565b5f5b8381101561202a57808201518184015260208101905061200f565b5f8484015250505050565b5f61203f82611ff3565b6120498185611ffd565b935061205981856020860161200d565b61206281611e4f565b840191505092915050565b61207681611db9565b82525050565b5f606083015f8301518482035f8601526120968282612035565b91505060208301516120ab602086018261206d565b50604083015184820360408601526120c38282612035565b9150508091505092915050565b5f6120db838361207c565b905092915050565b5f602082019050919050565b5f6120f982611fca565b6121038185611fd4565b93508360208202850161211585611fe4565b805f5b85811015612150578484038952815161213185826120d0565b945061213c836120e3565b925060208a01995050600181019050612118565b50829750879550505050505092915050565b5f81519050919050565b5f82825260208201905092915050565b5f819050602082019050919050565b5f8115159050919050565b61219f8161218b565b82525050565b5f6121b08383612196565b60208301905092915050565b5f602082019050919050565b5f6121d282612162565b6121dc818561216c565b93506121e78361217c565b805f5b838110156122175781516121fe88826121a5565b9750612209836121bc565b9250506001810190506121ea565b5085935050505092915050565b5f6040820190508181035f83015261223c81856120ef565b9050818103602083015261225081846121c8565b90509392505050565b5f806040838503121561226f5761226e611d92565b5b5f83013567ffffffffffffffff81111561228c5761228b611d96565b5b61229885828601611f56565b925050602083013567ffffffffffffffff8111156122b9576122b8611d96565b5b6122c585828601611f56565b9150509250929050565b5f80604083850312156122e5576122e4611d92565b5b5f6122f285828601611de0565b925050602083013567ffffffffffffffff81111561231357612312611d96565b5b61231f85828601611f56565b9150509250929050565b5f805f606084860312156123405761233f611d92565b5b5f61234d86828701611de0565b935050602084013567ffffffffffffffff81111561236e5761236d611d96565b5b61237a86828701611f56565b925050604084013567ffffffffffffffff81111561239b5761239a611d96565b5b6123a786828701611f56565b9150509250925092565b5f81519050919050565b5f82825260208201905092915050565b5f819050602082019050919050565b5f81519050919050565b5f82825260208201905092915050565b5f819050602082019050919050565b5f604083015f8301518482035f86015261241d8282612035565b91505060208301516124326020860182612196565b508091505092915050565b5f6124488383612403565b905092915050565b5f602082019050919050565b5f612466826123da565b61247081856123e4565b935083602082028501612482856123f4565b805f5b858110156124bd578484038952815161249e858261243d565b94506124a983612450565b925060208a01995050600181019050612485565b50829750879550505050505092915050565b5f606083015f8301518482035f8601526124e98282612035565b91505060208301516124fe602086018261206d565b5060408301518482036040860152612516828261245c565b9150508091505092915050565b5f61252e83836124cf565b905092915050565b5f602082019050919050565b5f61254c826123b1565b61255681856123bb565b935083602082028501612568856123cb565b805f5b858110156125a357848403895281516125848582612523565b945061258f83612536565b925060208a0199505060018101905061256b565b50829750879550505050505092915050565b5f6020820190508181035f8301526125cd8184612542565b905092915050565b5f80604083850312156125eb576125ea611d92565b5b5f6125f885828601611de0565b925050602061260985828601611de0565b9150509250929050565b5f82825260208201905092915050565b5f61262d826123da565b6126378185612613565b935083602082028501612649856123f4565b805f5b858110156126845784840389528151612665858261243d565b945061267083612450565b925060208a0199505060018101905061264c565b50829750879550505050505092915050565b5f6020820190508181035f8301526126ae8184612623565b905092915050565b5f819050919050565b6126c8816126b6565b81146126d2575f80fd5b50565b5f813590506126e3816126bf565b92915050565b5f80604083850312156126ff576126fe611d92565b5b5f61270c85828601611de0565b925050602061271d858286016126d5565b9150509250929050565b5f82825260208201905092915050565b5f61274182611ff3565b61274b8185612727565b935061275b81856020860161200d565b61276481611e4f565b840191505092915050565b5f6060820190508181035f8301526127878186612737565b90506127966020830185611e1f565b81810360408301526127a88184612737565b9050949350505050565b5f6020820190508181035f8301526127ca81846120ef565b905092915050565b5f81519050919050565b5f82825260208201905092915050565b5f819050602082019050919050565b5f6128068383612035565b905092915050565b5f602082019050919050565b5f612824826127d2565b61282e81856127dc565b935083602082028501612840856127ec565b805f5b8581101561287b578484038952815161285c85826127fb565b94506128678361280e565b925060208a01995050600181019050612843565b50829750879550505050505092915050565b5f6020820190508181035f8301526128a5818461281a565b905092915050565b5f805f606084860312156128c4576128c3611d92565b5b5f84013567ffffffffffffffff8111156128e1576128e0611d96565b5b6128ed86828701611f56565b93505060206128fe86828701611de0565b925050604061290f86828701611de0565b9150509250925092565b5f6020820190508181035f8301526129318184612737565b905092915050565b7f4e487b71000000000000000000000000000000000000000000000000000000005f52603260045260245ffd5b7f4e487b71000000000000000000000000000000000000000000000000000000005f52602260045260245ffd5b5f60028204905060018216806129aa57607f821691505b6020821081036129bd576129bc612966565b5b50919050565b5f81905092915050565b5f6129d782611ff3565b6129e181856129c3565b93506129f181856020860161200d565b80840191505092915050565b5f612a0882846129cd565b915081905092915050565b5f819050815f5260205f209050919050565b5f6020601f8301049050919050565b5f82821b905092915050565b5f60088302612a6f7fffffffffffffffffffffffffffffffffffffffffffffffffffffffffffffffff82612a34565b612a798683612a34565b95508019841693508086168417925050509392505050565b5f819050919050565b5f612ab4612aaf612aaa846126b6565b612a91565b6126b6565b9050919050565b5f819050919050565b612acd83612a9a565b612ae1612ad982612abb565b848454612a40565b825550505050565b5f90565b612af5612ae9565b612b00818484612ac4565b505050565b5b81811015612b2357612b185f82612aed565b600181019050612b06565b5050565b601f821115612b6857612b3981612a13565b612b4284612a25565b81016020851015612b51578190505b612b65612b5d85612a25565b830182612b05565b50505b505050565b5f82821c905092915050565b5f612b885f1984600802612b6d565b1980831691505092915050565b5f612ba08383612b79565b9150826002028217905092915050565b612bb982611ff3565b67ffffffffffffffff811115612bd257612bd1611e5f565b5b612bdc8254612993565b612be7828285612b27565b5f60209050601f831160018114612c18575f8415612c06578287015190505b612c108582612b95565b865550612c77565b601f198416612c2686612a13565b5f5b82811015612c4d57848901518255600182019150602085019450602081019050612c28565b86831015612c6a5784890151612c66601f891682612b79565b8355505b6001600288020188555050505b505050505050565b5f6040820190508181035f830152612c978185612737565b90508181036020830152612cab8184612737565b90509392505050565b7f4f6e6c79207468652070617469656e742063616e20706572666f726d207468695f8201527f7320616374696f6e000000000000000000000000000000000000000000000000602082015250565b5f612d0e602883612727565b9150612d1982612cb4565b604082019050919050565b5f6020820190508181035f830152612d3b81612d02565b9050919050565b5f608082019050612d555f830187611e1f565b8181036020830152612d678186612737565b9050612d766040830185611e1f565b8181036060830152612d888184612737565b90509594505050505056fea26469706673582212200d8bfcf08537fcb0b66a2951723f011990fb752aa303de697e939b6ef0af78c564736f6c63430008170033",
  "immutableReferences": {},
  "source": "// SPDX-License-Identifier: MIT\r\npragma solidity ^0.8.7;\r\n\r\ncontract PatientOrgContract {\r\n    struct Organization {\r\n        string name;\r\n        address orgAddress;\r\n        string role;\r\n    }\r\n\r\n    struct AccessControl {\r\n        address patient;\r\n        mapping(address => bool) authorizedEntities;\r\n        mapping(string => mapping(address => bool)) authorizedEntitiesForDataType;\r\n        mapping(string => string) patientData;\r\n        string[] dataTypes;\r\n    }\r\n    struct OrganizationWithAccess {\r\n        string name;\r\n        address orgAddress;\r\n        DataTypeWithAccess[] hasAccess;\r\n    }\r\n\r\n    mapping(address => AccessControl) public patientAccessControls; // Mapping to store AccessControl for each patient\r\n    mapping(address => Organization[]) public patientOrganizations; // Stores multiple organizations for each patient\r\n\r\n    // Get all organizations and their access for a patient\r\n    function getAllOrganizationsWithAccess(address patient) public view returns (OrganizationWithAccess[] memory) {\r\n        AccessControl storage accessControl = patientAccessControls[patient];\r\n\r\n        uint orgCount = patientOrganizations[accessControl.patient].length;\r\n        OrganizationWithAccess[] memory orgsWithAccess = new OrganizationWithAccess[](orgCount);\r\n\r\n        for (uint i = 0; i < orgCount; i++) {\r\n            Organization memory org = patientOrganizations[accessControl.patient][i];\r\n            orgsWithAccess[i] = OrganizationWithAccess({\r\n                name: org.name,\r\n                orgAddress: org.orgAddress,\r\n                hasAccess: getAllDataTypesWithAccessForOrganization(org.orgAddress,patient)\r\n            });\r\n        }\r\n\r\n        return orgsWithAccess;\r\n    }\r\n\r\n        function getAllDataTypesWithAccessForOrganization(address _orgAddress,address patient) public view onlyPatient returns (DataTypeWithAccess[] memory) {\r\n        AccessControl storage accessControl = patientAccessControls[patient];\r\n\r\n        uint dataTypeCount = accessControl.dataTypes.length;\r\n        DataTypeWithAccess[] memory dataTypesWithAccess = new DataTypeWithAccess[](dataTypeCount);\r\n\r\n        for (uint i = 0; i < dataTypeCount; i++) {\r\n            string memory dataType = accessControl.dataTypes[i];\r\n            bool hasAccess = accessControl.authorizedEntitiesForDataType[dataType][_orgAddress];\r\n\r\n            dataTypesWithAccess[i] = DataTypeWithAccess({\r\n                dataType: dataType,\r\n                hasAccess: hasAccess\r\n            });\r\n        }\r\n\r\n        return dataTypesWithAccess;\r\n    }\r\n\r\n    // Helper struct to store data type details along with access status\r\n    struct DataTypeWithAccess {\r\n        string dataType;\r\n        bool hasAccess;\r\n    }\r\n    // Events\r\n    event AccessGranted(address indexed entity, string dataType);\r\n    event AccessRevoked(address indexed entity, string dataType);\r\n    event PatientDataUpdated(string dataType, string ipfsUri);\r\n    event OrganizationAdded(address patient, string name, address orgAddress, string role);\r\n\r\n    // Set patient access control\r\n    function setPatient(address _patient) public {\r\n        patientAccessControls[_patient].patient = _patient;\r\n    }\r\n\r\n    modifier onlyPatient() {\r\n        require(msg.sender == patientAccessControls[msg.sender].patient, \"Only the patient can perform this action\");\r\n        _;\r\n    }\r\n\r\n    // Add an organization for the patient\r\n    function addOrganizationForPatient(address _orgAddress, string memory _name, string memory _role) public onlyPatient {\r\n        Organization memory newOrg = Organization(_name, _orgAddress, _role);\r\n        patientOrganizations[patientAccessControls[msg.sender].patient].push(newOrg);\r\n        emit OrganizationAdded(patientAccessControls[msg.sender].patient, _name, _orgAddress, _role);\r\n    }\r\n\r\n    // Get all organizations for a patient\r\n    function getPatientOrganizations() public view onlyPatient returns (Organization[] memory) {\r\n        return patientOrganizations[patientAccessControls[msg.sender].patient];\r\n    }\r\n\r\n    // Update patient data\r\n    function updatePatientData(string memory _dataType, string memory _ipfsUri) public {\r\n        AccessControl storage accessControl = patientAccessControls[msg.sender];\r\n\r\n        if (bytes(accessControl.patientData[_dataType]).length == 0) {\r\n            accessControl.dataTypes.push(_dataType);\r\n        }\r\n        accessControl.patientData[_dataType] = _ipfsUri;\r\n        emit PatientDataUpdated(_dataType, _ipfsUri);\r\n    }\r\n\r\n    // Get the list of data types\r\n    function getPatientDataTypes() public view returns (string[] memory) {\r\n        return patientAccessControls[msg.sender].dataTypes;\r\n    }\r\n\r\n    // Get patient data URI\r\n    function getPatientDataUri(string memory _dataType,address patient,address sender) public view returns (string memory) {\r\n        AccessControl storage accessControl = patientAccessControls[patient];\r\n\r\n        if (accessControl.authorizedEntitiesForDataType[_dataType][sender] || sender == accessControl.patient){\r\n\r\n        return accessControl.patientData[_dataType];\r\n        }\r\n        return \"\";\r\n    }\r\n    // Grant access to a data type\r\n    function grantAccess(address _entity, string memory _dataType) public onlyPatient {\r\n        patientAccessControls[msg.sender].authorizedEntitiesForDataType[_dataType][_entity] = true;\r\n        emit AccessGranted(_entity, _dataType);\r\n    }\r\n\r\n    // Revoke access from a data type\r\n    function revokeAccess(address _entity, string memory _dataType) public onlyPatient {\r\n        patientAccessControls[msg.sender].authorizedEntitiesForDataType[_dataType][_entity] = false;\r\n        emit AccessRevoked(_entity, _dataType);\r\n    }\r\n\r\n    function getOrganizationsAccessForDataType(string memory _dataType) public view returns (Organization[] memory, bool[] memory) {\r\n        AccessControl storage accessControl = patientAccessControls[msg.sender];\r\n\r\n        uint orgCount = patientOrganizations[accessControl.patient].length;\r\n        Organization[] memory orgs = new Organization[](orgCount);\r\n        bool[] memory hasAccess = new bool[](orgCount);\r\n\r\n        for (uint i = 0; i < orgCount; i++) {\r\n            orgs[i] = patientOrganizations[accessControl.patient][i];\r\n            hasAccess[i] = accessControl.authorizedEntitiesForDataType[_dataType][orgs[i].orgAddress];\r\n        }\r\n\r\n        return (orgs, hasAccess);\r\n    }\r\n}\r\n",
  "sourcePath": "A:\\Sem-VII\\Research Project\\Enabling-Secure-Access-Control-of-Electronic-Health-Records-through-Smart-Contracts\\truffle\\contracts\\PatientOrgContract.sol",
  "compiler": {
    "name": "solc",
    "version": "0.8.23+commit.f704f362.Emscripten.clang"
  },
  "schemaVersion": "3.4.8",
  "updatedAt": "2023-11-16T06:20:35.634Z",
  "networkType": "ethereum",
  "devdoc": {
    "kind": "dev",
    "methods": {},
    "version": 1
  },
  "userdoc": {
    "kind": "user",
    "methods": {},
    "version": 1
  }
}