{
  "contractName": "PatientOrgContract",
  "abi": [
    {
      "anonymous": false,
      "inputs": [
        {
          "indexed": true,
          "internalType": "address",
          "name": "entity",
          "type": "address"
        },
        {
          "indexed": false,
          "internalType": "string",
          "name": "dataType",
          "type": "string"
        }
      ],
      "name": "AccessGranted",
      "type": "event"
    },
    {
      "anonymous": false,
      "inputs": [
        {
          "indexed": true,
          "internalType": "address",
          "name": "entity",
          "type": "address"
        },
        {
          "indexed": false,
          "internalType": "string",
          "name": "dataType",
          "type": "string"
        }
      ],
      "name": "AccessRevoked",
      "type": "event"
    },
    {
      "anonymous": false,
      "inputs": [
        {
          "indexed": false,
          "internalType": "address",
          "name": "patient",
          "type": "address"
        },
        {
          "indexed": false,
          "internalType": "string",
          "name": "name",
          "type": "string"
        },
        {
          "indexed": false,
          "internalType": "address",
          "name": "orgAddress",
          "type": "address"
        },
        {
          "indexed": false,
          "internalType": "string",
          "name": "role",
          "type": "string"
        }
      ],
      "name": "OrganizationAdded",
      "type": "event"
    },
    {
      "anonymous": false,
      "inputs": [
        {
          "indexed": false,
          "internalType": "string",
          "name": "dataType",
          "type": "string"
        },
        {
          "indexed": false,
          "internalType": "string",
          "name": "ipfsUri",
          "type": "string"
        }
      ],
      "name": "PatientDataUpdated",
      "type": "event"
    },
    {
      "inputs": [
        {
          "internalType": "address",
          "name": "",
          "type": "address"
        }
      ],
      "name": "patientAccessControls",
      "outputs": [
        {
          "internalType": "address",
          "name": "patient",
          "type": "address"
        }
      ],
      "stateMutability": "view",
      "type": "function",
      "constant": true
    },
    {
      "inputs": [
        {
          "internalType": "address",
          "name": "",
          "type": "address"
        },
        {
          "internalType": "uint256",
          "name": "",
          "type": "uint256"
        }
      ],
      "name": "patientOrganizations",
      "outputs": [
        {
          "internalType": "string",
          "name": "name",
          "type": "string"
        },
        {
          "internalType": "address",
          "name": "orgAddress",
          "type": "address"
        },
        {
          "internalType": "string",
          "name": "role",
          "type": "string"
        }
      ],
      "stateMutability": "view",
      "type": "function",
      "constant": true
    },
    {
      "inputs": [
        {
          "internalType": "address",
          "name": "patient",
          "type": "address"
        }
      ],
      "name": "getAllOrganizationsWithAccess",
      "outputs": [
        {
          "components": [
            {
              "internalType": "string",
              "name": "name",
              "type": "string"
            },
            {
              "internalType": "address",
              "name": "orgAddress",
              "type": "address"
            },
            {
              "components": [
                {
                  "internalType": "string",
                  "name": "dataType",
                  "type": "string"
                },
                {
                  "internalType": "bool",
                  "name": "hasAccess",
                  "type": "bool"
                }
              ],
              "internalType": "struct PatientOrgContract.DataTypeWithAccess[]",
              "name": "hasAccess",
              "type": "tuple[]"
            }
          ],
          "internalType": "struct PatientOrgContract.OrganizationWithAccess[]",
          "name": "",
          "type": "tuple[]"
        }
      ],
      "stateMutability": "view",
      "type": "function",
      "constant": true
    },
    {
      "inputs": [
        {
          "internalType": "address",
          "name": "_orgAddress",
          "type": "address"
        },
        {
          "internalType": "address",
          "name": "patient",
          "type": "address"
        }
      ],
      "name": "getAllDataTypesWithAccessForOrganization",
      "outputs": [
        {
          "components": [
            {
              "internalType": "string",
              "name": "dataType",
              "type": "string"
            },
            {
              "internalType": "bool",
              "name": "hasAccess",
              "type": "bool"
            }
          ],
          "internalType": "struct PatientOrgContract.DataTypeWithAccess[]",
          "name": "",
          "type": "tuple[]"
        }
      ],
      "stateMutability": "view",
      "type": "function",
      "constant": true
    },
    {
      "inputs": [
        {
          "internalType": "address",
          "name": "_patient",
          "type": "address"
        }
      ],
      "name": "setPatient",
      "outputs": [],
      "stateMutability": "nonpayable",
      "type": "function"
    },
    {
      "inputs": [
        {
          "internalType": "address",
          "name": "_orgAddress",
          "type": "address"
        },
        {
          "internalType": "string",
          "name": "_name",
          "type": "string"
        },
        {
          "internalType": "string",
          "name": "_role",
          "type": "string"
        }
      ],
      "name": "addOrganizationForPatient",
      "outputs": [],
      "stateMutability": "nonpayable",
      "type": "function"
    },
    {
      "inputs": [],
      "name": "getPatientOrganizations",
      "outputs": [
        {
          "components": [
            {
              "internalType": "string",
              "name": "name",
              "type": "string"
            },
            {
              "internalType": "address",
              "name": "orgAddress",
              "type": "address"
            },
            {
              "internalType": "string",
              "name": "role",
              "type": "string"
            }
          ],
          "internalType": "struct PatientOrgContract.Organization[]",
          "name": "",
          "type": "tuple[]"
        }
      ],
      "stateMutability": "view",
      "type": "function",
      "constant": true
    },
    {
      "inputs": [
        {
          "internalType": "string",
          "name": "_dataType",
          "type": "string"
        },
        {
          "internalType": "string",
          "name": "_ipfsUri",
          "type": "string"
        }
      ],
      "name": "updatePatientData",
      "outputs": [],
      "stateMutability": "nonpayable",
      "type": "function"
    },
    {
      "inputs": [],
      "name": "getPatientDataTypes",
      "outputs": [
        {
          "internalType": "string[]",
          "name": "",
          "type": "string[]"
        }
      ],
      "stateMutability": "view",
      "type": "function",
      "constant": true
    },
    {
      "inputs": [
        {
          "internalType": "string",
          "name": "_dataType",
          "type": "string"
        },
        {
          "internalType": "address",
          "name": "patient",
          "type": "address"
        }
      ],
      "name": "getPatientDataUri",
      "outputs": [
        {
          "internalType": "string",
          "name": "",
          "type": "string"
        }
      ],
      "stateMutability": "view",
      "type": "function",
      "constant": true
    },
    {
      "inputs": [
        {
          "internalType": "address",
          "name": "_entity",
          "type": "address"
        },
        {
          "internalType": "string",
          "name": "_dataType",
          "type": "string"
        }
      ],
      "name": "grantAccess",
      "outputs": [],
      "stateMutability": "nonpayable",
      "type": "function"
    },
    {
      "inputs": [
        {
          "internalType": "address",
          "name": "_entity",
          "type": "address"
        },
        {
          "internalType": "string",
          "name": "_dataType",
          "type": "string"
        }
      ],
      "name": "revokeAccess",
      "outputs": [],
      "stateMutability": "nonpayable",
      "type": "function"
    },
    {
      "inputs": [
        {
          "internalType": "string",
          "name": "_dataType",
          "type": "string"
        }
      ],
      "name": "getOrganizationsAccessForDataType",
      "outputs": [
        {
          "components": [
            {
              "internalType": "string",
              "name": "name",
              "type": "string"
            },
            {
              "internalType": "address",
              "name": "orgAddress",
              "type": "address"
            },
            {
              "internalType": "string",
              "name": "role",
              "type": "string"
            }
          ],
          "internalType": "struct PatientOrgContract.Organization[]",
          "name": "",
          "type": "tuple[]"
        },
        {
          "internalType": "bool[]",
          "name": "",
          "type": "bool[]"
        }
      ],
      "stateMutability": "view",
      "type": "function",
      "constant": true
    }
  ],
  "bytecode": "0x608060405234801561000f575f80fd5b50612e668061001d5f395ff3fe608060405234801561000f575f80fd5b50600436106100cd575f3560e01c8063723f8ab51161008a578063c1a2b94e11610064578063c1a2b94e14610232578063d9b1d70e14610264578063df63747f14610282578063e50fe48e146102a0576100cd565b8063723f8ab5146101b65780639822ff8d146101d25780639bf32ec814610202576100cd565b8063070e5b96146100d157806308b795b1146101015780631164ee4d1461013157806324a586601461016257806350eeed4f1461017e5780636a44cac91461019a575b5f80fd5b6100eb60048036038101906100e69190611f51565b6102bc565b6040516100f89190612025565b60405180910390f35b61011b60048036038101906101169190612045565b6104ac565b604051610128919061207f565b60405180910390f35b61014b60048036038101906101469190612098565b6104e4565b604051610159929190612307565b60405180910390f35b61017c6004803603810190610177919061233c565b61091b565b005b61019860048036038101906101939190612045565b610a2e565b005b6101b460048036038101906101af91906123b2565b610aad565b005b6101d060048036038101906101cb919061240c565b610c77565b005b6101ec60048036038101906101e79190612045565b610f49565b6040516101f99190612698565b60405180910390f35b61021c600480360381019061021791906126b8565b6112cd565b6040516102299190612779565b60405180910390f35b61024c600480360381019061024791906127cc565b6115a9565b60405161025b9392919061280a565b60405180910390f35b61026c611714565b604051610279919061284d565b60405180910390f35b61028a611a47565b6040516102979190612928565b60405180910390f35b6102ba60048036038101906102b591906123b2565b611b58565b005b60605f805f8473ffffffffffffffffffffffffffffffffffffffff1673ffffffffffffffffffffffffffffffffffffffff1681526020019081526020015f209050806002018460405161030f9190612982565b90815260200160405180910390205f8473ffffffffffffffffffffffffffffffffffffffff1673ffffffffffffffffffffffffffffffffffffffff1681526020019081526020015f205f9054906101000a900460ff16806103bd5750805f015f9054906101000a900473ffffffffffffffffffffffffffffffffffffffff1673ffffffffffffffffffffffffffffffffffffffff163373ffffffffffffffffffffffffffffffffffffffff16145b6103fc576040517f08c379a00000000000000000000000000000000000000000000000000000000081526004016103f390612a08565b60405180910390fd5b806003018460405161040e9190612982565b9081526020016040518091039020805461042790612a53565b80601f016020809104026020016040519081016040528092919081815260200182805461045390612a53565b801561049e5780601f106104755761010080835404028352916020019161049e565b820191905f5260205f20905b81548152906001019060200180831161048157829003601f168201915b505050505091505092915050565b5f602052805f5260405f205f91509050805f015f9054906101000a900473ffffffffffffffffffffffffffffffffffffffff16905081565b6060805f805f3373ffffffffffffffffffffffffffffffffffffffff1673ffffffffffffffffffffffffffffffffffffffff1681526020019081526020015f2090505f60015f835f015f9054906101000a900473ffffffffffffffffffffffffffffffffffffffff1673ffffffffffffffffffffffffffffffffffffffff1673ffffffffffffffffffffffffffffffffffffffff1681526020019081526020015f208054905090505f8167ffffffffffffffff8111156105a7576105a6611dd3565b5b6040519080825280602002602001820160405280156105e057816020015b6105cd611d23565b8152602001906001900390816105c55790505b5090505f8267ffffffffffffffff8111156105fe576105fd611dd3565b5b60405190808252806020026020018201604052801561062c5781602001602082028036833780820191505090505b5090505f5b8381101561090b5760015f865f015f9054906101000a900473ffffffffffffffffffffffffffffffffffffffff1673ffffffffffffffffffffffffffffffffffffffff1673ffffffffffffffffffffffffffffffffffffffff1681526020019081526020015f2081815481106106aa576106a9612a83565b5b905f5260205f2090600302016040518060600160405290815f820180546106d090612a53565b80601f01602080910402602001604051908101604052809291908181526020018280546106fc90612a53565b80156107475780601f1061071e57610100808354040283529160200191610747565b820191905f5260205f20905b81548152906001019060200180831161072a57829003601f168201915b50505050508152602001600182015f9054906101000a900473ffffffffffffffffffffffffffffffffffffffff1673ffffffffffffffffffffffffffffffffffffffff1673ffffffffffffffffffffffffffffffffffffffff1681526020016002820180546107b590612a53565b80601f01602080910402602001604051908101604052809291908181526020018280546107e190612a53565b801561082c5780601f106108035761010080835404028352916020019161082c565b820191905f5260205f20905b81548152906001019060200180831161080f57829003601f168201915b50505050508152505083828151811061084857610847612a83565b5b602002602001018190525084600201886040516108659190612982565b90815260200160405180910390205f84838151811061088757610886612a83565b5b60200260200101516020015173ffffffffffffffffffffffffffffffffffffffff1673ffffffffffffffffffffffffffffffffffffffff1681526020019081526020015f205f9054906101000a900460ff168282815181106108ec576108eb612a83565b5b6020026020010190151590811515815250508080600101915050610631565b5081819550955050505050915091565b5f805f3373ffffffffffffffffffffffffffffffffffffffff1673ffffffffffffffffffffffffffffffffffffffff1681526020019081526020015f2090505f816003018460405161096d9190612982565b9081526020016040518091039020805461098690612a53565b9050036109c2578060040183908060018154018082558091505060019003905f5260205f20015f9091909190915090816109c09190612c4d565b505b8181600301846040516109d59190612982565b908152602001604051809103902090816109ef9190612c4d565b507ff003290f29262794ffea7a9da5f0e2d45291d0bf3cf968cadeaf7ca35b2df2158383604051610a21929190612d1c565b60405180910390a1505050565b805f808373ffffffffffffffffffffffffffffffffffffffff1673ffffffffffffffffffffffffffffffffffffffff1681526020019081526020015f205f015f6101000a81548173ffffffffffffffffffffffffffffffffffffffff021916908373ffffffffffffffffffffffffffffffffffffffff16021790555050565b5f803373ffffffffffffffffffffffffffffffffffffffff1673ffffffffffffffffffffffffffffffffffffffff1681526020019081526020015f205f015f9054906101000a900473ffffffffffffffffffffffffffffffffffffffff1673ffffffffffffffffffffffffffffffffffffffff163373ffffffffffffffffffffffffffffffffffffffff1614610b78576040517f08c379a0000000000000000000000000000000000000000000000000000000008152600401610b6f90612dc1565b60405180910390fd5b5f805f3373ffffffffffffffffffffffffffffffffffffffff1673ffffffffffffffffffffffffffffffffffffffff1681526020019081526020015f2060020182604051610bc69190612982565b90815260200160405180910390205f8473ffffffffffffffffffffffffffffffffffffffff1673ffffffffffffffffffffffffffffffffffffffff1681526020019081526020015f205f6101000a81548160ff0219169083151502179055508173ffffffffffffffffffffffffffffffffffffffff167f51cbcaaca6ae26944c6280c966a07b04ca5c6766d82ca497ded152579431468d82604051610c6b9190612025565b60405180910390a25050565b5f803373ffffffffffffffffffffffffffffffffffffffff1673ffffffffffffffffffffffffffffffffffffffff1681526020019081526020015f205f015f9054906101000a900473ffffffffffffffffffffffffffffffffffffffff1673ffffffffffffffffffffffffffffffffffffffff163373ffffffffffffffffffffffffffffffffffffffff1614610d42576040517f08c379a0000000000000000000000000000000000000000000000000000000008152600401610d3990612dc1565b60405180910390fd5b5f60405180606001604052808481526020018573ffffffffffffffffffffffffffffffffffffffff16815260200183815250905060015f805f3373ffffffffffffffffffffffffffffffffffffffff1673ffffffffffffffffffffffffffffffffffffffff1681526020019081526020015f205f015f9054906101000a900473ffffffffffffffffffffffffffffffffffffffff1673ffffffffffffffffffffffffffffffffffffffff1673ffffffffffffffffffffffffffffffffffffffff1681526020019081526020015f2081908060018154018082558091505060019003905f5260205f2090600302015f909190919091505f820151815f019081610e4a9190612c4d565b506020820151816001015f6101000a81548173ffffffffffffffffffffffffffffffffffffffff021916908373ffffffffffffffffffffffffffffffffffffffff1602179055506040820151816002019081610ea69190612c4d565b5050507fcae71f98f8d9f298b947f99845d4ca2edd3f25f6582cd2fb82755bdd5be7d6925f803373ffffffffffffffffffffffffffffffffffffffff1673ffffffffffffffffffffffffffffffffffffffff1681526020019081526020015f205f015f9054906101000a900473ffffffffffffffffffffffffffffffffffffffff16848685604051610f3b9493929190612ddf565b60405180910390a150505050565b60605f805f8473ffffffffffffffffffffffffffffffffffffffff1673ffffffffffffffffffffffffffffffffffffffff1681526020019081526020015f2090505f60015f835f015f9054906101000a900473ffffffffffffffffffffffffffffffffffffffff1673ffffffffffffffffffffffffffffffffffffffff1673ffffffffffffffffffffffffffffffffffffffff1681526020019081526020015f208054905090505f8167ffffffffffffffff81111561100b5761100a611dd3565b5b60405190808252806020026020018201604052801561104457816020015b611031611d59565b8152602001906001900390816110295790505b5090505f5b828110156112c1575f60015f865f015f9054906101000a900473ffffffffffffffffffffffffffffffffffffffff1673ffffffffffffffffffffffffffffffffffffffff1673ffffffffffffffffffffffffffffffffffffffff1681526020019081526020015f2082815481106110c3576110c2612a83565b5b905f5260205f2090600302016040518060600160405290815f820180546110e990612a53565b80601f016020809104026020016040519081016040528092919081815260200182805461111590612a53565b80156111605780601f1061113757610100808354040283529160200191611160565b820191905f5260205f20905b81548152906001019060200180831161114357829003601f168201915b50505050508152602001600182015f9054906101000a900473ffffffffffffffffffffffffffffffffffffffff1673ffffffffffffffffffffffffffffffffffffffff1673ffffffffffffffffffffffffffffffffffffffff1681526020016002820180546111ce90612a53565b80601f01602080910402602001604051908101604052809291908181526020018280546111fa90612a53565b80156112455780601f1061121c57610100808354040283529160200191611245565b820191905f5260205f20905b81548152906001019060200180831161122857829003601f168201915b50505050508152505090506040518060600160405280825f01518152602001826020015173ffffffffffffffffffffffffffffffffffffffff16815260200161129283602001518a6112cd565b8152508383815181106112a8576112a7612a83565b5b6020026020010181905250508080600101915050611049565b50809350505050919050565b60605f803373ffffffffffffffffffffffffffffffffffffffff1673ffffffffffffffffffffffffffffffffffffffff1681526020019081526020015f205f015f9054906101000a900473ffffffffffffffffffffffffffffffffffffffff1673ffffffffffffffffffffffffffffffffffffffff163373ffffffffffffffffffffffffffffffffffffffff161461139a576040517f08c379a000000000000000000000000000000000000000000000000000000000815260040161139190612dc1565b60405180910390fd5b5f805f8473ffffffffffffffffffffffffffffffffffffffff1673ffffffffffffffffffffffffffffffffffffffff1681526020019081526020015f2090505f816004018054905090505f8167ffffffffffffffff8111156113ff576113fe611dd3565b5b60405190808252806020026020018201604052801561143857816020015b611425611d8f565b81526020019060019003908161141d5790505b5090505f5b8281101561159c575f84600401828154811061145c5761145b612a83565b5b905f5260205f2001805461146f90612a53565b80601f016020809104026020016040519081016040528092919081815260200182805461149b90612a53565b80156114e65780601f106114bd576101008083540402835291602001916114e6565b820191905f5260205f20905b8154815290600101906020018083116114c957829003601f168201915b505050505090505f85600201826040516115009190612982565b90815260200160405180910390205f8a73ffffffffffffffffffffffffffffffffffffffff1673ffffffffffffffffffffffffffffffffffffffff1681526020019081526020015f205f9054906101000a900460ff169050604051806040016040528083815260200182151581525084848151811061158257611581612a83565b5b60200260200101819052505050808060010191505061143d565b5080935050505092915050565b6001602052815f5260405f2081815481106115c2575f80fd5b905f5260205f2090600302015f9150915050805f0180546115e290612a53565b80601f016020809104026020016040519081016040528092919081815260200182805461160e90612a53565b80156116595780601f1061163057610100808354040283529160200191611659565b820191905f5260205f20905b81548152906001019060200180831161163c57829003601f168201915b505050505090806001015f9054906101000a900473ffffffffffffffffffffffffffffffffffffffff169080600201805461169390612a53565b80601f01602080910402602001604051908101604052809291908181526020018280546116bf90612a53565b801561170a5780601f106116e15761010080835404028352916020019161170a565b820191905f5260205f20905b8154815290600101906020018083116116ed57829003601f168201915b5050505050905083565b60605f803373ffffffffffffffffffffffffffffffffffffffff1673ffffffffffffffffffffffffffffffffffffffff1681526020019081526020015f205f015f9054906101000a900473ffffffffffffffffffffffffffffffffffffffff1673ffffffffffffffffffffffffffffffffffffffff163373ffffffffffffffffffffffffffffffffffffffff16146117e1576040517f08c379a00000000000000000000000000000000000000000000000000000000081526004016117d890612dc1565b60405180910390fd5b60015f805f3373ffffffffffffffffffffffffffffffffffffffff1673ffffffffffffffffffffffffffffffffffffffff1681526020019081526020015f205f015f9054906101000a900473ffffffffffffffffffffffffffffffffffffffff1673ffffffffffffffffffffffffffffffffffffffff1673ffffffffffffffffffffffffffffffffffffffff1681526020019081526020015f20805480602002602001604051908101604052809291908181526020015f905b82821015611a3e578382905f5260205f2090600302016040518060600160405290815f820180546118ca90612a53565b80601f01602080910402602001604051908101604052809291908181526020018280546118f690612a53565b80156119415780601f1061191857610100808354040283529160200191611941565b820191905f5260205f20905b81548152906001019060200180831161192457829003601f168201915b50505050508152602001600182015f9054906101000a900473ffffffffffffffffffffffffffffffffffffffff1673ffffffffffffffffffffffffffffffffffffffff1673ffffffffffffffffffffffffffffffffffffffff1681526020016002820180546119af90612a53565b80601f01602080910402602001604051908101604052809291908181526020018280546119db90612a53565b8015611a265780601f106119fd57610100808354040283529160200191611a26565b820191905f5260205f20905b815481529060010190602001808311611a0957829003601f168201915b5050505050815250508152602001906001019061189a565b50505050905090565b60605f803373ffffffffffffffffffffffffffffffffffffffff1673ffffffffffffffffffffffffffffffffffffffff1681526020019081526020015f20600401805480602002602001604051908101604052809291908181526020015f905b82821015611b4f578382905f5260205f20018054611ac490612a53565b80601f0160208091040260200160405190810160405280929190818152602001828054611af090612a53565b8015611b3b5780601f10611b1257610100808354040283529160200191611b3b565b820191905f5260205f20905b815481529060010190602001808311611b1e57829003601f168201915b505050505081526020019060010190611aa7565b50505050905090565b5f803373ffffffffffffffffffffffffffffffffffffffff1673ffffffffffffffffffffffffffffffffffffffff1681526020019081526020015f205f015f9054906101000a900473ffffffffffffffffffffffffffffffffffffffff1673ffffffffffffffffffffffffffffffffffffffff163373ffffffffffffffffffffffffffffffffffffffff1614611c23576040517f08c379a0000000000000000000000000000000000000000000000000000000008152600401611c1a90612dc1565b60405180910390fd5b60015f803373ffffffffffffffffffffffffffffffffffffffff1673ffffffffffffffffffffffffffffffffffffffff1681526020019081526020015f2060020182604051611c729190612982565b90815260200160405180910390205f8473ffffffffffffffffffffffffffffffffffffffff1673ffffffffffffffffffffffffffffffffffffffff1681526020019081526020015f205f6101000a81548160ff0219169083151502179055508173ffffffffffffffffffffffffffffffffffffffff167f883d542f167dfc5f47e8bf1532c171025ed0e4c59c1126c7f61749fa21976a4582604051611d179190612025565b60405180910390a25050565b6040518060600160405280606081526020015f73ffffffffffffffffffffffffffffffffffffffff168152602001606081525090565b6040518060600160405280606081526020015f73ffffffffffffffffffffffffffffffffffffffff168152602001606081525090565b6040518060400160405280606081526020015f151581525090565b5f604051905090565b5f80fd5b5f80fd5b5f80fd5b5f80fd5b5f601f19601f8301169050919050565b7f4e487b71000000000000000000000000000000000000000000000000000000005f52604160045260245ffd5b611e0982611dc3565b810181811067ffffffffffffffff82111715611e2857611e27611dd3565b5b80604052505050565b5f611e3a611daa565b9050611e468282611e00565b919050565b5f67ffffffffffffffff821115611e6557611e64611dd3565b5b611e6e82611dc3565b9050602081019050919050565b828183375f83830152505050565b5f611e9b611e9684611e4b565b611e31565b905082815260208101848484011115611eb757611eb6611dbf565b5b611ec2848285611e7b565b509392505050565b5f82601f830112611ede57611edd611dbb565b5b8135611eee848260208601611e89565b91505092915050565b5f73ffffffffffffffffffffffffffffffffffffffff82169050919050565b5f611f2082611ef7565b9050919050565b611f3081611f16565b8114611f3a575f80fd5b50565b5f81359050611f4b81611f27565b92915050565b5f8060408385031215611f6757611f66611db3565b5b5f83013567ffffffffffffffff811115611f8457611f83611db7565b5b611f9085828601611eca565b9250506020611fa185828601611f3d565b9150509250929050565b5f81519050919050565b5f82825260208201905092915050565b5f5b83811015611fe2578082015181840152602081019050611fc7565b5f8484015250505050565b5f611ff782611fab565b6120018185611fb5565b9350612011818560208601611fc5565b61201a81611dc3565b840191505092915050565b5f6020820190508181035f83015261203d8184611fed565b905092915050565b5f6020828403121561205a57612059611db3565b5b5f61206784828501611f3d565b91505092915050565b61207981611f16565b82525050565b5f6020820190506120925f830184612070565b92915050565b5f602082840312156120ad576120ac611db3565b5b5f82013567ffffffffffffffff8111156120ca576120c9611db7565b5b6120d684828501611eca565b91505092915050565b5f81519050919050565b5f82825260208201905092915050565b5f819050602082019050919050565b5f82825260208201905092915050565b5f61212282611fab565b61212c8185612108565b935061213c818560208601611fc5565b61214581611dc3565b840191505092915050565b61215981611f16565b82525050565b5f606083015f8301518482035f8601526121798282612118565b915050602083015161218e6020860182612150565b50604083015184820360408601526121a68282612118565b9150508091505092915050565b5f6121be838361215f565b905092915050565b5f602082019050919050565b5f6121dc826120df565b6121e681856120e9565b9350836020820285016121f8856120f9565b805f5b85811015612233578484038952815161221485826121b3565b945061221f836121c6565b925060208a019950506001810190506121fb565b50829750879550505050505092915050565b5f81519050919050565b5f82825260208201905092915050565b5f819050602082019050919050565b5f8115159050919050565b6122828161226e565b82525050565b5f6122938383612279565b60208301905092915050565b5f602082019050919050565b5f6122b582612245565b6122bf818561224f565b93506122ca8361225f565b805f5b838110156122fa5781516122e18882612288565b97506122ec8361229f565b9250506001810190506122cd565b5085935050505092915050565b5f6040820190508181035f83015261231f81856121d2565b9050818103602083015261233381846122ab565b90509392505050565b5f806040838503121561235257612351611db3565b5b5f83013567ffffffffffffffff81111561236f5761236e611db7565b5b61237b85828601611eca565b925050602083013567ffffffffffffffff81111561239c5761239b611db7565b5b6123a885828601611eca565b9150509250929050565b5f80604083850312156123c8576123c7611db3565b5b5f6123d585828601611f3d565b925050602083013567ffffffffffffffff8111156123f6576123f5611db7565b5b61240285828601611eca565b9150509250929050565b5f805f6060848603121561242357612422611db3565b5b5f61243086828701611f3d565b935050602084013567ffffffffffffffff81111561245157612450611db7565b5b61245d86828701611eca565b925050604084013567ffffffffffffffff81111561247e5761247d611db7565b5b61248a86828701611eca565b9150509250925092565b5f81519050919050565b5f82825260208201905092915050565b5f819050602082019050919050565b5f81519050919050565b5f82825260208201905092915050565b5f819050602082019050919050565b5f604083015f8301518482035f8601526125008282612118565b91505060208301516125156020860182612279565b508091505092915050565b5f61252b83836124e6565b905092915050565b5f602082019050919050565b5f612549826124bd565b61255381856124c7565b935083602082028501612565856124d7565b805f5b858110156125a057848403895281516125818582612520565b945061258c83612533565b925060208a01995050600181019050612568565b50829750879550505050505092915050565b5f606083015f8301518482035f8601526125cc8282612118565b91505060208301516125e16020860182612150565b50604083015184820360408601526125f9828261253f565b9150508091505092915050565b5f61261183836125b2565b905092915050565b5f602082019050919050565b5f61262f82612494565b612639818561249e565b93508360208202850161264b856124ae565b805f5b8581101561268657848403895281516126678582612606565b945061267283612619565b925060208a0199505060018101905061264e565b50829750879550505050505092915050565b5f6020820190508181035f8301526126b08184612625565b905092915050565b5f80604083850312156126ce576126cd611db3565b5b5f6126db85828601611f3d565b92505060206126ec85828601611f3d565b9150509250929050565b5f82825260208201905092915050565b5f612710826124bd565b61271a81856126f6565b93508360208202850161272c856124d7565b805f5b8581101561276757848403895281516127488582612520565b945061275383612533565b925060208a0199505060018101905061272f565b50829750879550505050505092915050565b5f6020820190508181035f8301526127918184612706565b905092915050565b5f819050919050565b6127ab81612799565b81146127b5575f80fd5b50565b5f813590506127c6816127a2565b92915050565b5f80604083850312156127e2576127e1611db3565b5b5f6127ef85828601611f3d565b9250506020612800858286016127b8565b9150509250929050565b5f6060820190508181035f8301526128228186611fed565b90506128316020830185612070565b81810360408301526128438184611fed565b9050949350505050565b5f6020820190508181035f83015261286581846121d2565b905092915050565b5f81519050919050565b5f82825260208201905092915050565b5f819050602082019050919050565b5f6128a18383612118565b905092915050565b5f602082019050919050565b5f6128bf8261286d565b6128c98185612877565b9350836020820285016128db85612887565b805f5b8581101561291657848403895281516128f78582612896565b9450612902836128a9565b925060208a019950506001810190506128de565b50829750879550505050505092915050565b5f6020820190508181035f83015261294081846128b5565b905092915050565b5f81905092915050565b5f61295c82611fab565b6129668185612948565b9350612976818560208601611fc5565b80840191505092915050565b5f61298d8284612952565b915081905092915050565b7f556e617574686f72697a65642061636365737320666f722064617461207479705f8201527f6500000000000000000000000000000000000000000000000000000000000000602082015250565b5f6129f2602183611fb5565b91506129fd82612998565b604082019050919050565b5f6020820190508181035f830152612a1f816129e6565b9050919050565b7f4e487b71000000000000000000000000000000000000000000000000000000005f52602260045260245ffd5b5f6002820490506001821680612a6a57607f821691505b602082108103612a7d57612a7c612a26565b5b50919050565b7f4e487b71000000000000000000000000000000000000000000000000000000005f52603260045260245ffd5b5f819050815f5260205f209050919050565b5f6020601f8301049050919050565b5f82821b905092915050565b5f60088302612b0c7fffffffffffffffffffffffffffffffffffffffffffffffffffffffffffffffff82612ad1565b612b168683612ad1565b95508019841693508086168417925050509392505050565b5f819050919050565b5f612b51612b4c612b4784612799565b612b2e565b612799565b9050919050565b5f819050919050565b612b6a83612b37565b612b7e612b7682612b58565b848454612add565b825550505050565b5f90565b612b92612b86565b612b9d818484612b61565b505050565b5b81811015612bc057612bb55f82612b8a565b600181019050612ba3565b5050565b601f821115612c0557612bd681612ab0565b612bdf84612ac2565b81016020851015612bee578190505b612c02612bfa85612ac2565b830182612ba2565b50505b505050565b5f82821c905092915050565b5f612c255f1984600802612c0a565b1980831691505092915050565b5f612c3d8383612c16565b9150826002028217905092915050565b612c5682611fab565b67ffffffffffffffff811115612c6f57612c6e611dd3565b5b612c798254612a53565b612c84828285612bc4565b5f60209050601f831160018114612cb5575f8415612ca3578287015190505b612cad8582612c32565b865550612d14565b601f198416612cc386612ab0565b5f5b82811015612cea57848901518255600182019150602085019450602081019050612cc5565b86831015612d075784890151612d03601f891682612c16565b8355505b6001600288020188555050505b505050505050565b5f6040820190508181035f830152612d348185611fed565b90508181036020830152612d488184611fed565b90509392505050565b7f4f6e6c79207468652070617469656e742063616e20706572666f726d207468695f8201527f7320616374696f6e000000000000000000000000000000000000000000000000602082015250565b5f612dab602883611fb5565b9150612db682612d51565b604082019050919050565b5f6020820190508181035f830152612dd881612d9f565b9050919050565b5f608082019050612df25f830187612070565b8181036020830152612e048186611fed565b9050612e136040830185612070565b8181036060830152612e258184611fed565b90509594505050505056fea26469706673582212209fbee933eb11343589ef5e845c9337d990e4e4c7eb86b6a0bcd4fd95457cd9cb64736f6c63430008170033",
  "immutableReferences": {},
  "source": "// SPDX-License-Identifier: MIT\r\npragma solidity ^0.8.7;\r\n\r\ncontract PatientOrgContract {\r\n    struct Organization {\r\n        string name;\r\n        address orgAddress;\r\n        string role;\r\n    }\r\n\r\n    struct AccessControl {\r\n        address patient;\r\n        mapping(address => bool) authorizedEntities;\r\n        mapping(string => mapping(address => bool)) authorizedEntitiesForDataType;\r\n        mapping(string => string) patientData;\r\n        string[] dataTypes;\r\n    }\r\n    struct OrganizationWithAccess {\r\n        string name;\r\n        address orgAddress;\r\n        DataTypeWithAccess[] hasAccess;\r\n    }\r\n\r\n    mapping(address => AccessControl) public patientAccessControls; // Mapping to store AccessControl for each patient\r\n    mapping(address => Organization[]) public patientOrganizations; // Stores multiple organizations for each patient\r\n\r\n    // Get all organizations and their access for a patient\r\n    function getAllOrganizationsWithAccess(address patient) public view returns (OrganizationWithAccess[] memory) {\r\n        AccessControl storage accessControl = patientAccessControls[patient];\r\n\r\n        uint orgCount = patientOrganizations[accessControl.patient].length;\r\n        OrganizationWithAccess[] memory orgsWithAccess = new OrganizationWithAccess[](orgCount);\r\n\r\n        for (uint i = 0; i < orgCount; i++) {\r\n            Organization memory org = patientOrganizations[accessControl.patient][i];\r\n            orgsWithAccess[i] = OrganizationWithAccess({\r\n                name: org.name,\r\n                orgAddress: org.orgAddress,\r\n                hasAccess: getAllDataTypesWithAccessForOrganization(org.orgAddress,patient)\r\n            });\r\n        }\r\n\r\n        return orgsWithAccess;\r\n    }\r\n\r\n        function getAllDataTypesWithAccessForOrganization(address _orgAddress,address patient) public view onlyPatient returns (DataTypeWithAccess[] memory) {\r\n        AccessControl storage accessControl = patientAccessControls[patient];\r\n\r\n        uint dataTypeCount = accessControl.dataTypes.length;\r\n        DataTypeWithAccess[] memory dataTypesWithAccess = new DataTypeWithAccess[](dataTypeCount);\r\n\r\n        for (uint i = 0; i < dataTypeCount; i++) {\r\n            string memory dataType = accessControl.dataTypes[i];\r\n            bool hasAccess = accessControl.authorizedEntitiesForDataType[dataType][_orgAddress];\r\n\r\n            dataTypesWithAccess[i] = DataTypeWithAccess({\r\n                dataType: dataType,\r\n                hasAccess: hasAccess\r\n            });\r\n        }\r\n\r\n        return dataTypesWithAccess;\r\n    }\r\n\r\n    // Helper struct to store data type details along with access status\r\n    struct DataTypeWithAccess {\r\n        string dataType;\r\n        bool hasAccess;\r\n    }\r\n    // Events\r\n    event AccessGranted(address indexed entity, string dataType);\r\n    event AccessRevoked(address indexed entity, string dataType);\r\n    event PatientDataUpdated(string dataType, string ipfsUri);\r\n    event OrganizationAdded(address patient, string name, address orgAddress, string role);\r\n\r\n    // Set patient access control\r\n    function setPatient(address _patient) public {\r\n        patientAccessControls[_patient].patient = _patient;\r\n    }\r\n\r\n    modifier onlyPatient() {\r\n        require(msg.sender == patientAccessControls[msg.sender].patient, \"Only the patient can perform this action\");\r\n        _;\r\n    }\r\n\r\n    // Add an organization for the patient\r\n    function addOrganizationForPatient(address _orgAddress, string memory _name, string memory _role) public onlyPatient {\r\n        Organization memory newOrg = Organization(_name, _orgAddress, _role);\r\n        patientOrganizations[patientAccessControls[msg.sender].patient].push(newOrg);\r\n        emit OrganizationAdded(patientAccessControls[msg.sender].patient, _name, _orgAddress, _role);\r\n    }\r\n\r\n    // Get all organizations for a patient\r\n    function getPatientOrganizations() public view onlyPatient returns (Organization[] memory) {\r\n        return patientOrganizations[patientAccessControls[msg.sender].patient];\r\n    }\r\n\r\n    // Update patient data\r\n    function updatePatientData(string memory _dataType, string memory _ipfsUri) public {\r\n        AccessControl storage accessControl = patientAccessControls[msg.sender];\r\n\r\n        if (bytes(accessControl.patientData[_dataType]).length == 0) {\r\n            accessControl.dataTypes.push(_dataType);\r\n        }\r\n        accessControl.patientData[_dataType] = _ipfsUri;\r\n        emit PatientDataUpdated(_dataType, _ipfsUri);\r\n    }\r\n\r\n    // Get the list of data types\r\n    function getPatientDataTypes() public view returns (string[] memory) {\r\n        return patientAccessControls[msg.sender].dataTypes;\r\n    }\r\n\r\n    // Get patient data URI\r\n    function getPatientDataUri(string memory _dataType,address patient) public view returns (string memory) {\r\n        AccessControl storage accessControl = patientAccessControls[patient];\r\n\r\n        require(accessControl.authorizedEntitiesForDataType[_dataType][patient] || msg.sender == accessControl.patient, \"Unauthorized access for data type\");\r\n        return accessControl.patientData[_dataType];\r\n    }\r\n\r\n    // Grant access to a data type\r\n    function grantAccess(address _entity, string memory _dataType) public onlyPatient {\r\n        patientAccessControls[msg.sender].authorizedEntitiesForDataType[_dataType][_entity] = true;\r\n        emit AccessGranted(_entity, _dataType);\r\n    }\r\n\r\n    // Revoke access from a data type\r\n    function revokeAccess(address _entity, string memory _dataType) public onlyPatient {\r\n        patientAccessControls[msg.sender].authorizedEntitiesForDataType[_dataType][_entity] = false;\r\n        emit AccessRevoked(_entity, _dataType);\r\n    }\r\n\r\n    function getOrganizationsAccessForDataType(string memory _dataType) public view returns (Organization[] memory, bool[] memory) {\r\n        AccessControl storage accessControl = patientAccessControls[msg.sender];\r\n\r\n        uint orgCount = patientOrganizations[accessControl.patient].length;\r\n        Organization[] memory orgs = new Organization[](orgCount);\r\n        bool[] memory hasAccess = new bool[](orgCount);\r\n\r\n        for (uint i = 0; i < orgCount; i++) {\r\n            orgs[i] = patientOrganizations[accessControl.patient][i];\r\n            hasAccess[i] = accessControl.authorizedEntitiesForDataType[_dataType][orgs[i].orgAddress];\r\n        }\r\n\r\n        return (orgs, hasAccess);\r\n    }\r\n}\r\n",
  "sourcePath": "A:\\Sem-VII\\Research Project\\Enabling-Secure-Access-Control-of-Electronic-Health-Records-through-Smart-Contracts\\truffle\\contracts\\PatientOrgContract.sol",
  "compiler": {
    "name": "solc",
    "version": "0.8.23+commit.f704f362.Emscripten.clang"
  },
  "schemaVersion": "3.4.8",
  "updatedAt": "2023-11-14T07:54:02.872Z",
  "networkType": "ethereum",
  "devdoc": {
    "kind": "dev",
    "methods": {},
    "version": 1
  },
  "userdoc": {
    "kind": "user",
    "methods": {},
    "version": 1
  }
}